:100000000C94C7170C94AA3D0C94DB3D0C940C3E49
:100010000C94403E0C94743E0C94A53E0C94D63E39
:100020000C94073F0C94F1170C94F1170C94F117F2
:100030000C9463400C94F1170C94F1170C94BF408E
:100040000C94F1170C94F1170C94F1170C94F11710
:100050000C94F1170C94F1170C94F1170C949A402E
:100060000C94F1170C9424440C94F1170C94F11790
:100070000C94F1170C94F1170C94F1170C94F117E0
:100080000C94F1170C94F1170C94F1170C94F117D0
:100090000C9465440C94F1170C94F1170C945C7B50
:1000A0000C94F1170C94F1170C94F1170C94F117B0
:1000B0000C94F1170C94F1170C94F1170C94F117A0
:1000C0000C94F1170C94F1170C94F11710371337A7
:1000D000163719371C371F372237933D953D973D0B
:1000E000993D9B3DA03D9D3D9F3DBB50CA50E95071
:1000F000F8500751165125519A51A851B651C45183
:10010000C751D551E351F151FF510D521B522952A4
:1001100037524552B355CC55E455F555FF55195650
:100120008156445E475E4A5E515E5A5E635E6C5E17
:10013000A57DB37DBA7DBC7DBE7DC07DC27D362EE2
:100140002057616B6520757021210A0A00585858A4
:10015000585858585858585858585858585858581F
:10016000585858585858585858585858585858580F
:1001700058585858585858585858585858585858FF
:1001800058585858585858585858585858585858EF
:1001900058585858585858585858585858585858DF
:1001A00058585858585858585858585858585858CF
:1001B00058585858585858585858585858585858BF
:1001C00058585858585858585858585858585858AF
:1001D000585858585800352E20456E746572206462
:1001E00065657020736C6565702E2E2E0020506141
:1001F000002025002043656C736975730073706976
:100200006C6C2073656E736F723A200068616C6C61
:100210002073656E736F723A2000464C4F57206909
:100220006E203000464C4F5720696E203100464CFE
:100230004F5720696E203200464C4F5720696E2080
:100240003300464C4F5720696E203400464C4F57C0
:1002500020696E20350076767676767676767676B6
:10026000767676767676767676767676767676762E
:10027000767676767676767676767676767676761E
:10028000767676767676767676767676767676760E
:1002900076767676767676767676767676767676FE
:1002A00076767676767676767676767676767676EE
:1002B00076767676767676767676767676767676DE
:1002C00076767676767676767676767676767676CE
:1002D00076767676767676767676007C7C7C7C7C16
:1002E0007C7C7C7C7C7C7C7C7C7C7C7C7C7C7C7C4E
:1002F0007C7C7C7C7C7C7C7C7C7C7C7C7C7C7C7C3E
:100300007C7C7C7C7C7C7C7C7C7C7C7C7C7C7C7C2D
:100310007C7C7C7C7C7C7C7C7C7C7C7C7C7C7C7C1D
:100320007C7C7C7C7C7C7C7C7C7C7C7C7C7C7C7C0D
:100330007C7C7C7C7C7C7C7C7C7C7C7C7C7C7C7CFD
:100340007C7C7C7C7C7C7C7C7C7C7C7C7C7C7C7CED
:100350007C7C7C7C7C7C7C7C7C7C7C7C7C7C7C0059
:100360005E5E5E5E5E5E5E5E5E5E5E5E5E5E5E5EAD
:100370005E5E5E5E5E5E5E5E5E5E5E5E5E5E5E5E9D
:100380005E5E5E5E5E5E5E5E5E5E5E5E5E5E5E5E8D
:100390005E5E5E5E5E5E5E5E5E5E5E5E5E5E5E5E7D
:1003A0005E5E5E5E5E5E5E5E5E5E5E5E5E5E5E5E6D
:1003B0005E5E5E5E5E5E5E5E5E5E5E5E5E5E5E5E5D
:1003C0005E5E5E5E5E5E5E5E5E5E5E5E5E5E5E5E4D
:1003D0005E5E5E5E5E5E5E5E5E5E5E5E5E5E5E5E3D
:1003E0005E5E5E5E005254432073796E63207374C8
:1003F0006174653A20007772697465696E67206977
:10040000732068617665696E67206572726F7273BA
:10041000007772697465696E67206973204F4B00BD
:1004200066696C65204E4F54206372656174656423
:100430000066696C65206372656174656400666955
:100440006C65204E4F542064656C6574656400666D
:10045000696C652064656C657465640053536563FD
:100460007572655F53445F5254435F34475F763122
:1004700000322E20537769746368204F464620343B
:1004800047206D6F64756C65004572726F722063F2
:100490006F64653A20003447206D6F64756C652089
:1004A0006E6F74207374617274656400312E203431
:1004B00047206D6F64756C652072656164790034E6
:1004C0002E20537769746368204F464620344720B6
:1004D0006D6F64756C65004572726F7220636F6436
:1004E000653A20003447206D6F64756C65206E6F2F
:1004F000742073746172746564004661696C65642C
:100500002E204572726F7220636F64653A2000443A
:100510006F6E652E204854545020636F64653A20F6
:100520000053656E64696E67207468652066726149
:100530006D652E2E2E00312E203447206D6F647590
:100540006C652072656164792E2E2E0074696D656C
:100550003A20002076732075736572207361797379
:1005600020003A2061706920736179732000457220
:10057000726F722073656E736F722074797065206C
:1005800026206E6669656C6473206D69736D617495
:10059000636820666F7220696E64657820005B4630
:1005A00052414D455D2000207673207573657220A1
:1005B0007361797320003A206170692073617973E7
:1005C00020004572726F722073656E736F722074B3
:1005D000797065206D69736D6174636820666F72F0
:1005E00020696E64657820005B4652414D455D2070
:1005F0000020767320003A20004572726F722073DB
:10060000656E736F722074797065206D69736D61AA
:1006100074636820666F7220696E64657820005B81
:100620004652414D455D20000202010202020102D4
:1006300000000000020202020202020202020202A2
:10064000020202020202020202020202020202028A
:100650000202000000000000000000000006000090
:100660000000000000000200000000000000040480
:10067000040002020102000000000000000000006F
:10068000000202020303030000000000000000005B
:10069000000000000000000000000000000000005A
:1006A0000000000000000000000000000000020246
:1006B000020202020202020202020202020202021A
:1006C000020202020202020202020202020202020A
:1006D00002020202020202020202020202020202FA
:1006E00002020202020202020202020202020202EA
:1006F00002020202020202020202020202020202DA
:1007000002020202020202020202020202030303C6
:1007100003010101010101010101010101010101C7
:1007200001010101010101010101010101010101B9
:1007300001010101010101010101010101010102A8
:100740000203030101010101010102010101010391
:100750000301010103010101010101010101020184
:100760000101010101010101010101010101010179
:100770000101010101010101010101010101010169
:100780000101010101010101010101010101010159
:100790000101010101010101010101010101010149
:1007A0000101010101010101010101010101010139
:1007B0000101010101010101010101010101010129
:1007C0000101010101010101010101010101010119
:1007D0000101010101010101010101010101010109
:1007E00001010101010101010101010101010101F9
:1007F00001010101010101010101010101010101E9
:1008000001010202020202020202040401010202C8
:1008100002020202020202020202020202020202B8
:1008200002020202020202020202020201010101AC
:1008300001010100000100020103030300000101A6
:100840000201040300000303020202040202020286
:100850000401000000000000000000020202020289
:100860000200000000000000000000000000000086
:100870000000000000000000000000000004000074
:100880000000000000000000020202020202020258
:100890000202020202020202020202020202020238
:1008A0000202020202020202020202020202020228
:1008B0000202020202020202020202020202020218
:1008C0000202020202020202020202020202020208
:1008D00002020202020202020202020202020202F8
:1008E00002020202020202020202020202020207E3
:1008F0000F020FFC0EF50EF00EEB0EE50EDE0ED81D
:100900000ED20ECD0EC80EC20EBC0EB60EB00EAA82
:100910000EA50EA00E9B0E960E910E8C0E870E82CB
:100920000E7D0E780E730E6E0E690E640E5F0E59FC
:100930000E520E490E410E3A0E330E2C0E260E1F8D
:100940000E190E100E0A0E040EFE0DF70DF10DEB32
:100950000DE50DDF0DD90DD50DD10DCC0DC80DC593
:100960000DC10DBC0DB70DB30DAF0DA70DA30D9CA3
:100970000D980D970D960D920D8F0D8B0D850D8099
:100980000D7B0D780D750D710D6C0D680D650D6489
:100990000D630D620D610D600D5F0D5E0D5D0D5CF3
:1009A0000D530D490D450D400D3B0D360D350D34E4
:1009B0000D330D320D310D300D2F0D2E0D2D0D2C53
:1009C0000D2B0D2A0D290D280D270D260D250D2483
:1009D0000D230D220D210D200D1F0D1E0D1D0D1CB3
:1009E0000D1B0D1A0D160D150D100D0A0D040D0120
:1009F0000D000DFF0CFE0CFD0CFC0CF60CF00CEACF
:100A00000CE40CDE0CD90CD40CCF0CCA0CC50CC0F9
:100A10000CBB0CB60CB10CAC0CA70CA20C9D0C982A
:100A20000C930C8D0C870C810C7B0C750C700C6B73
:100A30000C660C610C5C0C570C520C4D0C480C43B2
:100A40000C3E0C390C340C2F0C2A0C240C1E0C18E8
:100A50000C120C0C0C070C020CFD0BF80BF30BEE3C
:100A60000BE90BE40BDF0BDA0BD40BCE0BC80BC27C
:100A70000BBC0BB60BB00BAA0BA40B9E0B980B92E6
:100A80000B8C0B860B800B7B0B760B710B6C0B6747
:100A90000B610B5B0B550B4F0B490B440B3F0B3A98
:100AA0000B350B300B2B0B260B210B1C0B170B11D3
:100AB0000B0B0B050BFF0AF90AF30AED0AE70AE133
:100AC0000ADB0AD50ACF0AC90A5443375F440054E7
:100AD00043375F43005443375F42005443375F411D
:100AE000004449535F44004449535F430044495321
:100AF0005F42004449535F41005446415F45005402
:100B000046415F44005446415F43005446415F42C2
:100B1000005446415F410053535F450053535F44C7
:100B20000053535F430053535F420053535F4100F0
:100B300053425F450053425F440053425F430053BA
:100B4000425F420053425F41005443365F450054C8
:100B500043365F44005443365F43005443365F429C
:100B6000005443365F410043555F450043555F44A1
:100B70000043555F430043555F420043555F4100CA
:100B80005341315F45005341315F44005341315F70
:100B900043005341315F42005341315F4100434EB6
:100BA000315F4500434E315F4400434E315F4300A7
:100BB000434E315F4200434E315F41005443355F45
:100BC00045005443355F44005443355F430054436C
:100BD000355F42005443355F4100544D5F4500543A
:100BE0004D5F4400544D5F4300544D5F4200544DEF
:100BF0005F4100544E5F4500544E5F4400544E5FC9
:100C00004300544E5F4200544E5F41005443345FF2
:100C100045005443345F44005443345F430054431D
:100C2000345F42005443345F410054445F450054F4
:100C3000445F440054445F430054445F42005444C2
:100C40005F410053415F450053415F440053415FA2
:100C5000430053415F420053415F4100434E5F45B3
:100C600000434E5F4400434E5F4300434E5F4200EB
:100C7000434E5F41005443335F45005443335F4468
:100C8000005443335F43005443335F4200544333C3
:100C90005F4100504D5F4500504D5F4400504D5F37
:100CA0004300504D5F4200504D5F410052585F4538
:100CB0000052585F440052585F430052585F420050
:100CC00052585F410050485F450050485F44005013
:100CD000485F430050485F420050485F4100544322
:100CE000325F45005443325F44005443325F430057
:100CF0005443325F42005443325F41000000000021
:100D00000050530056424F4F54005650524F470028
:100D100056415049000054535400000000000000A8
:100D200000000000000000000000000000000000C3
:100D300000000000000050444F500056444F500047
:100D400048444F5000414C5400434F555253455F67
:100D50004F470053504545445F4F47000000000097
:100D600000000000005553004C55580050524553A8
:100D70000048554D00544600544300504152540021
:100D8000504D313000504D325F3500504D310052E2
:100D90004200554944000000535452004D494C4C08
:100DA00049530041434300494E5F54454D50005262
:100DB000414D00474D540054494D45004441544570
:100DC000004E4944004E41004D41430052535349A7
:100DD00000475053004241540043425F4650004395
:100DE000425F54500043425F464C0043425F4652CC
:100DF0000043425F56530043425F52504D004D4204
:100E00005F4952004D425F4852004D425F444900E5
:100E10004D425F434F494C5300454D5F544300459D
:100E20004D5F48444F00454D5F434C00454D5F4E7C
:100E30004F3300454D5F4E483400454D5F43484CAD
:100E400000454D5F434F4E4400454D5F444550546F
:100E50004800454D5F4F525000454D5F5048004F90
:100E6000505F45004F505F44004F505F43004F506C
:100E70005F42004F505F41004F4D5F45004F4D5F57
:100E800044004F4D5F43004F4D5F42004F4D5F4167
:100E9000004F535F45004F535F44004F535F430083
:100EA0004F535F42004F535F41005443315F450051
:100EB0005443315F44005443315F43005443315F36
:100EC00042005443315F410055535F440055535F26
:100ED00041004C55585F44004C55585F41005052FA
:100EE00045535F440048554D5F440054465F4400FD
:100EF00054435F4400505245535F410048554D5F95
:100F0000410054465F410054435F41000202010228
:100F100002020102000000000402020202020202B8
:100F20000202020202030303030304040404030392
:100F3000030303030303000000000000000000009F
:100F40000006000000000000000002000000000099
:100F5000000004040400020201020000000000007E
:100F60000000000000020202030303000000010170
:100F7000010200000000000000000000000000006E
:100F80000000000000000000000000000000000061
:100F9000000003030303010101010404040402022D
:100FA0000202000000000202020202020202020229
:100FB0000202010101010303030301010101010117
:100FC0000101020202020101010101010101030309
:100FD00003030303030302020202010101010000F3
:100FE00002020002000303000000000000000100F4
:100FF00000020000000000000001010100010102E8
:1010000001010000020202000000020001010101D2
:1010100001010101010101010101010101010101C0
:1010200001010101010101010101010101010101B0
:10103000010101010101020203030101010101019A
:101040000102010101010303010101030101010189
:10105000010101010102010101010101010101017F
:101060000101010101010101010101010101010170
:101070000101010101010101010101010101010160
:101080000101010101010101010101010101010150
:101090000101010101010101010101010101010140
:1010A0000101010101010101010101010101010130
:1010B0000101010101010101010101010101010120
:1010C0000101010101010101010101010101010110
:1010D0000101010101010101010101010101010100
:1010E00001010101010101010101010101010101F0
:1010F00001010101010101010101010101010101E0
:1011000001010101010101010101010102020202CB
:1011100002020202040401010202020202020202AD
:10112000020202020202020202020202020202029F
:10113000020202020202010101010101010000019B
:101140000002010303030000010102010403000087
:101150000303020202040202020204010000000072
:10116000000000000002020202020201010102026C
:10117000020200000000000000000000000000006B
:10118000000000000000000400000000000000005B
:101190000000020202020202020202020202020233
:1011A000020202020202020202020202020202021F
:1011B000020202020202020202020202020202020F
:1011C00002020202020202020202020202020202FF
:1011D00002020202020202020202020202020101F1
:1011E00002020102030202000101010202020203E3
:1011F00001020303030303030302020201020202CA
:10120000020202010202020103010203E018DB18DC
:10121000D518CE18C918C418BE18B718B118AB180D
:10122000A618A1189E18991894188F188A1884184F
:101230007E18781872186D18681863185E185B1895
:10124000581855184F18491843183D1837183118B1
:101250002B1825181F18191813180D18071801181E
:10126000F817F217EC17E617DF17D917D317CD17B2
:10127000C717C117BD17B917B417B017AD17A917FE
:10128000A4179F179B1797178F178B178417801713
:101290007F177E177A17771773176D1768176317FD
:1012A00060175D175917541750174D174C174B17E8
:1012B0004A174917481747174617451744173B174A
:1012C00031172D17281723171E171A1712170A1769
:1012D00006170217FE16FA16F616F516F416F3168A
:1012E000F216F116F016EF16EE16ED16EC16EB16DA
:1012F000EA16E916E816E716E616E516E416E3160A
:10130000E216DE16DD16D816D216CC16C916C81689
:10131000C716C616C516C416BF16BA16B516B01629
:10132000AA16A4169E16981692168C168616801665
:101330007A1674166E16681662165C1656165016D5
:101340004A1644163E16381632162C162616201645
:101350001A1614160E1608160216FC15F615F015B8
:10136000EB15E615E115DC15D615D015CA15C41513
:10137000BF15BA15B515B015AB15A615A1159C1559
:10138000971592158D15881582157C157615701593
:101390006A1564155E15581553154E1549154415F3
:1013A0003E15381532152C15261520151A1514154D
:1013B00011150D150A1506150115FC14F814F51470
:1013C000F214EE14EA14E514E014DD14DA14D71460
:1013D000D314D014CA14C314BC14B514AF14A91474
:1013E000A3149D1497148F1485147C1476146F1411
:1013F000691463145D14561450144A1442143914B9
:101400003114281420141A1413140C144750535F69
:101410005354004750535F5350004750535F4800A8
:101420004750535F4C4F43004750535F4744495226
:10143000004750535F475350004750535F41435359
:1014400050004750535F4353500048495F57530083
:1014500057435F5753005742545F57530041445F0F
:1014600057530041485F57530044505F575300544F
:10147000454D5F57530052485F57530050524553F4
:10148000535F57530050524553534C5F57530050CE
:101490005245535F57530054415F575300544E5FBA
:1014A00057530054435F57530050535F57530053F3
:1014B000545F575300534E545F5753005352545F79
:1014C0005753005353485F57530053525F575300CD
:1014D00053540053564F005A4F005954005854006B
:1014E000434D505300414357440043574400505329
:1014F000540050490050540057535300415747532C
:101500000041574744004157530057530041574447
:10151000005744005443375F44005443375F43004F
:101520005443375F42005443375F41004450335FB8
:1015300044004450335F43004450335F4200445002
:10154000335F41004C545F44004C545F43004C54A3
:101550005F42004C545F41004254325F44004254A9
:10156000325F43004254325F42004254325F4100D6
:101570005443365F44005443365F43005443365F60
:1015800042005443365F410057505F440057505F5C
:10159000430057505F420057505F410041505F4445
:1015A0000041505F430041505F420041505F4100A5
:1015B00052485F440052485F430052485F42005225
:1015C000485F41005443355F44005443355F430056
:1015D0005443355F42005443355F410056505F44E9
:1015E0000056505F430056505F420056505F410026
:1015F0005443345F44005443345F43005443345FE6
:1016000042005443345F41004543325F4400454348
:10161000325F43004543325F42004543325F410041
:101620004450325F44004450325F43004450325FC4
:1016300042004450325F41005443335F44005443FE
:10164000335F43005443335F42005443335F4100F0
:101650004543315F44004543315F43004543315FBB
:1016600042004543315F41004450315F44004450E3
:10167000315F43004450315F42004450315F4100CC
:101680004D56325F44004D56325F43004D56325F37
:1016900042004D56325F41005443325F4400544390
:1016A000325F43005443325F42005443325F410093
:1016B000434F5F4400434F5F4300434F5F4200434B
:1016C0004F5F4100000000000050530056424F4F52
:1016D00054005650524F4700564150490000545351
:1016E00054000000000000000000000000000000A6
:1016F0000000000000004E434E0050534800575376
:10170000500050544300455443005343325F52410C
:1017100044005343315F524144005241440050441D
:101720004F500056444F500048444F5000414C54D5
:1017300000434F555253455F4F4700535045454472
:101740005F4F4700000000000000000000555300FC
:101750004C555800505245530048554D00544600D2
:101760005443005041525400504D313000504D32DE
:101770005F3500504D310052420055494400000091
:10178000535452004D494C4C495300414343004986
:101790004E5F54454D500052414D00474D5400544A
:1017A000494D450044415445004E4944004E4100D6
:1017B0004D41430052535349004750530042415456
:1017C0000043425F46500043425F54500043425F33
:1017D000464C0043425F46520043425F565300432B
:1017E000425F52504D004D425F4952004D425F48AA
:1017F00052004D425F4449004D425F434F494C53B4
:10180000004254315F44004254315F43004254313E
:101810005F42004254315F41004D56315F44004DFC
:1018200056315F43004D56315F42004D56315F41A6
:10183000005443315F44005443315F43005443310B
:101840005F42005443315F41004355525F420043C1
:1018500055525F46004644005344005444005556D8
:101860005F460055565F450055565F430055565F2D
:1018700042005041525F46005041525F4500504186
:10188000525F43005041525F420053525F46005343
:10189000525F450053525F430053525F42004C5722
:1018A0000055535F440055535F41004C55585F4409
:1018B000004C55585F4100505245535F4400485515
:1018C0004D5F440054465F440054435F440050520F
:1018D00045535F410048554D5F410054465F41000C
:1018E00054435F41000303030303030303030303A0
:1018F00003030303030303030303020000000000C8
:1019000000000003030303030300000000030000C2
:1019100000000000000000000000060000000000C1
:1019200000000002000000000000000404040002A7
:10193000020102000000000000000000000002029E
:101940000203030300000000000303030303030377
:101950000303030303030303030303030303030357
:101960000000000000000602030101020102020360
:10197000030000000000000000000002020202025A
:101980000302000202020202030303020202000237
:101990000103000003030303000000000000000037
:1019A000000000000000020202000002000101012C
:1019B0000101010101010101010101010101010117
:1019C0000101010101010101010101010101010107
:1019D00001010101010101010101010101010101F7
:1019E00001010201010101030301010103010101E0
:1019F00001010101010102010101010101010101D6
:101A000001010101010101010101010101010101C6
:101A100001010101010101010101010101010101B6
:101A200001010101010101010101010101010101A6
:101A30000101010101010101010101010101010196
:101A40000101010101010101010101010101010186
:101A50000101010101010101010101010101010176
:101A60000102020303010101010101181008010133
:101A7000010101010102020202020202020202024B
:101A80000202020202020202020202000000000040
:101A90000000000202020202020000000002000038
:101AA000000000000000000000000201030303002A
:101AB0000001010201040303030303020202040202
:101AC0000202020401000000000000000000020207
:101AD00002020202000000000002020202020202F0
:101AE00002020202020202020202020202020000DA
:101AF00004000000000002020202020202020202CE
:101B000002000000000000000000000202020202C9
:101B100002020002020202020202020202020002A9
:101B200002020000020202020001010101010101A2
:101B3000000001010101020202040402000D20095B
:101B40002006200220FF1FFB1FF71FF31FEF1FEBD4
:101B50001FE81FE41FE11FDD1FD91FD61FD21FCEB4
:101B60001FCA1FC61FC21FBC1FBB1FBA1FB91FB889
:101B70001FB71FB61FB51FB41FAF1FAA1FA51FA4F5
:101B80001FA31F9E1F9D1F9C1F9B1F9A1F971F9384
:101B90001F901F8D1F881F841F7F1F7A1F751F7046
:101BA0001F6B1F6A1F661F621F5D1F591F561F5242
:101BB0001F4D1F481F441F401F381F341F2D1F2952
:101BC0001F281F271F231F201F1C1F161F111F0C3C
:101BD0001F091F061F021FFD1EF91EF61EF51EF42B
:101BE0001EF31EF21EF11EF01EEF1EEE1EED1EE491
:101BF0001EDA1ED61ED11ECC1EC71EC61EC51EC492
:101C00001EC31EC21EBC1EB61EB01EA91EA31E9D54
:101C10001E971E911E8A1E841E7E1E781E721E6BCB
:101C20001E631E5E1E581E521E4C1E461E401E3F48
:101C30001E3E1E3A1E391E341E2E1E281E251E2133
:101C40001E1E1E1A1E171E121E0F1E0A1E051E0025
:101C50001EFA1DF41DF31DF21DF11DF01DEF1DEE0A
:101C60001DED1DEC1DEB1DEA1DE41DDE1DD81DD173
:101C70001DCA1DC71DC31DC01DBB1DB61DB11DAD99
:101C80001DAA1DA71DA41DA11D9A1D931D8C1D8B92
:101C90001D871D821D7E1D7D1D7C1D761D701D6A8C
:101CA0001D641D631D5A1D541D4E1D481D411D3BC5
:101CB0001D351D2F1D291D231D1C1D141D0C1D044C
:101CC0001DFD1CF41CEC1CDE1CD41CCD1C52455309
:101CD000554C54005448524553484F4C44004645D7
:101CE0005645525F434F554E54455200434F554E53
:101CF0005445520053493442315F544300414952E4
:101D00005F544300555345525F544300504D5F426A
:101D1000494E4800504D5F42494E4C00504D5F4285
:101D2000494E0043425F46500043425F54500043D7
:101D3000425F464C0043425F46520043425F565367
:101D40000043425F52504D004D425F4952004D42A8
:101D50005F4852004D425F4449004D425F434F4946
:101D60004C5300004355525F44004355525F4300BB
:101D70004355525F42004355525F410000004C55AD
:101D80004D0048554D42005443420000534F494CCA
:101D90005F4500534F494C5F4300534F494C5F42EE
:101DA00000464400534400544400555600504152EC
:101DB00000504C563300504C563200504C563100B7
:101DC000575600414E45004C5700534F494C54461E
:101DD00000534F494C544300534F494C3300534F29
:101DE000494C3200534F494C3100000000000000C4
:101DF000000000004F52505F45004F52505F4100BD
:101E000050485F450050485F4100545552420057CA
:101E10005400434F4E4400444F004F52500050482E
:101E2000005241440050530056424F4F5400565008
:101E3000524F47005641504900005453540000008F
:101E40005357495F44005357495F43005357495F15
:101E500042005357495F41005357494E4100535781
:101E6000494B00535749434C4F34005357494E4F49
:101E700032005357494D47005357494C4900535777
:101E8000495048005357494147005357494E483439
:101E900000535749494F0053574943550053574939
:101EA000434C005357494252005357494E4F330059
:101EB000535749464200535749464C0053574943EC
:101EC0004100000000000050444F500056444F5065
:101ED0000048444F5000414C5400434F5552534525
:101EE0005F4F470053504545445F4F470000000097
:101EF0000000000000005553004C5558005052455A
:101F0000530048554D00544600544300504152542C
:101F100000504D313000504D325F3500504D310092
:101F2000524200554944000000535452004D494C60
:101F30004C49530041434300494E5F54454D5000C6
:101F400052414D00474D540054494D4500444154C1
:101F500045004E4944004E41004D41430052535309
:101F6000490047505300424154000045565F450028
:101F700045565F440045565F430045565F41005259
:101F80004F55540052494E0048414C4C004C4C00B7
:101F90004C50005049520057460000000000475086
:101FA0005F4600000047505F430047505F420047D4
:101FB000505F410000000000000000004E4F4953F8
:101FC0004500534F32005048330048434E004843C9
:101FD0004C004832530048320045544F00434C32C5
:101FE000004E4F00564F43005356004150320041BF
:101FF0005031004C5047004E4F32004E4833004F96
:102000003300434834004F3200434F3200434F0007
:102010000303030303030303030303030202010295
:102020000303000000000300030000030303020099
:10203000000202010202030202030303020002067D
:10204000020303030006000000000000000002007D
:102050000000000000000203010102030303030368
:10206000030303030300000003020202030303004F
:10207000020202020202020202020202020303033D
:102080000000000000000000000303000100000049
:102090000303030303030303030303030303030310
:1020A000030202000202000404040003030303030A
:1020B00003030303030302020203030300000101FD
:1020C0000101010101010101010101010101010100
:1020D00001010101010101010101010101030101EE
:1020E00001010101010101010101010101010101E0
:1020F00001010102010101010303010101030101C9
:1021000001010101010101010101010101010101BF
:1021100001010101030301010101010101010101AB
:10212000010101010101010101010101010101019F
:10213000010101010101010101010101010101018F
:10214000010101010101010101010101010101017F
:10215000010101010101010102010101010101016E
:102160000101010101010101010118100202020235
:102170000202020202020202020202020202000043
:10218000000002000200000202020201000202023C
:102190000202020202020202020002020202020221
:1021A0000002010303030000010102010403030311
:1021B00003030202020202020202020202020202FD
:1021C00002000000040202020202020002020202F5
:1021D00002020202020202020202020200000000E7
:1021E00000000000000202040200000002020202DD
:1021F00002020202020202020202020202020202BF
:1022000002020202020202020202020202020202AE
:1022100002020202020202020101F926F526F2265A
:10222000EE26EA26E626E226DE26DB26D726D4267A
:10223000D026CC26C826C326C026BD26B826B4265E
:10224000AF26AC26A926A526A1269E269A26962646
:1022500092268F268A268726842681267D26792621
:1022600074266E266926662662265F265C26592617
:10227000562652264F264B264726442641263E26E2
:102280003B26372633262E262A26272623261E26B9
:1022900019261526112609260526FE25FA25F625D6
:1022A000F025EC25E925E625E225DF25DA25D725E9
:1022B000D225CD25C925C425BF25BB25B525B125EA
:1022C000AB25A5259E25982592258E2585257B2540
:1022D000772572256D25682564255F255A255525A6
:1022E0004E2547254025392533252D25272523250E
:1022F0001C25162510250A250425FF24FA24F5247B
:10230000F024EB24E624DF24D824D124CC24C724D1
:10231000C324BE24B924B324AD24A624A024992424
:1023200093248C2485247E24772471246A246424B5
:102330005D2456244F24492442243C2436242F244F
:1023400027242024192413240B240124F823EF2309
:10235000E923E323DD23D723D123CB23C523BF23C5
:10236000B923B323AD23A823A3239E239823922329
:102370008C23812376234F50435F4E325F42494E78
:10238000004F50435F4E335F42494E004F52505F03
:1023900043004F52505F42004F52505F410050483F
:1023A0005F430050485F420050485F410053574927
:1023B0005048005357494147005357495042005332
:1023C0005749494F00535749435500535749434CC8
:1023D000005357494252005357494E4F00535749F3
:1023E000464200535749464C005357494341004F1A
:1023F00050435F50415254004F50435F504D313075
:10240000004F50435F504D325F35004F50435F5097
:102410004D31004F50435F50004F50435F544600D2
:102420004F50435F54430047505F5052455300475D
:10243000505F48554D0047505F54460047505F5429
:10244000430047505F434F320047505F4F330047D0
:10245000505F4348340047505F534F320047505F4E
:102460005048330047505F4F320047505F4E4F3265
:102470000047505F4E4F0047505F4E483300475073
:102480005F48434E0047505F48434C0047505F4809
:1024900032530047505F48320047505F45544F0069
:1024A00047505F434F0047505F434C320056424F06
:1024B0004F54005650524F47005641504900545512
:1024C0005242005453540057465F450057465F43FD
:1024D0000048414C4C5F460048414C4C5F45004829
:1024E000414C4C5F44004C4C5F46004C4C5F4500F7
:1024F0004C4C5F44004C505F46004C505F45004CD4
:10250000505F44004C554D5F46004C554D5F4500B3
:102510004C554D5F440055535F35560055535F335E
:1025200056330054434300534F494C3300534F49F3
:102530004C3200534F494C3100534F494C5F4600D9
:10254000534F494C5F4500534F494C5F4400534F34
:10255000494C5F4300504C563300504C56320050AB
:102560004C56310046534D0050444F500056444F96
:10257000500048444F5000414C5400434F55525373
:10258000455F4F470053504545445F4F47004C550A
:102590005800444D5F535000444D5F53540054580D
:1025A0005F5057520044494E4F330044494D473223
:1025B0000044494B004449435532004449490044D2
:1025C000494252004449434C00444946004449436F
:1025D000410044494E4100575400434F4E4400448B
:1025E0004F004F525000504800524200554944009D
:1025F0004D57494649004D425400535452004D49ED
:102600004C4C49530041434300494E5F54454D50A3
:102610000052414D00474D540054494D450044413E
:102620005445004E4944004E41004D414300525331
:1026300053490047505300424154004446004C4324
:102640000057460043550052414400504C56005735
:102650005600414E45004644005344005444005542
:102660005600504152004C5700534F494C00534FB5
:10267000494C540048554D42005446420054434290
:10268000005053004D460055530044555354004CE0
:10269000440043504700434447004D4350005354C7
:1026A00000504952004C554D004C4C004C500048D5
:1026B000414C4C005642520042454E440050570097
:1026C00050410048554D410054464100544341009B
:1026D000564F43004F33004E4F3200535600415087
:1026E0003200415031004E4833004C5047004348BF
:1026F00034004F3200434F3200434F002A2A2A2A27
:102700002A2A2A2A2A2A2A2A2A2A2A2A2A2A2A2A29
:102710002A2A2A2A2A2A2A2A2A2A2A2A2A2A2A2A19
:102720002A2A2A2A2A2A2A00596F75722057617389
:10273000706D6F74652076657273696F6E20697352
:10274000207631322E0054686973206578616D708F
:102750006C652069732076616C6964206F6E6C799A
:1027600020666F7220576173706D6F7465207631CB
:10277000352E000A2A2A2A2A2A2A2A2A2A2A2A2AF4
:102780002A2A2A20205741524E494E47202A2A2AD7
:102790002A2A2A2A2A2A2A2A2A2A2A2A2A2A2A2A99
:1027A000002A2A2A2A2A2A2A2A2A2A2A2A2A2A2AB3
:1027B0002A2A2A2A2A2A2A2A2A2A2A2A2A2A00507D
:1027C000415353574F52443A20004C4F47494E3AD9
:1027D000200041504E3A20002A2A2A2A2A2A2A2A50
:1027E0002A2A2A2A2A2A2A2A2A2A2A2A2A2A2A2A49
:1027F0002A2A2A2A2A00D928C328A72899288728DC
:102800006D2866284428392820280C286D756C749A
:1028100069706172742F666F726D2D6461746100EE
:102820006170706C69636174696F6E2F6F6374653A
:10283000742D73747265616D00746578742F706C9B
:1028400061696E006170706C69636174696F6E2F8D
:10285000782D7777772D666F726D2D75726C656E3A
:10286000636F646564006672616D653D002F676526
:1028700074706F73745F6672616D655F706172739F
:1028800065722E706870004154234854545052436E
:10289000563D25752C25750D00234854545052493A
:1028A0004E473A20302C0041542348545450534E44
:1028B000443D302C25752C222573222C25752C2582
:1028C000730D00415423485454505152593D302CFB
:1028D00025752C222573220D004154234854545051
:1028E0004346473D302C222573222C25750D004D83
:1028F0002B432B382B2D2B212B112B022BFC2AEEBB
:102900002AE22AD62ACC2AC22AB92AB02AA72A9E83
:102910002A952A8C2A812A7B2A702A6A2A622A58B6
:102920002A4E2A442A3C2A342A1C2A122A062AFD24
:1029300029F129E329B0299A298E2982297A297235
:102940002967295C29522949294154235348444E77
:102950000D0041542B575334363F0D002B43455245
:1029600045473A20302C0041542B43455245473FC0
:102970000D002B434D47523A20002B434D474C3A14
:10298000200041542B575334363D25750D004154DA
:102990002353413D25752C310D0041542B434D47A8
:1029A0004C3D2252454320554E52454144220D0094
:1029B0002532686875252A632532686875252A637B
:1029C0002532686875252A632532686875252A636B
:1029D0002532686875252A63253268687525686818
:1029E00064220041542350534E543F3A202C0D0A88
:1029F0000041542B4353510D0A3A202C002B4950CF
:102A00003A20220D0A00415423475052533D257568
:102A10000D0041542573222573220D0041542B4390
:102A20004744434F4E543D312C224950222C2225FD
:102A300073220D00475052533A20300047505253F2
:102A40003A203100415423475052533F0D00415426
:102A50002B43434C4B3F0D0041542B434F50533FAE
:102A60000D005352494E473A20002B434D54490024
:102A70004154234E49545A3D370D00415445300DC1
:102A80000041542B434D45453D310D0041542343F6
:102A90004349440D0041542343494D490D004154DD
:102AA000234347534E0D0041542343474D520D00DD
:102AB00041542343474D4D0D0041542343474D4955
:102AC0000D0041542348575245560D0041542350A0
:102AD000534E543F0D0041542B4353510D0A3A209D
:102AE0002C002354454D504D4541533A200041544C
:102AF0002354454D504D4F4E3D310D00234750520C
:102B0000530041542350415353573D222573220D06
:102B1000004154235553455249443D222573220D0B
:102B2000002B434744434F4E543D312C002B434729
:102B30005245473A20302C0041542B4347524547D9
:102B40003F0D002B435245473A20302C0041542B77
:102B5000435245473F0D005B5057525D204E6F6911
:102B6000736520696E20496E746572727570746940
:102B70006F6E206C696E65005B5057525D20646516
:102B80006570536C65657020525443206572726F96
:102B90007200496E76616C696420474D54207661FD
:102BA0006C756500496E636F727265637420696E3F
:102BB00070757420706172616D65746572730A005E
:102BC0005B5254435D200057726F6E672074696DCD
:102BD0006520666F726D61742E204D75737420626E
:102BE00065202264643A68683A6D6D3A7373220A0C
:102BF000005B5254435D2000842D6F2D592D492DCB
:102C00003C2D322D222D0D2DF62CE42CD82CD12C40
:102C1000BF2CAC2C9F2C952C852C622C5C2C332C3F
:102C2000222C5B253032753A253032753A25303208
:102C3000755D002530327525632530327525632595
:102C40003032752563253032752563253032752580
:102C50006325303275256325303275006572726FD9
:102C6000720025732C20253032752F253032752FB8
:102C7000253032752C20253032753A253032753AA0
:102C800025303275004F6E636520706572206D6966
:102C90006E757465005B6D6D5D202D2D3E20005BB3
:102CA00068683A6D6D5D202D2D3E20005B44617497
:102CB000652C2068683A6D6D5D202D2D3E20005BEF
:102CC0004461792C2068683A6D6D5D202D2D3E2081
:102CD000005B253032755D005B253032753A25305A
:102CE00032755D005B253032752C20253032753A07
:102CF000253032755D005B253032752C2025303251
:102D0000753A253032753A253032755D00496E636B
:102D10006F727265637420616C61726D206D6F6497
:102D200065004F6E636520706572207365636F6E1A
:102D300064005B73735D202D2D3E20005B6D6D3A4A
:102D400073735D202D2D3E20005B68683A6D6D3AEF
:102D500073735D202D2D3E20005B446174652C2033
:102D600068683A6D6D3A73735D202D2D3E20005BCF
:102D70004461792C2068683A6D6D3A73735D202D3B
:102D80002D3E2000416C61726D206D617463686539
:102D90007320005B53445D20496E76616C6964204A
:102DA00066696C656E616D65007C3C3E5E2B3D3FE7
:102DB0002F5B5D3B2C2A225C00000008090000000C
:102DC0000000000000000000000000000000000003
:102DD00000000000000000000000000000000000F3
:102DE00000000000000000000000000000000102E0
:102DF000081010204080040810204002020408102F
:102E000020408001028020400420010102040810BB
:102E10002001408040800102080408800410040260
:102E2000010810050505050303030301010104045E
:102E3000030606060606060606010405010501034B
:102E40000202020202020102020505040403040454
:102E5000010304070707070700202326292C2F3228
:102E6000002225282B2E3134002124272A2D30330F
:102E70006364696E6F70737578585B0000407A10F8
:102E8000F35A00A0724E18090010A5D4E80000E81B
:102E90007648170000E40B54020000CA9A3B000079
:102EA00000E1F505000080969800000040420F0008
:102EB0000000A08601000000102700000000E803C9
:102EC000000000006400000000000A000000000094
:102ED0000100000000002C76D888DC674F0823DF53
:102EE000C1DFAE59E1B1B796E5E3E453C63AE65126
:102EF000997696E8E6C28426EB898C9B62ED407C4D
:102F00006FFCEFBC9C9F40F2BAA56FA5F490055AE8
:102F10002AF75C936B6CF9676DC11BFCE0E40D470D
:102F2000FEF520E6B500D0ED902E03009435770530
:102F30000080841E080000204E0A000000C80C33E8
:102F40003333330F986E12831141EF8D2114893B77
:102F5000E65516CFFEE6DB18D1844B381BF77C1DF7
:102F6000901DA4BBE424203284725E228100C9F14A
:102F700024ECA1E53D27921D7B265C2DD42F9630B5
:102F80006C3CDC479757815D655FFF64FF7D1124D2
:102F90001FBECFEFD1E2DEBFCDBF16E0A0E0B2E0B2
:102FA000EAE8FDE101E00BBF02C007900D92AE36EA
:102FB000B107D9F727E1AEE6B6E001C01D92AA3607
:102FC000B207E1F717E1C7ECD7E104C02197FE0192
:102FD0000E941381CB3BD107C9F70E949E670C94D6
:102FE000C38E0C940000EF92FF920F931F93CF9328
:102FF000DF937C01162F03E020E040E060E772E001
:103000008BEB9EE00E94654F80E59FE00E944E5949
:103010008DEB9EE00E94F1529093B3068093B2062E
:103020006CE475E082E191E10E948E646091B206E9
:103030007091B30682E191E10E947C638091D10E90
:1030400090E09093B1068093B0064AE06AEA76E099
:103050000E9477858091B0069091B1060A973CF462
:103060008091AA068093AB0680E38093AA064AEA81
:1030700056E0B70180E59FE00E94655C082F8093D1
:10308000A9064BE656E0B70180E59FE00E94655C2B
:103090008093A906C82FD0E0C00FD11D8091D20E19
:1030A00090E09093B1068093B0064AE06AEA76E039
:1030B0000E9477858091B0069091B1060A973CF402
:1030C0008091AA068093AB0680E38093AA064AEA21
:1030D00056E0B70180E59FE00E94655C8093A906F9
:1030E000C80FD11D4BE656E0B70180E59FE00E9476
:1030F000655C8093A906C80FD11D8091D70E90E022
:103100009093B1068093B0064AE06AEA76E00E94A6
:1031100077858091B0069091B1060A973CF4809132
:10312000AA068093AB0680E38093AA064AEA56E09B
:10313000B70180E59FE00E94655C8093A906C80FF7
:10314000D11D4BE656E0B70180E59FE00E94655C2B
:103150008093A906C80FD11D8091D40E90E0909362
:10316000B1068093B0064AE06AEA76E00E9477856D
:103170008091B0069091B1060A973CF48091AA061E
:103180008093AB0680E38093AA064AEA56E0B70133
:1031900080E59FE00E94655C8093A906C80FD11D61
:1031A0004BE656E0B70180E59FE00E94655C8093A6
:1031B000A906C80FD11D8091D50E90E09093B1065D
:1031C0008093B0064AE06AEA76E00E9477858091B3
:1031D000B0069091B1060A973CF48091AA068093BC
:1031E000AB0680E38093AA064AEA56E0B70180E581
:1031F0009FE00E94655C8093A906C80FD11D4BE635
:1032000056E0B70180E59FE00E94655C8093A906C7
:10321000C80FD11D8091D60E90E09093B106809397
:10322000B0064AE06AEA76E00E9477858091B006AF
:103230009091B1060A973CF48091AA068093AB0660
:1032400080E38093AA064AEA56E0B70180E59FE052
:103250000E94655C8093A906C80FD11D45E556E024
:10326000B70180E59FE00E94655C8093A906C80FC6
:10327000D11D2091FF07309100084FEF56E0B701B4
:1032800080E59FE00E94895C8093A906C80FD11D4C
:1032900045E556E0B70180E59FE00E94655C8093BC
:1032A000A906C80FD11D4AE06AEA76E0812F90E0B6
:1032B0000E9477854AEA56E0B70180E59FE00E94C8
:1032C000CD5C8093A906C80FD11D80E59FE00E94C8
:1032D000B258CF30D10519F46CE772E010C06AE93A
:1032E00072E082E191E10E94F0626FE070E06C1B9D
:1032F0007D0B82E191E10E94306362E972E082E13C
:1033000091E1DF91CF911F910F91FF90EF900C947D
:103310007C630F931F9385E399E00E94213B809388
:10332000AD0681114EC066E375E082E191E10E9435
:10333000B66461E275E082E191E10E948E640091E1
:10334000FF071091000840910B0250910C022FEFE3
:1033500036E06DE072E085E399E00E94DB37809310
:10336000AD0681112BC06FE075E082E191E10E9412
:103370008E6460912A0C70912B0C82E191E10E9485
:10338000926361EC72E082E191E10E94F06240910F
:10339000470950914809609143097091440982E1BD
:1033A00091E10E94CD6480912A0C883C21F481E057
:1033B0008093A8061DC01092A8061AC06AEF74E098
:1033C00008C064EE74E082E191E10E94B66467EDAA
:1033D00074E082E191E10E948E644091AD0650E07C
:1033E00060E070E02AE030E082E191E10E94BD639C
:1033F0006FEB74E082E191E10E94B66485E399E0AD
:103400001F910F910C941E3CCF93DF93EC0185E349
:1034100099E00E94213B8093AD06811129C06CEA9E
:1034200074E082E191E10E94B6646CE385E399E087
:103430000E94A53480939D06882311F0C0E03EC011
:1034400085E399E00E94C3388DEB9EE00E94F15223
:10345000BC0182E191E10E947C638DEB9EE00E94C1
:103460007050BC0182E191E10E947C63C1E026C002
:1034700066E974E082E191E10E94B66469E874E073
:1034800082E191E10E948E644091AD0650E060E0DF
:1034900070E02AE030E082E191E10E94BD6320917A
:1034A000B0063091B1062F5F3F4F3093B1062093A5
:1034B000B006C217D3070CF0AACFC0CF85E399E0BE
:1034C0000E941E3C61E774E082E191E10E94B664D3
:1034D0008C2FDF91CF91089582E191E10E946A6281
:1034E0008DEB9EE00E9463542EE936E04FE956E0F2
:1034F0006AE172E085E399E00E949A3985E399E0F8
:103500000E94F8398DEB9EE00E94635480910A027C
:1035100090E00E94041A8093A0068DEB9EE00E942A
:10352000F152BC0182E191E10E947C636CE574E0A0
:1035300082E191E10E94B66480E59FE00E944E59CD
:103540008091A706882399F062E372E080E59FE00E
:103550000E949D5A8093A906813019F46FE474E0AB
:1035600002C06EE374E082E191E10E94B66462E31E
:1035700072E080E59FE00E94285D8093A90681307B
:1035800019F461E374E002C060E274E082E191E169
:103590000E94B6646DE973E082E191E10E94F062FD
:1035A00060912F027091300282E191E10E9492635A
:1035B00043EB53E062E372E080E59FE00E94CD5C64
:1035C0008093A906813019F461E174E002C066EFCE
:1035D00073E082E191E10E94B66465EE73E082E1FE
:1035E00091E10E948E646091A00670E082E191E119
:1035F0000E94926360E673E082E191E10E94B6640A
:103600006BED72E082E191E10E94B66466E572E0E2
:1036100082E191E10E94B66483E399E00E94ED2F7C
:1036200082E191E10C946A620F930E94E4406093FE
:10363000A1067093A2068093A3069093A4068CE93A
:1036400096E00E941E308CE299E00E94E42D00E09A
:1036500020E040E062E274E08BEB9EE00E94654F68
:1036600080E996E00E94FD2E90E090939B06809367
:103670009A0688E896E00E94062F90E090939906BB
:10368000809398068CE299E00E94602D60938406F6
:103690007093850680938606909387068CE299E066
:1036A0000E948B2D60938006709381068093820622
:1036B000909383068CE299E00E94B52D60937C067E
:1036C00070937D0680937E0690937F066CE472E093
:1036D00082E191E10E94B66468EE73E080E090E0E0
:1036E0000E94134162E472E082E191E10E94B664BB
:1036F00068EE73E080E090E00E94134168E372E0BE
:1037000082E191E10E94B66468EE73E080E090E0AF
:103710000E9413416EE272E082E191E10E94B66480
:1037200068EE73E080E090E00E94134164E272E092
:1037300082E191E10E94B66468EE73E080E090E07F
:103740000E9413416AE172E082E191E10E94B66455
:1037500084E796E00E940A2F6093700670937106CA
:1037600080937206909373068CE299E00E94762E05
:103770006CE072E082E191E10E948E6460919A06B1
:1037800070919B0682E191E10E9492636DEF71E07E
:1037900082E191E10E948E64609198067091990691
:1037A00082E191E10E9492636EE274E082E191E134
:1037B0000E94F062409184065091850660918606D1
:1037C0007091870622E082E191E10E94F96364EF43
:1037D00071E082E191E10E94B6646CE374E082E101
:1037E00091E10E94F06240918006509181066091C3
:1037F00082067091830621E082E191E10E94F963E3
:1038000061EF71E082E191E10E94B66467E474E0E7
:1038100082E191E10E94F06240917C0650917D0628
:1038200060917E0670917F0622E082E191E10E9424
:10383000F9636DEE71E082E191E10E94B6644EE1C0
:1038400052E061E088EE96E00E944F2D8BEB9EE007
:103850000E94AF4D482F50E064E388EE96E00E944E
:10386000432820917C0630917D0640917E06509140
:103870007F066DE488EE96E00E94A62A20918006DD
:103880003091810640918206509183066CE488EE67
:1038900096E00E94A62A20918406309185064091E8
:1038A0008606509187066AE488EE96E00E94A62A72
:1038B00040919A0650919B066CE288EE96E00E9439
:1038C000432840919806509199066AE288EE96E066
:1038D0000E94432820917006309171064091720633
:1038E0005091730668E288EE96E00E94A62A88EE60
:1038F00096E00E9485261092B1061092B006809143
:10390000310290E02091B0063091B1068217930702
:10391000F4F00E9489198091A806813029F48091E1
:10392000310290E0029605C08091B0069091B106F8
:1039300001969093B1068093B00600E020E040E04D
:1039400062E274E08BEB9EE00E94654FD8CF8091DD
:10395000A00681110DC062E574E082E191E10E9450
:103960007C6380910A0290E00E94041A8093A00672
:103970006091A80682E392E00E94F31780912F02E3
:10398000909130022091AE063091AF06821B930BCE
:1039900005978A30910514F48FE090E09093A60685
:1039A0008093A5066CE674E082E191E10E94F062EA
:1039B0006091A5067091A60682E191E10E94926352
:1039C0008091A5069091A6066CE370E00E94BE80EF
:1039D0009093B1068093B0064AE06AEA76E00E94CE
:1039E00077858091B0069091B1060A973CF480915A
:1039F000AA068093AB0680E38093AA068091AA066C
:103A000080932C028091AB0680932D028091A506B5
:103A10009091A6062CE330E0B9010E94BE80CB0154
:103A2000B9010E94BE809093B1068093B0064AE02F
:103A30006AEA76E00E9477858091B0069091B1069F
:103A40000A973CF48091AA068093AB0680E38093AA
:103A5000AA068091AA06809329028091AB068093E2
:103A60002A028091A5069091A60620E13EE0B901C8
:103A70000E94BE80CB01B9010E94BE809093B10626
:103A80008093B0064AE06AEA76E00E9477858091EA
:103A9000B0069091B1060A973CF48091AA068093F3
:103AA000AB0680E38093AA068091AA068093260243
:103AB0008091AB068093270266ED71E082E191E18F
:103AC0000E94B66464E275E082E191E10E94F062D6
:103AD00063E272E082E191E10E94F06264E275E0EB
:103AE00082E191E10E947C6382E191E10E947E6229
:103AF00003E020E040E063E272E08BEB9EE00E9496
:103B0000654F82E191E10E946A626DE471E082E1B9
:103B100091E10E94B6646EE371E082E191E10F9160
:103B20000C94B6648CE996E00E941D3065E680E94D
:103B300096E00E94F82E69E688E896E00E94012F40
:103B400064E084E796E00C94CE2F8F929F92AF9220
:103B5000BF92CF92DF92EF92FF920F931F93FC01DF
:103B60000081118120E030E06A017B0184E0F5945E
:103B7000E794D794C7948A95D1F7C01AD10AE20A7C
:103B8000F30A93E075956795579547959A95D1F700
:103B9000000F111F221F331FDB01CA01801B910B75
:103BA000A20BB30B9C01AD01A281B3810E943681AF
:103BB0004B015C01BBE0B594A79497948794BA95A8
:103BC000D1F7A7019601C701B6010E948E809B0123
:103BD000AC011CE055954795379527951A95D1F777
:103BE000A481B5810E943681AB01BC010EE07595C0
:103BF0006795579547950A95D1F79A01AB01280D1E
:103C0000391D4A1D5B1D21A332A343A354A3A5E084
:103C1000B0E00E942B81DC01CB0180589F4FAF4F59
:103C2000BF4F692F7A2F8B2F992787FD9A950E9476
:103C30001F7F20E030E048EC52E40E94757E1F9127
:103C40000F91FF90EF90DF90CF90BF90AF909F903B
:103C50008F9008952F923F924F925F926F927F9232
:103C60008F929F92AF92BF92CF92DF92EF92FF928C
:103C70000F931F93CF93DF93CDB7DEB7A4970FB603
:103C8000F894DEBF0FBECDBF9A8389834C8F5D8FC2
:103C90006E8F7F8FFC0181A192A1A3A1B4A16C01C1
:103CA0007D01FF0CCC08DC2C76019C01AD016C2D54
:103CB0007C2D8C2D9C2D345F414051096109710987
:103CC000810991092CA33BA34B835C836D837E8385
:103CD0008F83988759016A017B018C010E943E8184
:103CE0002C8B3D8B4E8B5F8B688F798F8A8F9B8F50
:103CF000E981FA81F089F8A3E981FA81F189F987EC
:103D0000E981FA81F685F9A3E981FA81F785FA87D5
:103D1000E981FA81F485FAA3E981FA81F585FB87C7
:103D2000E981FA81B184A0841B2D110F110BC12EE2
:103D3000D12EE12EF12E012F2CA13BA14B815C81D4
:103D40006D817E818F8198850E943E810CE00E946A
:103D5000998219012A013B014C01E981FA81B3845E
:103D6000A2841B2D110F110BC12ED12EE12EF12E8D
:103D7000012F2C893D894E895F89688D798D8A8DC7
:103D80009B8D0E943E8108E00E94B2825101620137
:103D9000730184010E94D08270588F4F9F4FE98138
:103DA000FA81268037805101C12CD12CE12CF12CD5
:103DB00000E010E00E943E8101E20E94B2822C8766
:103DC0003D874E875F87688B798B8A8B9B8BA0E0C2
:103DD0000E94E28209F451C1A8A01985110F110BAC
:103DE000B984C12ED12EE12EF12E012F2C893D89CF
:103DF0004E895F89688D798D8A8D9B8D0E943E8169
:103E000019012A013B014C01A9A01A85110F110BC0
:103E1000BA84C12ED12EE12EF12E012F2CA13BA16F
:103E20004B815C816D817E818F8198850E943E816E
:103E300001E10E94998259016A017B018C01910183
:103E4000A201B301C4010E94D08219012A013B01E1
:103E50004C0180E090E0A0E1B0E02C8D3D8D4E8DD6
:103E60005F8D821B930BA40BB50B6C017D01FF0CC6
:103E7000CC08DC2C76019C01AD016C2D7C2D8C2DA9
:103E80009C2D0FE10E949982F901B42FA52F6E831A
:103E90007F838B839C832AA19B85990F990B3B85FC
:103EA000492F592F692F792F892F03E20E94998278
:103EB00059016A017B018C019101A201B301C40186
:103EC0000E94D08259016A017B018C019F014B2F16
:103ED0005A2F6E817F818B819C810E94D9824901FA
:103EE000542E652EB62FA72FF82FE92F03E00E943E
:103EF00099825401C52CD62CEB2EFA2E0F2F1E2F93
:103F00000E94D98259016A017B01782E192F03E0A2
:103F10000E949982072D0E94D98203E00E94998213
:103F20005401C52CD62CEB2EFA2E0F2F1E2F0E94DB
:103F3000D98202E00E9499820F2F0E94D98201E06B
:103F40000E9499820F2F0E94D982AC84BD84CE84B6
:103F5000DF84E888F9880A891B890E94C4812A873E
:103F600039874B835C836D837E838F8398870DE0D5
:103F70000E94B282922E832E742E652E562E472ECC
:103F8000382E292EE981FA8137892689932F990FB6
:103F9000990BA92CB82CC72CD62CE52CF42C032D6E
:103FA000122D492F592F692F792F892F0E943E8179
:103FB0000E943E8109E10E94B28259016A017B019F
:103FC0008C012A8539854B815C816D817E818F8151
:103FD00098850E94D08219012A013B014C01E98198
:103FE000FA8135892489932F990F990BAA84B98472
:103FF000CB80DC80ED80FE800F811885492F592F02
:10400000692F792F892F0E943E8103E10E94B2829D
:1040100059016A017B018C019101A201B301C40124
:104020000E94D08208E00E94B282522E632E742E2B
:10403000852E962E472EDC01E981FA81338922896B
:10404000932F990F990B492F592F692F792F892F6A
:1040500004E00E94998259016A017B018C01252D9F
:10406000362D472D582D692D742DCD010E94D082FB
:10407000B901CA010E941D7F03C060E070E0CB015E
:10408000A4960FB6F894DEBF0FBECDBFDF91CF91DF
:104090001F910F91FF90EF90DF90CF90BF90AF9066
:1040A0009F908F907F906F905F904F903F902F9058
:1040B00008954F925F926F927F928F929F92AF92EC
:1040C000BF92CF92DF92EF92FF92FC0181A092A06B
:1040D000A3A0B4A02CE2921A21E0A20AB1086A01BE
:1040E0007B013EE0CC0CDD1CEE1CFF1C3A95D1F7A9
:1040F000848D958D092E000CAA0BBB0B44E1880F13
:10410000991FAA1FBB1F4A95D1F7C81AD90AEA0AF4
:10411000FB0AA68DB78DA50194010E943681C61AAF
:10412000D70AE80AF90A30E4D30EE11CF11C5FE07B
:10413000F594E794D794C7945A95D1F7A0A10A2E85
:10414000000CBB0BA50194010E9436812B013C01A0
:104150006AE075946794579447946A95D1F7A38D54
:10416000B0E00E942B81DC01CB017BE0B595A795E7
:10417000979587957A95D1F7BC01CD0170588F4FEF
:104180009F4FA30192010E948E80DC01CB012AE0A7
:10419000B595A795979587952A95D1F79C01AD017F
:1041A000405E5F4FA18DB28D0E943681DC01CB0154
:1041B000905EAF4FBF4FBC01CD013EE09595879516
:1041C000779567953A95D1F7A70196010E948E8061
:1041D0006B017C014FE095958795779567954A959A
:1041E000D1F79B01AC010E948E809B01AC0167E07E
:1041F00055954795379527956A95D1F7A08DB0E0ED
:104200000E942B81DC01CB0174E0B595A7959795B1
:1042100087957A95D1F7A7019601281B390B4A0B90
:104220005B0BDA01C90157FD0BC081309105A10577
:1042300039E1B30744F080E090E0A0E0B9E103C0C9
:1042400080E090E0DC01BC01CD012CE095958795E4
:10425000779567952A95D1F70E941F7FFF90EF9081
:10426000DF90CF90BF90AF909F908F907F906F9096
:104270005F904F9008950F931F93CF93DF931F92FA
:10428000CDB7DEB701E010E09E012F5F3F4F40ED5C
:1042900067E789EB9EE00E949C4881E09981903617
:1042A00009F080E00F90DF91CF911F910F91089559
:1042B000EF92FF920F931F93CF93DF9300D000D024
:1042C000CDB7DEB77C0102E010E09E012F5F3F4FCB
:1042D00048E867E789EB9EE00E949C488A8190E06D
:1042E000982F88272981820F911DF7019183808360
:1042F0009E012F5F3F4F4AE867E789EB9EE00E94EF
:104300009C488A8190E0982F88272981820F911DEF
:10431000F701938382839E012F5F3F4F4CE867E74D
:1043200089EB9EE00E949C488A8190E0982F882724
:104330002981820F911DF701958384839E012F5F50
:104340003F4F4EE867E789EB9EE00E949C488A81D8
:1043500090E0982F88272981820F911DF70197837C
:1043600086839E012F5F3F4F40E967E789EB9EE020
:104370000E949C488A8190E0982F88272981820F8B
:10438000911DF701918780879E012F5F3F4F42E982
:1043900067E789EB9EE00E949C488A8190E0982F15
:1043A00088272981820F911DF701938782879E01BB
:1043B0002F5F3F4F44E967E789EB9EE00E949C48EE
:1043C0008A8190E0982F88272981820F911DF7011B
:1043D000958784879E012F5F3F4F46E967E789EB0A
:1043E0009EE00E949C488A8190E0982F882729812E
:1043F000820F911DF701978786879E012F5F3F4FA0
:1044000048E967E789EB9EE00E949C488A8190E03A
:10441000982F88272981820F911DF701918B808B1E
:104420009E012F5F3F4F4AE967E789EB9EE00E94BC
:104430009C488A8190E0982F88272981820F911DBE
:10444000F701938B828B9E012F5F3F4F4CE967E70B
:1044500089EB9EE00E949C488A8190E0982F8827F3
:104460002981820F911DF701958B848B9E012F5F0F
:104470003F4F4EE967E789EB9EE00E949C488A81A6
:1044800090E0982F88272981820F911DF701978B43
:10449000868B9701285E3F4F01E010E041EA67E715
:1044A00089EB9EE00E949C4802E010E09E012F5F95
:1044B0003F4F41EE67E789EB9EE00E949C488A816E
:1044C00090E0982F88272981820F911DF701928F04
:1044D000818F9701255E3F4F01E010E043EE67E7D3
:1044E00089EB9EE00E949C4803E010E09E012F5F54
:1044F0003F4F44EE67E789EB9EE00E949C488A812B
:104500009981282F2F7030E0F0E19F9F200D311D01
:104510001124F701358F248F2B8190E054E095957D
:1045200087955A95E1F7F0E12F9F800D911D112499
:10453000F701978F868F01E010E09E012F5F3F4FBC
:1045400047EE67E789EB9EE00E949C488981F7016E
:1045500080A30F900F900F900F90DF91CF911F913C
:104560000F91FF90EF9008950F931F93CF938C01BD
:1045700080914D1390914E1381FD06C040E060E0A4
:104580008BEB9EE00E94434C89EB9EE00E94EB4740
:1045900064E670E080E090E00E941341C8010E9450
:1045A0003B21C82F813021F4C8010E94582101C04D
:1045B000C0E08C2FCF911F910F9108954F925F9281
:1045C0006F927F92AF92BF92CF92DF92EF92FF9263
:1045D0000F931F93CF93DF9300D01F92CDB7DEB719
:1045E0006C01B62E0E943B21813009F0C6C043E029
:1045F000E42EF12C00E020E042EF67E789EB9EE03B
:104600000E94CB4802E020E044EF67E789EB9EE0A0
:104610000E94CB4805E02B2D44EF67E789EB9EE035
:104620000E94CB4802E020E045EF67E789EB9EE07F
:104630000E94CB4852E0E52EF12C00E021E044EF4F
:1046400067E789EB9EE00E94CB48EB2CF12C81E0E0
:10465000E81AF10882E090E05C010E2C02C0AA0C7E
:10466000BB1C0A94E2F7B5016E5F7F4F072E000C6A
:10467000880B990B0E94134103E09E012F5F3F4F6F
:1046800043EF67E789EB9EE00E94144989818130FE
:1046900071F103E010E09E012F5F3F4F4AEF67E7A3
:1046A00089EB9EE00E949C48498150E060E070E008
:1046B000BA01552744278A8190E0A0E0B0E0BA2FE4
:1046C000A92F982F8827480F591F6A1F7B1F8B819E
:1046D000480F511D611D711D34E075956795579503
:1046E00047953A95D1F7C6010E94A51D4AC061E0E1
:1046F00070E002C0660F771FEA94E2F7072E000C05
:10470000880B990B0E941F7F23E333E343E150E4BE
:104710000E94D47F20E030E040EA5FE30E94047E04
:104720002B013C01C5010196BC01990F880B990B27
:104730000E941F7F9B01AC01C301B2010E94037E56
:104740000E94E77E6F5F7F4F072E000C880B990B4E
:104750000E94134103E09E012F5F3F4F43EF67E745
:1047600089EB9EE00E9414498981813009F091CF44
:1047700060E070E48AE794EC04C060E070E08AE7EF
:1047800094EC0F900F900F90DF91CF911F910F91AC
:10479000FF90EF90DF90CF90BF90AF907F906F90A1
:1047A0005F904F9008954F925F926F927F928F9299
:1047B0009F92AF92BF92CF92DF92EF92FF920F93B0
:1047C0001F93CF93DF93CDB7DEB727970FB6F8943B
:1047D000DEBF0FBECDBF6C01B62E0E943B218130E3
:1047E00009F022C1B3E0EB2EF12C00E020E042EF13
:1047F00067E789EB9EE00E94CB4802E02B2D44EF57
:1048000067E789EB9EE00E94CB4805E02B2D44EF43
:1048100067E789EB9EE00E94CB4802E020E045EF8D
:1048200067E789EB9EE00E94CB4812E0E12EF12C75
:1048300000E021E044EF67E789EB9EE00E94CB486F
:10484000EB2CF12C81E0E81AF10882E090E05C01A9
:104850000E2C02C0AA0CBB1C0A94E2F7B5016F5FD4
:104860007F4F072E000C880B990B0E941F7F2B0196
:104870003C01B501BB0C880B990B0E941F7F20E007
:1048800030E040E05FE30E94047E9B01AC01C30185
:10489000B2010E94047E4B015C010E94E77E6F5FC3
:1048A0007F4F072E000C880B990B0E94134103E0E9
:1048B0009E012F5F3F4F43EF67E789EB9EE00E9429
:1048C00014498981813009F45FC003E010E09E0142
:1048D0002F5F3F4F4AEF67E789EB9EE00E949C48BD
:1048E000498150E060E070E0BA01552744278A8191
:1048F00090E0A0E0B0E0BA2FA92F982F8827480FAA
:10490000591F6A1F7B1F8B81480F511D611D711D2F
:1049100034E075956795579547953A95D1F7C60157
:104920000E94A51D9E012F5F3F4F47EF67E789EB70
:104930009EE00E949C48498150E060E070E0BA012E
:10494000552744278A8190E0A0E0B0E0BA2FA92F34
:10495000982F8827480F591F6A1F7B1F8B81480F8C
:10496000511D611D711DA4E075956795579547957B
:10497000AA95D1F7C6010E942A1E20E030E040E847
:104980005BE30E94D47F54C081E090E002C0880FB6
:10499000991FEA94E2F7BC01990F880B990B0E94CA
:1049A0001F7F23E333E343E150E40E94D47F2B01D4
:1049B0003C0120E030E040EA5FE30E94047E6C832B
:1049C0007D838E839F8323E333E343E15FE3C3016E
:1049D000B2010E94047E9B01AC016C817D818E81BD
:1049E0009F810E94047EA50194010E94037E0E9483
:1049F000E77E6F5F7F4F072E000C880B990B0E949C
:104A0000134103E09E012F5F3F4F43EF67E789EBC0
:104A10009EE00E9414498981813009F056CF60E000
:104A200070E48AE794EC04C060E070E08AE794ECFC
:104A300027960FB6F894DEBF0FBECDBFDF91CF91A2
:104A40001F910F91FF90EF90DF90CF90BF90AF90AC
:104A50009F908F907F906F905F904F9008954F92AE
:104A60005F926F927F928F929F92AF92BF92CF92FE
:104A7000DF92EF92FF920F931F93CF93DF93CDB707
:104A8000DEB727970FB6F894DEBF0FBECDBF6C011F
:104A9000B62E0E943B21813009F012C1F3E0EF2EC7
:104AA000F12C00E02B2D42EF67E789EB9EE00E949E
:104AB000CB4802E020E044EF67E789EB9EE00E94EC
:104AC000CB4805E02B2D44EF67E789EB9EE00E9481
:104AD000CB4802E020E045EF67E789EB9EE00E94CB
:104AE000CB48A2E0EA2EF12C00E021E044EF67E79A
:104AF00089EB9EE00E94CB48EB2CF12C81E0E81A78
:104B0000F10882E090E05C010E2C02C0AA0CBB1CF4
:104B10000A94E2F7B5016F5F7F4F072E000C880BF8
:104B2000990B0E941F7F2B013C01B501BB0C880B28
:104B3000990B0E941F7F20E030E040E05FE30E947D
:104B4000047E9B01AC01C301B2010E94047E4B01B3
:104B50005C010E94E77E6F5F7F4F072E000C880B81
:104B6000990B0E94134103E09E012F5F3F4F43EFDB
:104B700067E789EB9EE00E9414498981813009F43E
:104B80004FC003E010E09E012F5F3F4F4AEF67E701
:104B900089EB9EE00E949C48498150E060E070E013
:104BA000BA01552744278A8190E0A0E0B0E0BA2FEF
:104BB000A92F982F8827480F591F6A1F7B1F8B81A9
:104BC000480F511D611D711D34E07595679557950E
:104BD00047953A95D1F7C6010E94A51D02E010E065
:104BE0009E012F5F3F4F4DEF67E789EB9EE00E94EC
:104BF0009C48498150E060E070E0762F652F542F8B
:104C000044278A81480F511D611D711DC6010E94F4
:104C1000592020E030E040E85AE30E94D47F54C09D
:104C200081E090E002C0880F991FEA94E2F7BC018E
:104C3000990F880B990B0E941F7F23E333E343E115
:104C400050E40E94D47F2B013C0120E030E040EA98
:104C50005FE30E94047E6C837D838E839F8323E3C6
:104C600033E343E15FE3C301B2010E94047E9B0191
:104C7000AC016C817D818E819F810E94047EA501A3
:104C800094010E94037E0E94E77E6F5F7F4F072E94
:104C9000000C880B990B0E94134103E09E012F5FCB
:104CA0003F4F43EF67E789EB9EE00E9414498981FB
:104CB000813009F066CF60E070E48AE794EC04C0CC
:104CC00060E070E08AE794EC27960FB6F894DEBFB8
:104CD0000FBECDBFDF91CF911F910F91FF90EF904D
:104CE000DF90CF90BF90AF909F908F907F906F900C
:104CF0005F904F900895E9EDF6E0148282E090E035
:104D000091838083138212820895CF92DF92EF9273
:104D1000FF920F931F93CF93DF93EC0182E191E118
:104D20000E949D620FE110E060E08DE30E94A644C6
:104D300001501109C9F760E08DE00E94A64460E0CF
:104D40008AE00E94A6448981813021F460E089E9EB
:104D500094E00CC0811104C060E087EA94E006C0D2
:104D6000823009F095C060E086EB94E00E94B34485
:104D700060E088EC94E00E94B34460E082ED94E04F
:104D80000E94B3447E0189EEE81A8EEFF80AF7011B
:104D90006081718180E090E000E02AE030E040E056
:104DA00050E00E94C34460E08DE00E94A64460E0B1
:104DB0008AE00E94A64460E08BED94E00E94B34438
:104DC0006A8D70E080E090E02AE030E040E050E062
:104DD0000E94C34460E08DE00E94A64460E08AE047
:104DE0000E94A64460E089EE94E00E94B344679676
:104DF0006E0100E010E0F7018081918160E008170A
:104E0000190740F4F60181916F010E9447450F5F39
:104E10001F4FF1CF8DE00E94A64460E08AE00E941F
:104E2000A64460E087EF94E00E94B34400E010E005
:104E3000F7018081918160E00817190730F48991AA
:104E40000E94A6440F5F1F4FF3CF8DE00E94A6443F
:104E500060E08AE00E94A644CFE1D0E060E08DE30C
:104E60000E94A6442197D1F760E08DE00E94A644FD
:104E700060E08AE00E94A64482E191E1DF91CF9157
:104E80001F910F91FF90EF90DF90CF900C94C26232
:104E9000DF91CF911F910F91FF90EF90DF90CF9016
:104EA0000895FF920F931F93CF93DF93062FF42E55
:104EB000122F20911711A62FB0E0273480F0FC01AB
:104EC0002689FD01273019F4E45FFE4E0BC028301F
:104ED00019F4EE5FF74F06C0EB58F54E03C0FD0125
:104EE000E459FE4DC591D491C13069F5F1E0FF154B
:104EF00008F059C06FE176E082E191E10E948E6492
:104F000069EF75E082E191E10E948E64402F50E0EC
:104F100060E070E02AE030E082E191E10E943663D7
:104F200066EF75E082E191E10E948E642AE030E054
:104F300041E050E060E070E082E191E10E94366380
:104F400061EF75E02AC0CF1571F168EE75E082E17E
:104F500091E10E948E6462EC75E082E191E10E9431
:104F60008E64402F50E060E070E02AE030E082E1A3
:104F700091E10E94366366EB75E082E191E10E9467
:104F80008E644C2F50E060E070E02AE030E082E177
:104F900091E10E94366367EA75E082E191E10E9447
:104FA0008E644F2D49C020911711273480F0FC01E9
:104FB0008689FD01873019F4E45FFF4E0BC088300D
:104FC00019F4EB5EF84F06C0E355F64E03C0FD0141
:104FD000E254FF4D85919491C82F8117C1F16EE97C
:104FE00075E082E191E10E948E646EE675E082E1F7
:104FF00091E10E948E64402F50E060E070E02AE072
:1050000030E082E191E10E94366362E675E082E180
:1050100091E10E948E644C2F50E060E070E02AE045
:1050200030E082E191E10E94366363E575E082E160
:1050300091E10E948E64412F50E060E070E02AE030
:1050400030E082E191E10E94BD638FEF01C081E019
:10505000DF91CF911F910F91FF900895FC01E95EC0
:10506000FE4F20813181620F731FDC0112968D91FA
:105070009C9113978617970720F07183608381E0D6
:10508000089580E008956F927F928F929F92AF92E1
:10509000BF92CF92DF92EF92FF920F931F93CF9325
:1050A000DF93CDB7DEB7A8970FB6F894DEBF0FBE7B
:1050B000CDBF8C01F62E5A016C0127EEC21A2EEFDD
:1050C000D20AD6018C918E3109F418C1F801818180
:1050D000813009F087C080911711E62FF0E09E0122
:1050E0002F5F3F4F7901873490F0D80156968C910D
:1050F000EE0FFF1F873019F4E45FFD4E0CC08830BF
:1051000019F4E151F74F07C0E35CF44E04C0EE0F11
:10511000FF1FE65EFD4D65917491C7010E94C78433
:105120004E01B5E18B0E911C4AE0B401C5010E940D
:105130007785F70101900020E9F73197BF016E19DB
:105140007F09F40101900020E9F73197E819F90986
:105150006E0F7F1F6E5F7F4FC8010E942E2888232D
:1051600009F464C0F801E95EFE4FA080B180F70148
:1051700001900020E9F73197AF014E195F09F40162
:1051800001900020E9F73197E819F90935016E1A05
:105190007F0AC501841B950B8E1B9F0B4596B7019B
:1051A000800F911F0E94DF84F801E60DF71D8AE34E
:1051B000858BF40101900020E9F73197AF01481980
:1051C0005909C3014696B401800F911F0E94DF84E4
:1051D000F801EA0DFB1D83E2868BF60180818F5F6B
:1051E000808384C021E04F3F510509F00CF540E079
:1051F0006F2DC8010E9451278F3FC1F08091171178
:10520000EF2DF0E08734F0F0D80156968C9187307E
:1052100089F4E45FFE4E859194918130C1F563E09D
:1052200070E0C8010E942E2881110FC08FEF67C067
:1052300041E0DECF883019F4EE5FF74FECCFEB584A
:10524000F54EE9CFE459FE4DE6CFF801E95EFE4F99
:1052500020813181F801E20FF31FF48AA58AB68A12
:10526000178AF60180818E31D0F590E0AC01440FB1
:10527000551F840F951F800F911FFC01E651FE4FB3
:105280001082319623502083319683E027C062E05C
:1052900070E0C8010E942E28882341F2F801E95EDF
:1052A000FE4F20813181F801E20FF31FF58AA68AB3
:1052B000178AD6018C918E3190F490E0AC01440FA6
:1052C000551F840F951F800F911FFC01E651FE4F63
:1052D0001082319622502083319682E08083F6013D
:1052E00080818F5F80838091FF078550D8015B9616
:1052F0008C93F801E95EFE4F808101C080E0A896A2
:105300000FB6F894DEBF0FBECDBFDF91CF911F91D6
:105310000F91FF90EF90DF90CF90BF90AF909F9054
:105320008F907F906F9008955F926F927F928F928F
:105330009F92AF92BF92CF92DF92EF92FF920F9324
:105340001F93CF93DF93CDB7DEB7A8970FB6F8942E
:10535000DEBF0FBECDBF7C015C0187EEA81A8EEFC9
:10536000B80AD5018C918E3109F4D9C0902F852EC1
:10537000742E632E522E962EF7018181813009F012
:105380008CC06E01F5E1CF0ED11C8601292F492F6B
:10539000652D732F872D952F0E94EE828091171116
:1053A000E92DF0E004511109873490F0D7015696A9
:1053B0008C91EE0FFF1F873019F4E45FFD4E0CC097
:1053C000883019F4E151F74F07C0E35CF44E04C094
:1053D000EE0FFF1FE65EFD4D65917491C8010E94BE
:1053E000C784F80101900020E9F73197BF01601BE5
:1053F000710BF60101900020E9F73197EC19FD09D6
:105400006E0F7F1F6E5F7F4FC7010E942E2888237B
:1054100009F44AC0F701E95EFE4F80809180F801EF
:1054200001900020E9F73197AF01401B510BF601C5
:1054300001900020E9F73197EC19FD0934016E1A4B
:105440007F0AC401841B950B8E1B9F0B4596B801E8
:105450008E0D9F1D0E94DF84F701E60DF71D8AE384
:10546000858BF60101900020E9F73197AF014C19C7
:105470005D09C3014696B6018E0D9F1D0E94DF8413
:10548000F701E80DF91D83E2868BF50180818F5FBE
:105490008083D7015B968C933DC021E042E0C70139
:1054A0000E9451278F3F11F48FEF3AC065E070E002
:1054B000C7010E942E288823B9F3F701E95EFE4F49
:1054C00040815181F701E40FF51F928A538A648A63
:1054D000758A868A178AF50120812E3198F4822FE9
:1054E00090E0BC01660F771F860F971F8E0D9F1DE2
:1054F000FC01E651FE4F10823196455040833196B3
:1055000085E080832F5FD5012C938091FF07855024
:10551000F701838FF701E95EFE4F808101C080E0D3
:10552000A8960FB6F894DEBF0FBECDBFDF91CF9126
:105530001F910F91FF90EF90DF90CF90BF90AF90B1
:105540009F908F907F906F905F9008950F931F931F
:10555000FC01E75EFE4F70817E3101F17091171101
:10556000E62FF0E0773480F0DC0156967C917730BE
:1055700019F4E45FF04F0AC0783019F4E85DF94F90
:1055800005C0EB51F74E02C0E05FFF4D059114914D
:10559000002E000C110B0E94942901C080E01F9185
:1055A0000F910895AF92BF92CF92DF92EF92FF9248
:1055B0000F931F93CF93DF931F92CDB7DEB76C018C
:1055C000F62E03E910E060E0C80179830E94B58EF1
:1055D0000F5F1F4F7981033A1105A9F7D601149681
:1055E00081E1FD0111928A95E9F70F2D172F5D01D9
:1055F00083E9E82EF12C6801F8016081633241F003
:10560000603231F0C7010E94B58EF801808105C07B
:105610006FE5C7010E94B58E8FE5F50180830F5FAE
:105620001F4FF6018081882351F0FFEFEF1AFF0A28
:105630008FEFA81AB80AE3EAEE16F104E1F60F902C
:10564000DF91CF911F910F91FF90EF90DF90CF905E
:10565000BF90AF900895CF92DF92EF92FF920F9399
:105660001F93CF93DF937B01EC01249681E1FE0130
:1056700011928A95E9F76B0100E010E0B8016D56D0
:105680007F4F86E191E10E94FE658993F601819347
:105690006F010F5F1F4F0031110581F7F701108A6D
:1056A000DF91CF911F910F91FF90EF90DF90CF90FE
:1056B0000895CF93DF93EC0160E083EA90E00E94CD
:1056C000B58E8FEF90E09B838A83FE01E158FE4FF9
:1056D0008CE08083BE016C5F7F4F88EE96E00E9475
:1056E0002B2B1D8ADF91CF91089563EA70E086E14C
:1056F00091E10C94FE65AF92BF92CF92DF92EF9250
:10570000FF920F931F93CF93DF93CDB7DEB76597CB
:105710000FB6F894DEBF0FBECDBF8C01DC01119631
:105720006C93119786E056968C93F801779680E0FB
:1057300091E0DF019C011D9221503040E1F7ED52D4
:10574000FE4F8AE5DF011D928A95E9F7E15DF109D7
:1057500010828CE3F801878B8DE3808F8EE3818F3D
:10576000613009F0FFC080911711873410F480E890
:1057700001C086E8D8015A968C935A975B961C9282
:105780005B9783E25C968C937801B9EEEB1ABEEFDF
:10579000FB0A86E090E0F7019183808380911711E6
:1057A0009E012F5F3F4F6901873460F170911F1197
:1057B00060911E1150911D1140911C1130911B11CF
:1057C00020911A1190911911809118111F927F93B5
:1057D0001F926F931F925F931F924F931F923F935D
:1057E0001F922F931F929F931F928F9385E095E0B6
:1057F0009F938F931F9281E18F93DF92CF920E94AC
:10580000A48517C030911C1120911D1190911E117B
:1058100080911F113F932F939F938F9386E295E082
:105820009F938F931F9281E18F93DF92CF920E947B
:10583000A4850FB6F894DEBF0FBECDBFD601F6012A
:1058400001900020E9F73197EC19FD09CD018C1981
:105850009D098E179F0778F42D91222361F0F7019F
:1058600080819181F801E80FF91F278B0196F701DC
:1058700091838083E4CFD7018D919C911197F8019A
:10588000E80FF91F23E2278B01968D939C93F80173
:10589000349698012C5E3F4F4FE58191811144C0B1
:1058A000F70180819181F801E80FF91F23E2A22E10
:1058B000A78A0196D7018D939C93C8010E94752BEE
:1058C000B82E6E01B2E1CB0ED11C4AE0B60190E0D9
:1058D0000E947785F60101900020E9F73197AF012A
:1058E0004C195D09F701808191814796B601800FBF
:1058F000911F0E94DF84F60101900020E9F73197A3
:105900009F012C193D09D7014D915C911197240FEE
:10591000351FF801E20FF31FA78A2F5F3F4F2D932A
:105920003C9361E06B0D87C0D701833241F48D91C8
:105930009C91DC01A00FB11F57964C9307C06D914D
:105940007C91DB01A00FB11F57968C93D7018D91ED
:105950009C91119701968D939C93E217F30709F0A0
:105960009CCF9ECF61118AC080911711873410F4AB
:1059700080E001C086E0F801828F30911C112091F7
:105980001D1190911E1180911F1140911711B801A6
:10599000695E7E4F7B014734D8F080911811848F67
:1059A00080911911858F80911A11868F80911B111A
:1059B000878F80911C1180A380911D1181A38091FC
:1059C0001E1182A380911F1183A38DE090E007C078
:1059D000F801348F258F968F878F89E090E0D7016B
:1059E0008D939C93F801349698012C5E3F4F4FE5C0
:1059F0008191811125C0F70180819181F801E80F23
:105A0000F91F23E2278B0196D7018D939C93C80140
:105A10000E94752BF70120813181F801E20FF31FFD
:105A2000878B2F5F3F4FD7012D933C932550F80173
:105A3000238F61E0680F83EA90E00E94B58E1EC05C
:105A4000D701833241F48D919C91DC01A00FB11FED
:105A500057964C9307C06D917C91DB01A00FB11F4D
:105A600057968C93D7018D919C91119701968D93A8
:105A70009C93E217F30709F0BBCFBDCF65960FB635
:105A8000F894DEBF0FBECDBFDF91CF911F910F9174
:105A9000FF90EF90DF90CF90BF90AF900895CF939D
:105AA000C62FBA0188EE96E00E94D22A6C2F88EEAB
:105AB00096E0CF910C947B2B88EE96E00C94592BBA
:105AC000CF92DF92EF92FF9261E083E10E948C42DD
:105AD00084EB96E00E94B42264E670E080E090E0FF
