:100000000C9403230C946B620C949C620C94CD6250
:100010000C9401630C9435630C9466630C949763A1
:100020000C94C8630C942D230C942D230C942D2335
:100030000C9424650C942D230C942D230C94806532
:100040000C942D230C942D230C942D230C942D23F0
:100050000C942D230C942D230C942D230C945B6570
:100060000C942D230C9495680C942D230C942D2323
:100070000C942D230C942D230C942D230C942D23C0
:100080000C942D230C942D230C942D230C942D23B0
:100090000C94D6680C942D230C942D230C9440A41E
:1000A0000C942D230C942D230C942D230C942D2390
:1000B0000C942D230C942D230C942D230C942D2380
:1000C0000C942D230C942D230C942D23A428A728C5
:1000D000AA28AD28B028B328B628B928BC28BF283C
:1000E000C228C528C828CB28CE28D128D428D7286C
:1000F000DA28DD28E028E328E628E9285D41604188
:100100006341664169416C416F4115541C541E5452
:100110000E5410541754225422542054CC5CCC5CFE
:10012000CC5CCC5CC95CC95CD05CD05CD05CD05C85
:10013000D05CD05CD05CD05CC95CC95CD05CD05C6D
:10014000D05CD05CD05CCE5CCC5C546256625862B1
:100150005A625C6261625E626062B574C474E37428
:10016000F274017510751F759475A275B075BE7522
:10017000C175CF75DD75EB75F97507761576237644
:1001800031763F76D979F2790A7A1B7A257A3F7AE5
:10019000A77AA284A584A884AF84B884C184CA84C1
:1001A00089A697A69EA6A0A6A2A6A4A6A6A6362E17
:1001B0002057616B6520757021210A0A0058585834
:1001C00058585858585858585858585858585858AF
:1001D000585858585858585858585858585858589F
:1001E000585858585858585858585858585858588F
:1001F000585858585858585858585858585858587F
:10020000585858585858585858585858585858586E
:10021000585858585858585858585858585858585E
:10022000585858585858585858585858585858584E
:10023000585858585858585858585858585858583E
:1002400058585858580058005800352E20456E749C
:100250006572206465657020736C6565702E2E2E46
:10026000006379636C652074696D653D20005454AA
:10027000545454545454545454545454545454543E
:10028000545454545454545454545454545454542E
:10029000545454545454545454545454545454541E
:1002A000545454545454545454545454545454540E
:1002B0002000545454545454545454545454545486
:1002C00054545454545454545454545454545454EE
:1002D00054545454545454545454545454545454DE
:1002E00054545454545454545454545454545454CE
:1002F0005454545420006C6F6F705F636F756E744C
:100300003A20007676767676767676767676767695
:10031000767676767676767676767676767676767D
:10032000767676767676767676767676767676766D
:10033000767676767676767676767676767676765D
:10034000767676767676767676767676767676764D
:10035000767676767676767676767676767676763D
:10036000767676767676767676767676767676762D
:10037000767676767676767676767676767676761D
:1003800076767676767676007C7C7C7C7C7C7C7C53
:100390007C7C7C7C7C7C7C7C7C7C7C7C7C7C7C7C9D
:1003A0007C7C7C7C7C7C7C7C7C7C7C7C7C7C7C7C8D
:1003B0007C7C7C7C7C7C7C7C7C7C7C7C7C7C7C7C7D
:1003C0007C7C7C7C7C7C7C7C7C7C7C7C7C7C7C7C6D
:1003D0007C7C7C7C7C7C7C7C7C7C7C7C7C7C7C7C5D
:1003E0007C7C7C7C7C7C7C7C7C7C7C7C7C7C7C7C4D
:1003F0007C7C7C7C7C7C7C7C7C7C7C7C7C7C7C7C3D
:100400007C7C7C7C7C7C7C7C7C7C7C7C005E5E5E02
:100410005E5E5E5E5E5E5E5E5E5E5E5E5E5E5E5EFC
:100420005E5E5E5E5E5E5E5E5E5E5E5E5E5E5E5EEC
:100430005E5E5E5E5E5E5E5E5E5E5E5E5E5E5E5EDC
:100440005E5E5E5E5E5E5E5E5E5E5E5E5E5E5E5ECC
:100450005E5E5E5E5E5E5E5E5E5E5E5E5E5E5E5EBC
:100460005E5E5E5E5E5E5E5E5E5E5E5E5E5E5E5EAC
:100470005E5E5E5E5E5E5E5E5E5E5E5E5E5E5E5E9C
:100480005E5E5E5E5E5E5E5E5E5E5E5E5E5E5E5E8C
:100490005E007772697465696E67206973206861B0
:1004A0007665696E67206572726F72730077726924
:1004B0007465696E67206973204F4B006C6F6F70B5
:1004C000206379636C652074696D655B735D3A3D8B
:1004D000200066696C65204E4F542063726561741C
:1004E00065640066696C65206372656174656400AB
:1004F00066696C65204E4F542064656C6574656454
:100500000066696C652064656C657465640057619C
:1005100074657220587472656D65203447005245C9
:100520005354415254494E4700524550524F47523E
:10053000414D4D494E47204F4B00524550524F4779
:1005400052414D4D494E47204552524F52002D2D9C
:100550002D2D2D2D2D2D2D2D2D2D2D2D2D2D2D2DCB
:100560002D2D2D2D2D2D2D2D2D2D2D0050726F6704
:1005700072616D2076657273696F6E3A20005072F9
:100580006F6772616D2069643A20002D2D2D2D2D2D
:100590002D2D2D2D2D2D2D2D2D2D2D2D2D2D2D2D8B
:1005A0002D2D2D2D2D2D2D2D00352E2053776974B9
:1005B0006368204F4646203447206D6F64756C6534
:1005C000003447206D6F64756C65206E6F74207306
:1005D000746172746564004F544120726571756571
:1005E0007374206661696C65642E204572726F7247
:1005F00020636F64653A20003D3D3E205265717571
:10060000657374204F54412E2E2E00312E20344716
:10061000206D6F64756C652072656164792E2E2E75
:10062000005354415254494E47204F544150205694
:10063000455253494F4E20434845434B00756E6B1E
:100640006E6F776E006572726F7220646F776E6C7A
:100650006F6164696E672062696E61727920666994
:100660006C653A2073697A65206D69736D61746396
:1006700068006572726F7220646F776E6C6F616470
:10068000696E672062696E6172792066696C653A8D
:10069000206E6F206D6F726520726574726965736C
:1006A0002067657474696E672064617461006572A7
:1006B000726F7220646F776E6C6F6164696E672011
:1006C00062696E6172792066696C653A2065727242
:1006D0006F722077726974696E6720534400657287
:1006E000726F7220646F776E6C6F6164696E6720E1
:1006F00062696E6172792066696C653A2070616327
:100700006B65742073697A65206D69736D617463BC
:1007100068006572726F7220646F776E6C6F6164CF
:10072000696E672062696E6172792066696C653AEC
:10073000206572726F72202067657474696E67201D
:100740007061636B65742073697A65006572726F9E
:100750007220646F776E6C6F6164696E6720626986
:100760006E6172792066696C653A206572726F728B
:10077000206D6F64756C652072657475726E732080
:100780006572726F7220636F646520616674657252
:100790002072657175657374696E67206461746138
:1007A000006572726F7220646F776E6C6F6164693E
:1007B0006E672062696E6172792066696C653A20A5
:1007C0006572726F72206F70656E696E67207468F3
:1007D000652047455420636F6E6E656374696F6E64
:1007E000006572726F7220646F776E6C6F616469FE
:1007F0006E672062696E6172792066696C653A2065
:100800006572726F722073657474696E67207468A4
:100810006520706F696E746572206F6620746865FC
:100820002066696C65006572726F7220646F776E06
:100830006C6F6164696E672062696E6172792066AF
:10084000696C653A206572726F72206F70656E69AF
:100850006E67207468652066696C65006572726FEA
:100860007220646F776E6C6F6164696E6720626975
:100870006E6172792066696C653A206572726F727A
:10088000206372656174696E6720746865206669AB
:100890006C6520696E205344006572726F7220642B
:1008A0006F776E6C6F6164696E672062696E6172EA
:1008B000792066696C653A205344206E6F7420700D
:1008C000726573656E74006572726F7220646F7703
:1008D0006E6C6F6164696E672062696E6172792007
:1008E00066696C653A2072656164696E6720746838
:1008F000652066696C652073697A65006572726F40
:100900007220646F776E6C6F6164696E67206269D4
:100910006E6172792066696C653A207365727665DE
:10092000722066696C652073697A65206973207A24
:1009300065726F0066696C652073697A6520646F03
:100940006573206E6F74206D6174636820696E201A
:10095000555047524144452E54585420616E6420EE
:1009600073657276657200696E76616C6964207079
:10097000726F6772616D2076657273696F6E206E3B
:10098000756D626572006E6F202756455253494F50
:100990004E27207061747465726E20666F756E6488
:1009A000006E6F202753495A452720706174746583
:1009B000726E20666F756E64006E6F202750415412
:1009C0004827207061747465726E20666F756E645E
:1009D00000274E4F5F46494C4527206973207468B5
:1009E000652066696C656E616D65006E6F202746D7
:1009F000494C4527207061747465726E20666F756E
:100A00006E640066696C656E616D65206973206453
:100A10006966666572656E7420746F20372062792E
:100A2000746573006572726F72206F70656E696EA7
:100A300067204654502073657373696F6E0065724A
:100A4000726F7220646F776E6C6F6164696E67207D
:100A5000555047524144452E545854005344206E3B
:100A60006F742070726573656E7400322E20537738
:100A700069746368204F4646203447206D6F647563
:100A80006C65004572726F7220636F64653A200076
:100A90003447206D6F64756C65206E6F74207374BD
:100AA000617274656400435552454E542054494D5B
:100AB000453A00312E203447206D6F64756C6520F7
:100AC0007265616479005354415254204F4620545A
:100AD000484520525443205345474D454E5400202D
:100AE00000200020002000342E20537769746368B2
:100AF000204F4646203447206D6F64756C65004575
:100B000072726F7220636F64653A20003447206D03
:100B10006F64756C65206E6F742073746172746598
:100B200064004661696C65642E204572726F7220A4
:100B3000636F64653A200053657276657220726552
:100B400073706F6E73653A2000446F6E652E204897
:100B500054545020636F64653A200053656E646995
:100B60006E6720746865206672616D652E2E2E009A
:100B7000312E203447206D6F64756C65207265617D
:100B800064792E2E2E00585858585858585858588E
:100B900058585858585858585858585858585858D5
:100BA00058585858585858585858585858585858C5
:100BB00058585858585858585858585858585858B5
:100BC00058585858585858585858585858585858A5
:100BD0005858585858585858585858585858585895
:100BE0005858585858585858585858585858585885
:100BF0005858585858585858585858585858585875
:100C000058585858585858585858585858580032E2
:100C10002E20537769746368204F4646203447205E
:100C20006D6F64756C65004572726F7220636F64DE
:100C3000653A20003447206D6F64756C65206E6FD7
:100C400074207374617274656400312E342E2045F3
:100C500072726F722063616C6C696E6720276765C2
:100C6000744F70657261746F72272066756E63745D
:100C7000696F6E00312E342E204F70657261746F73
:100C8000723A2000312E332E204572726F7220632B
:100C9000616C6C696E6720276765744E6574776F49
:100CA000726B54797065272066756E6374696F6E18
:100CB00000556E6B6E6F776E206F72206E6F7420B2
:100CC00072656769737465726564004C54450048C9
:100CD00053445041005743444D41004547505253FF
:100CE000004750525300312E332E204E6574776FDB
:100CF000726B20747970653A2000312E322E2045B7
:100D000072726F722063616C6C696E672027676511
:100D10007452535349272066756E6374696F6E0071
:100D20002064426D00312E322E20525353493A2016
:100D300000312E312E204D6F64756C6520636F6E0F
:100D40006E656374656420746F206E6574776F726E
:100D50006B00312E203447206D6F64756C652072F6
:100D600065616479005374617274696E6720494EDD
:100D7000464F5F34475F4E455400585858585858AE
:100D800058585858585858585858585858585858E3
:100D900058585858585858585858585858585858D3
:100DA00058585858585858585858585858585858C3
:100DB00058585858585858585858585858585858B3
:100DC00058585858585858585858585858585858A3
:100DD0005858585858585858585858585858585893
:100DE0005858585858585858585858585858585883
:100DF0005858585858585858585858585858585873
:100E000058580058585858585858585858585858BA
:100E10005858585858585858585858585858585852
:100E20005858585858585858585858585858585842
:100E30005858585858585858585858585858585832
:100E40005858585858585858585858585858585822
:100E50005858585858585858585858585858585812
:100E60005858585858585858585858585858585802
:100E700058585858585858585858585858585858F2
:100E80005858585858585858585858003447206D92
:100E90006F64756C65206E6F742073746172746515
:100EA0006400312E392E2054656D70657261747541
:100EB0007265204552524F52002043656C7369752C
:100EC00073206465677265657300312E39622E2068
:100ED00054656D70657261747572653A2000312ECB
:100EE00039612E2054656D7065726174757265206C
:100EF000696E74657276616C3A2000312E382E204E
:100F000053686F772041504E3A00312E372E2049DA
:100F100043434944204552524F5200312E372E2030
:100F200049434349443A2000312E362E20494D533F
:100F300049204552524F5200312E362E20494D53F2
:100F4000493A2000312E352E20494D454920455241
:100F5000524F5200312E352E20494D45493A20003E
:100F6000312E342E205265766973696F6E20696464
:100F7000656E74696669636174696F6E204552526B
:100F80004F5200312E342E205265766973696F6E90
:100F9000206964656E74696669636174696F6E3A2D
:100FA0002000312E332E204D6F64656C20696465FE
:100FB0006E74696669636174696F6E204552524F41
:100FC0005200312E332E204D6F64656C20696465AC
:100FD0006E74696669636174696F6E3A2000312EC0
:100FE000322E204D616E7566616374757265722074
:100FF0006964656E74696669636174696F6E2045C2
:1010000052524F5200312E322E204D616E75666164
:10101000637475726572206964656E74696669636C
:101020006174696F6E3A2000312E312E2048617252
:101030006477617265207265766973696F6E2045A9
:1010400052524F5200312E312E2048617264776126
:101050007265207265766973696F6E3A2000344755
:10106000206D6F64756C652072656164790A005348
:101070007461727420494E464F5F34475F4D44445B
:101080000058585858585858585858585858585838
:1010900058585858585858585858585858585858D0
:1010A00058585858585858585858585858585858C0
:1010B00058585858585858585858585858585858B0
:1010C00058585858585858585858585858585858A0
:1010D0005858585858585858585858585858585890
:1010E0005858585858585858585858585858585880
:1010F0005858585858585858585858585858585870
:1011000058585858585858585800206572726F727D
:101110007300534420736F7261676520646F6E655E
:1011200020776974683A0053442073746F72616762
:101130006520646F6E652077697468206E6F206526
:1011400072726F72730074696D653A200066696C23
:101150006520637265617465642073696E636520E0
:10116000697420776173206E6F7420707265736587
:101170006E74200073652076612073637269652048
:10118000696E3A20007363726969746F7220534408
:101190002020002076732075736572207361797347
:1011A00020003A20617069207361797320004572D4
:1011B000726F722073656E736F7220747970652020
:1011C00026206E6669656C6473206D69736D617449
:1011D000636820666F7220696E64657820005B46E4
:1011E00052414D455D200020767320757365722055
:1011F0007361797320003A2061706920736179739B
:1012000020004572726F722073656E736F72207466
:10121000797065206D69736D6174636820666F72A3
:1012200020696E64657820005B4652414D455D2023
:101230000020767320003A20004572726F7220738E
:10124000656E736F722074797065206D69736D615E
:1012500074636820666F7220696E64657820005B35
:101260004652414D455D2000020201020202010288
:101270000000000002020202020202020202020256
:10128000020202020202020202020202020202023E
:101290000202000000000000000000000006000044
:1012A0000000000000000200000000000000040434
:1012B0000400020201020000000000000000000023
:1012C000000202020303030000000000000000000F
:1012D000000000000000000000000000000000000E
:1012E00000000000000000000000000000000202FA
:1012F00002020202020202020202020202020202CE
:1013000002020202020202020202020202020202BD
:1013100002020202020202020202020202020202AD
:10132000020202020202020202020202020202029D
:10133000020202020202020202020202020202028D
:10134000020202020202020202020202020303037A
:10135000030101010101010101010101010101017B
:10136000010101010101010101010101010101016D
:10137000010101010101010101010101010101025C
:101380000203030101010101010102010101010345
:101390000301010103010101010101010101020138
:1013A000010101010101010101010101010101012D
:1013B000010101010101010101010101010101011D
:1013C000010101010101010101010101010101010D
:1013D00001010101010101010101010101010101FD
:1013E00001010101010101010101010101010101ED
:1013F00001010101010101010101010101010101DD
:1014000001010101010101010101010101010101CC
:1014100001010101010101010101010101010101BC
:1014200001010101010101010101010101010101AC
:10143000010101010101010101010101010101019C
:10144000010102020202020202020404010102027C
:10145000020202020202020202020202020202026C
:101460000202020202020202020202020101010160
:10147000010101000001000201030303000001015A
:10148000020104030000030302020204020202023A
:10149000040100000000000000000002020202023D
:1014A000020000000000000000000000000000003A
:1014B0000000000000000000000000000004000028
:1014C000000000000000000002020202020202020C
:1014D00002020202020202020202020202020202EC
:1014E00002020202020202020202020202020202DC
:1014F00002020202020202020202020202020202CC
:1015000002020202020202020202020202020202BB
:1015100002020202020202020202020202020202AB
:101520000202020202020202020202020202024756
:101530001B421B3C1B351B301B2B1B251B1E1B186A
:101540001B121B0D1B081B021BFC1AF61AF01AEAD1
:101550001AE51AE01ADB1AD61AD11ACC1AC71AC21F
:101560001ABD1AB81AB31AAE1AA91AA41A9F1A9950
:101570001A921A891A811A7A1A731A6C1A661A5FE1
:101580001A591A501A4A1A441A3E1A371A311A2B83
:101590001A251A1F1A191A151A111A0C1A081A05DF
:1015A0001A011AFC19F719F319EF19E719E319DCF5
:1015B00019D819D719D619D219CF19CB19C519C0ED
:1015C00019BB19B819B519B119AC19A819A519A4DD
:1015D00019A319A219A119A0199F199E199D199C47
:1015E0001993198919851980197B19761975197438
:1015F0001973197219711970196F196E196D196CA7
:10160000196B196A196919681967196619651964D6
:101610001963196219611960195F195E195D195C06
:10162000195B195A195619551950194A1944194173
:101630001940193F193E193D193C19361930192A1C
:101640001924191E19191914190F190A1905190045
:1016500019FB18F618F118EC18E718E218DD18D87D
:1016600018D318CD18C718C118BB18B518B018ABC7
:1016700018A618A1189C18971892188D1888188306
:10168000187E18791874186F186A1864185E18583C
:101690001852184C18471842183D18381833182E8D
:1016A00018291824181F181A1814180E18081802C8
:1016B00018FC17F617F017EA17E417DE17D817D239
:1016C00017CC17C617C017BB17B617B117AC17A79B
:1016D00017A1179B1795178F17891784177F177AEC
:1016E00017751770176B17661761175C1757175127
:1016F000174B1745173F17391733172D1727172182
:10170000171B1715170F1709175443375F44005459
:1017100043375F43005443375F42005443375F41D0
:10172000004449535F44004449535F4300444953D4
:101730005F42004449535F41005446415F450054B5
:1017400046415F44005446415F43005446415F4276
:10175000005446415F410053535F450053535F447B
:101760000053535F430053535F420053535F4100A4
:1017700053425F450053425F440053425F4300536E
:10178000425F420053425F41005443365F4500547C
:1017900043365F44005443365F43005443365F4250
:1017A000005443365F410043555F450043555F4455
:1017B0000043555F430043555F420043555F41007E
:1017C0005341315F45005341315F44005341315F24
:1017D00043005341315F42005341315F4100434E6A
:1017E000315F4500434E315F4400434E315F43005B
:1017F000434E315F4200434E315F41005443355FF9
:1018000045005443355F44005443355F430054431F
:10181000355F42005443355F4100544D5F450054ED
:101820004D5F4400544D5F4300544D5F4200544DA2
:101830005F4100544E5F4500544E5F4400544E5F7C
:101840004300544E5F4200544E5F41005443345FA6
:1018500045005443345F44005443345F43005443D1
:10186000345F42005443345F410054445F450054A8
:10187000445F440054445F430054445F4200544476
:101880005F410053415F450053415F440053415F56
:10189000430053415F420053415F4100434E5F4567
:1018A00000434E5F4400434E5F4300434E5F42009F
:1018B000434E5F41005443335F45005443335F441C
:1018C000005443335F43005443335F420054433377
:1018D0005F4100504D5F4500504D5F4400504D5FEB
:1018E0004300504D5F4200504D5F410052585F45EC
:1018F0000052585F440052585F430052585F420004
:1019000052585F410050485F450050485F440050C6
:10191000485F430050485F420050485F41005443D5
:10192000325F45005443325F44005443325F43000A
:101930005443325F42005443325F410000000000D4
:101940000050530056424F4F54005650524F4700DC
:10195000564150490000545354000000000000005C
:101960000000000000000000000000000000000077
:1019700000000000000050444F500056444F5000FB
:1019800048444F5000414C5400434F555253455F1B
:101990004F470053504545445F4F4700000000004B
:1019A00000000000005553004C555800505245535C
:1019B0000048554D005446005443005041525400D5
:1019C000504D313000504D325F3500504D31005296
:1019D0004200554944000000535452004D494C4CBC
:1019E00049530041434300494E5F54454D50005216
:1019F000414D00474D540054494D45004441544524
:101A0000004E4944004E41004D414300525353495A
:101A100000475053004241540043425F4650004348
:101A2000425F54500043425F464C0043425F46527F
:101A30000043425F56530043425F52504D004D42B7
:101A40005F4952004D425F4852004D425F44490099
:101A50004D425F434F494C5300454D5F5443004551
:101A60004D5F48444F00454D5F434C00454D5F4E30
:101A70004F3300454D5F4E483400454D5F43484C61
:101A800000454D5F434F4E4400454D5F4445505423
:101A90004800454D5F4F525000454D5F5048004F44
:101AA000505F45004F505F44004F505F43004F5020
:101AB0005F42004F505F41004F4D5F45004F4D5F0B
:101AC00044004F4D5F43004F4D5F42004F4D5F411B
:101AD000004F535F45004F535F44004F535F430037
:101AE0004F535F42004F535F41005443315F450005
:101AF0005443315F44005443315F43005443315FEA
:101B000042005443315F410055535F440055535FD9
:101B100041004C55585F44004C55585F41005052AD
:101B200045535F440048554D5F440054465F4400B0
:101B300054435F4400505245535F410048554D5F48
:101B4000410054465F410054435F410002020102DC
:101B5000020201020000000004020202020202026C
:101B60000202020202030303030304040404030346
:101B70000303030303030000000000000000000053
:101B8000000600000000000000000200000000004D
:101B90000000040404000202010200000000000032
:101BA0000000000000020202030303000000010124
:101BB0000102000000000000000000000000000022
:101BC0000000000000000000000000000000000015
:101BD00000000303030301010101040404040202E1
:101BE00002020000000002020202020202020202DD
:101BF00002020101010103030303010101010101CB
:101C000001010202020201010101010101010303BC
:101C100003030303030302020202010101010000A6
:101C200002020002000303000000000000000100A7
:101C3000000200000000000000010101000101029B
:101C40000101000002020200000002000101010186
:101C50000101010101010101010101010101010174
:101C60000101010101010101010101010101010164
:101C7000010101010101020203030101010101014E
:101C8000010201010101030301010103010101013D
:101C90000101010101020101010101010101010133
:101CA0000101010101010101010101010101010124
:101CB0000101010101010101010101010101010114
:101CC0000101010101010101010101010101010104
:101CD00001010101010101010101010101010101F4
:101CE00001010101010101010101010101010101E4
:101CF00001010101010101010101010101010101D4
:101D000001010101010101010101010101010101C3
:101D100001010101010101010101010101010101B3
:101D200001010101010101010101010101010101A3
:101D30000101010101010101010101010101010193
:101D4000010101010101010101010101020202027F
:101D50000202020204040101020202020202020261
:101D60000202020202020202020202020202020253
:101D7000020202020202010101010101010000014F
:101D8000000201030303000001010201040300003B
:101D90000303020202040202020204010000000026
:101DA0000000000000020202020202010101020220
:101DB000020200000000000000000000000000001F
:101DC000000000000000000400000000000000000F
:101DD00000000202020202020202020202020202E7
:101DE00002020202020202020202020202020202D3
:101DF00002020202020202020202020202020202C3
:101E000002020202020202020202020202020202B2
:101E100002020202020202020202020202020101A4
:101E20000202010203020200010101020202020396
:101E3000010203030303030303020202010202027D
:101E400002020201020202010301020320251B25F6
:101E500015250E2509250425FE24F724F124EB245D
:101E6000E624E124DE24D924D424CF24CA24C424A3
:101E7000BE24B824B224AD24A824A3249E249B24E9
:101E8000982495248F24892483247D247724712405
:101E90006B2465245F24592453244D244724412472
:101EA000382432242C2426241F24192413240D24FE
:101EB00007240124FD23F923F423F023ED23E92350
:101EC000E423DF23DB23D723CF23CB23C423C02367
:101ED000BF23BE23BA23B723B323AD23A823A32351
:101EE000A0239D239923942390238D238C238B233C
:101EF0008A238923882387238623852384237B239E
:101F000071236D23682363235E235A2352234A23BC
:101F1000462342233E233A233623352334233323D7
:101F20003223312330232F232E232D232C232B2325
:101F30002A23292328232723262325232423232355
:101F400022231E231D23182312230C2309230823D5
:101F50000723062305230423FF22FA22F522F02279
:101F6000EA22E422DE22D822D222CC22C622C022B9
:101F7000BA22B422AE22A822A2229C229622902229
:101F80008A2284227E22782272226C226622602299
:101F90005A2254224E22482242223C223622302209
:101FA0002B22262221221C22162210220A2204225F
:101FB000FF21FA21F521F021EB21E621E121DC21AD
:101FC000D721D221CD21C821C221BC21B621B021E7
:101FD000AA21A4219E21982193218E218921842147
:101FE0007E21782172216C21662160215A215421A1
:101FF00051214D214A21462141213C2138213521C1
:1020000032212E212A21252120211D211A211721AB
:10201000132110210A210321FC20F520EF20E920C3
:10202000E320DD20D720CF20C520BC20B620AF2064
:10203000A920A3209D20962090208A20822079200C
:102040007120682060205A2053204C204750535F55
:102050005354004750535F5350004750535F48005C
:102060004750535F4C4F43004750535F47444952DA
:10207000004750535F475350004750535F4143530D
:1020800050004750535F4353500048495F57530037
:1020900057435F5753005742545F57530041445FC3
:1020A00057530041485F57530044505F5753005403
:1020B000454D5F57530052485F57530050524553A8
:1020C000535F57530050524553534C5F5753005082
:1020D0005245535F57530054415F575300544E5F6E
:1020E00057530054435F57530050535F57530053A7
:1020F000545F575300534E545F5753005352545F2D
:102100005753005353485F57530053525F57530080
:1021100053540053564F005A4F005954005854001E
:10212000434D5053004143574400435744005053DC
:1021300054005049005054005753530041574753DF
:1021400000415747440041575300575300415744FB
:10215000005744005443375F44005443375F430003
:102160005443375F42005443375F41004450335F6C
:1021700044004450335F43004450335F42004450B6
:10218000335F41004C545F44004C545F43004C5457
:102190005F42004C545F41004254325F440042545D
:1021A000325F43004254325F42004254325F41008A
:1021B0005443365F44005443365F43005443365F14
:1021C00042005443365F410057505F440057505F10
:1021D000430057505F420057505F410041505F44F9
:1021E0000041505F430041505F420041505F410059
:1021F00052485F440052485F430052485F420052D9
:10220000485F41005443355F44005443355F430009
:102210005443355F42005443355F410056505F449C
:102220000056505F430056505F420056505F4100D9
:102230005443345F44005443345F43005443345F99
:1022400042005443345F41004543325F44004543FC
:10225000325F43004543325F42004543325F4100F5
:102260004450325F44004450325F43004450325F78
:1022700042004450325F41005443335F44005443B2
:10228000335F43005443335F42005443335F4100A4
:102290004543315F44004543315F43004543315F6F
:1022A00042004543315F41004450315F4400445097
:1022B000315F43004450315F42004450315F410080
:1022C0004D56325F44004D56325F43004D56325FEB
:1022D00042004D56325F41005443325F4400544344
:1022E000325F43005443325F42005443325F410047
:1022F000434F5F4400434F5F4300434F5F420043FF
:102300004F5F4100000000000050530056424F4F05
:1023100054005650524F4700564150490000545304
:102320005400000000000000000000000000000059
:102330000000000000004E434E0050534800575329
:10234000500050544300455443005343325F5241C0
:1023500044005343315F52414400524144005044D1
:102360004F500056444F500048444F5000414C5489
:1023700000434F555253455F4F4700535045454426
:102380005F4F4700000000000000000000555300B0
:102390004C555800505245530048554D0054460086
:1023A0005443005041525400504D313000504D3292
:1023B0005F3500504D310052420055494400000045
:1023C000535452004D494C4C49530041434300493A
:1023D0004E5F54454D500052414D00474D540054FE
:1023E000494D450044415445004E4944004E41008A
:1023F0004D4143005253534900475053004241540A
:102400000043425F46500043425F54500043425FE6
:10241000464C0043425F46520043425F56530043DE
:10242000425F52504D004D425F4952004D425F485D
:1024300052004D425F4449004D425F434F494C5367
:10244000004254315F44004254315F4300425431F2
:102450005F42004254315F41004D56315F44004DB0
:1024600056315F43004D56315F42004D56315F415A
:10247000005443315F44005443315F4300544331BF
:102480005F42005443315F41004355525F42004375
:1024900055525F460046440053440054440055568C
:1024A0005F460055565F450055565F430055565FE1
:1024B00042005041525F46005041525F450050413A
:1024C000525F43005041525F420053525F460053F7
:1024D000525F450053525F430053525F42004C57D6
:1024E0000055535F440055535F41004C55585F44BD
:1024F000004C55585F4100505245535F44004855C9
:102500004D5F440054465F440054435F44005052C2
:1025100045535F410048554D5F410054465F4100BF
:1025200054435F4100030303030303030303030353
:10253000030303030303030303030200000000007B
:102540000000000303030303030000000003000076
:102550000000000000000000000006000000000075
:10256000000000020000000000000004040400025B
:102570000201020000000000000000000000020252
:10258000020303030000000000030303030303032B
:10259000030303030303030303030303030303030B
:1025A0000000000000000602030101020102020314
:1025B000030000000000000000000002020202020E
:1025C00003020002020202020303030202020002EB
:1025D00001030000030303030000000000000000EB
:1025E00000000000000002020200000200010101E0
:1025F00001010101010101010101010101010101CB
:1026000001010101010101010101010101010101BA
:1026100001010101010101010101010101010101AA
:102620000101020101010103030101010301010193
:102630000101010101010201010101010101010189
:10264000010101010101010101010101010101017A
:10265000010101010101010101010101010101016A
:10266000010101010101010101010101010101015A
:10267000010101010101010101010101010101014A
:10268000010101010101010101010101010101013A
:10269000010101010101010101010101010101012A
:1026A00001020203030101010101011810080101E7
:1026B00001010101010202020202020202020202FF
:1026C00002020202020202020202020000000000F4
:1026D00000000002020202020200000000020000EC
:1026E00000000000000000000000020103030300DE
:1026F00000010102010403030303030202020402B6
:1027000002020204010000000000000000000202BA
:1027100002020202000000000002020202020202A3
:10272000020202020202020202020202020200008D
:102730000400000000000202020202020202020281
:10274000020000000000000000000002020202027D
:10275000020200020202020202020202020200025D
:102760000202000002020202000101010101010156
:10277000000001010101020202040402004D2C4983
:102780002C462C422C3F2C3B2C372C332C2F2C2B23
:102790002C282C242C212C1D2C192C162C122C0E00
:1027A0002C0A2C062C022CFC2BFB2BFA2BF92BF8D9
:1027B0002BF72BF62BF52BF42BEF2BEA2BE52BE449
:1027C0002BE32BDE2BDD2BDC2BDB2BDA2BD72BD3D8
:1027D0002BD02BCD2BC82BC42BBF2BBA2BB52BB09A
:1027E0002BAB2BAA2BA62BA22B9D2B992B962B9296
:1027F0002B8D2B882B842B802B782B742B6D2B69A6
:102800002B682B672B632B602B5C2B562B512B4C8F
:102810002B492B462B422B3D2B392B362B352B347A
:102820002B332B322B312B302B2F2B2E2B2D2B24DC
:102830002B1A2B162B112B0C2B072B062B052B04DD
:102840002B032B022BFC2AF62AF02AE92AE32ADDA5
:102850002AD72AD12ACA2AC42ABE2AB82AB22AAB1F
:102860002AA32A9E2A982A922A8C2A862A802A7F9C
:102870002A7E2A7A2A792A742A6E2A682A652A6187
:102880002A5E2A5A2A572A522A4F2A4A2A452A4079
:102890002A3A2A342A332A322A312A302A2F2A2E57
:1028A0002A2D2A2C2A2B2A2A2A242A1E2A182A11BF
:1028B0002A0A2A072A032A002AFB29F629F129EDE8
:1028C00029EA29E729E429E129DA29D329CC29CBE6
:1028D00029C729C229BE29BD29BC29B629B029AAE0
:1028E00029A429A3299A2994298E29882981297B19
:1028F0002975296F29692963295C2954294C2944A0
:10290000293D2934292C291E2914290D29524553E2
:10291000554C54005448524553484F4C440046458A
:102920005645525F434F554E54455200434F554E06
:102930005445520053493442315F54430041495297
:102940005F544300555345525F544300504D5F421E
:10295000494E4800504D5F42494E4C00504D5F4239
:10296000494E0043425F46500043425F545000438B
:10297000425F464C0043425F46520043425F56531B
:102980000043425F52504D004D425F4952004D425C
:102990005F4852004D425F4449004D425F434F49FA
:1029A0004C5300004355525F44004355525F43006F
:1029B0004355525F42004355525F410000004C5561
:1029C0004D0048554D42005443420000534F494C7E
:1029D0005F4500534F494C5F4300534F494C5F42A2
:1029E00000464400534400544400555600504152A0
:1029F00000504C563300504C563200504C5631006B
:102A0000575600414E45004C5700534F494C5446D1
:102A100000534F494C544300534F494C3300534FDC
:102A2000494C3200534F494C310000000000000077
:102A3000000000004F52505F45004F52505F410070
:102A400050485F450050485F41005455524200577E
:102A50005400434F4E4400444F004F5250005048E2
:102A6000005241440050530056424F4F54005650BC
:102A7000524F470056415049000054535400000043
:102A80005357495F44005357495F43005357495FC9
:102A900042005357495F41005357494E4100535735
:102AA000494B00535749434C4F34005357494E4FFD
:102AB00032005357494D47005357494C490053572B
:102AC000495048005357494147005357494E4834ED
:102AD00000535749494F00535749435500535749ED
:102AE000434C005357494252005357494E4F33000D
:102AF000535749464200535749464C0053574943A0
:102B00004100000000000050444F500056444F5018
:102B10000048444F5000414C5400434F55525345D8
:102B20005F4F470053504545445F4F47000000004A
:102B30000000000000005553004C5558005052450D
:102B4000530048554D0054460054430050415254E0
:102B500000504D313000504D325F3500504D310046
:102B6000524200554944000000535452004D494C14
:102B70004C49530041434300494E5F54454D50007A
:102B800052414D00474D540054494D450044415475
:102B900045004E4944004E41004D414300525353BD
:102BA000490047505300424154000045565F4500DC
:102BB00045565F440045565F430045565F4100520D
:102BC0004F55540052494E0048414C4C004C4C006B
:102BD0004C5000504952005746000000000047503A
:102BE0005F4600000047505F430047505F42004788
:102BF000505F410000000000000000004E4F4953AC
:102C00004500534F32005048330048434E0048437C
:102C10004C004832530048320045544F00434C3278
:102C2000004E4F00564F4300535600415032004172
:102C30005031004C5047004E4F32004E4833004F49
:102C40003300434834004F3200434F3200434F00BB
:102C50000303030303030303030303030202010249
:102C6000030300000000030003000003030302004D
:102C70000002020102020302020303030200020631
:102C80000203030300060000000000000000020031
:102C9000000000000000020301010203030303031C
:102CA0000303030303000000030202020303030003
:102CB00002020202020202020202020202030303F1
:102CC00000000000000000000003030001000000FD
:102CD00003030303030303030303030303030303C4
:102CE00003020200020200040404000303030303BE
:102CF00003030303030302020203030300000101B1
:102D000001010101010101010101010101010101B3
:102D100001010101010101010101010101030101A1
:102D20000101010101010101010101010101010193
:102D3000010101020101010103030101010301017C
:102D40000101010101010101010101010101010173
:102D5000010101010303010101010101010101015F
:102D60000101010101010101010101010101010153
:102D70000101010101010101010101010101010143
:102D80000101010101010101010101010101010133
:102D90000101010101010101020101010101010122
:102DA00001010101010101010101181002020202E9
:102DB00002020202020202020202020202020000F7
:102DC00000000200020000020202020100020202F0
:102DD00002020202020202020200020202020202D5
:102DE00000020103030300000101020104030303C5
:102DF00003030202020202020202020202020202B1
:102E000002000000040202020202020002020202A8
:102E1000020202020202020202020202000000009A
:102E20000000000000020204020000000202020290
:102E30000202020202020202020202020202020272
:102E40000202020202020202020202020202020262
:102E50000202020202020202010139333533323327
:102E60002E332A33263322331E331B3317331433C6
:102E700010330C33083303330033FD32F832F432AD
:102E8000EF32EC32E932E532E132DE32DA32D6329A
:102E9000D232CF32CA32C732C432C132BD32B93275
:102EA000B432AE32A932A632A2329F329C3299326B
:102EB000963292328F328B328732843281327E3236
:102EC0007B32773273326E326A32673263325E320D
:102ED000593255325132493245323E323A32363227
:102EE00030322C322932263222321F321A32173235
:102EF00012320D3209320432FF31FB31F531F1313A
:102F0000EB31E531DE31D831D231CE31C531BB3193
:102F1000B731B231AD31A831A4319F319A319531F9
:102F20008E3187318031793173316D316731633161
:102F30005C31563150314A3144313F313A313531CB
:102F400030312B3126311F31183111310C3107311D
:102F50000331FE30F930F330ED30E630E030D93077
:102F6000D330CC30C530BE30B730B130AA30A43009
:102F70009D3096308F30893082307C3076306F30A3
:102F800067306030593053304B30413038302F305B
:102F9000293023301D30173011300B300530FF2F12
:102FA000F92FF32FED2FE82FE32FDE2FD82FD22F7D
:102FB000CC2FC12FB62F4F50435F4E325F42494E48
:102FC000004F50435F4E335F42494E004F52505FB7
:102FD00043004F52505F42004F52505F41005048F3
:102FE0005F430050485F420050485F4100535749DB
:102FF00050480053574941470053574950420053E6
:103000005749494F00535749435500535749434C7B
:10301000005357494252005357494E4F00535749A6
:10302000464200535749464C005357494341004FCD
:1030300050435F50415254004F50435F504D313028
:10304000004F50435F504D325F35004F50435F504B
:103050004D31004F50435F50004F50435F54460086
:103060004F50435F54430047505F50524553004711
:10307000505F48554D0047505F54460047505F54DD
:10308000430047505F434F320047505F4F33004784
:10309000505F4348340047505F534F320047505F02
:1030A0005048330047505F4F320047505F4E4F3219
:1030B0000047505F4E4F0047505F4E483300475027
:1030C0005F48434E0047505F48434C0047505F48BD
:1030D00032530047505F48320047505F45544F001D
:1030E00047505F434F0047505F434C320056424FBA
:1030F0004F54005650524F470056415049005455C6
:103100005242005453540057465F450057465F43B0
:103110000048414C4C5F460048414C4C5F450048DC
:10312000414C4C5F44004C4C5F46004C4C5F4500AA
:103130004C4C5F44004C505F46004C505F45004C87
:10314000505F44004C554D5F46004C554D5F450067
:103150004C554D5F440055535F35560055535F3312
:1031600056330054434300534F494C3300534F49A7
:103170004C3200534F494C3100534F494C5F46008D
:10318000534F494C5F4500534F494C5F4400534FE8
:10319000494C5F4300504C563300504C563200505F
:1031A0004C56310046534D0050444F500056444F4A
:1031B000500048444F5000414C5400434F55525327
:1031C000455F4F470053504545445F4F47004C55BE
:1031D0005800444D5F535000444D5F5354005458C1
:1031E0005F5057520044494E4F330044494D4732D7
:1031F0000044494B00444943553200444949004486
:10320000494252004449434C004449460044494322
:10321000410044494E4100575400434F4E4400443E
:103220004F004F5250005048005242005549440050
:103230004D57494649004D425400535452004D49A0
:103240004C4C49530041434300494E5F54454D5057
:103250000052414D00474D540054494D45004441F2
:103260005445004E4944004E41004D4143005253E5
:1032700053490047505300424154004446004C43D8
:103280000057460043550052414400504C560057E9
:103290005600414E450046440053440054440055F6
:1032A0005600504152004C5700534F494C00534F69
:1032B000494C540048554D42005446420054434244
:1032C000005053004D460055530044555354004C94
:1032D000440043504700434447004D43500053547B
:1032E00000504952004C554D004C4C004C50004889
:1032F000414C4C005642520042454E44005057004B
:1033000050410048554D410054464100544341004E
:10331000564F43004F33004E4F320053560041503A
:103320003200415031004E4833004C504700434872
:1033300034004F3200434F3200434F002A2A2A2ADA
:103340002A2A2A2A2A2A2A2A2A2A2A2A2A2A2A2ADD
:103350002A2A2A2A2A2A2A2A2A0050415353574F16
:1033600052443A20004C4F47494E3A200041504EBB
:103370003A20002A2A2A2A2A2A2A2A2A2A2A2A2AD1
:103380002A2A2A2A2A2A2A2A2A2A2A2A2A2A2A2A9D
:1033900000C033B833B233AC33A6339D33564552F5
:1033A00053494F4E3A0053495A453A005041544808
:1033B0003A0046494C453A004E4F5F46494C45005D
:1033C0002F555047524144452E54585400DE34D1B5
:1033D00034BF34AC349E348C347D3475346634550B
:1033E0003443343F343434293418340D340134F147
:1033F000334154234654504357443D222573220DF4
:10340000004154234654504C4953540D0041542319
:103410004654505057440D0041542346545044459F
:103420004C453D222573220D0023465450524543FE
:10343000563A20004E4F2043415252494552002BEC
:103440002B2B0023465450474554504B543A2025CB
:10345000732C302C00415423465450415050455851
:10346000543D25750D004154234654504745545052
:103470004B543F0D00234654504D534700415423B5
:10348000465450524543563D25750D004154234640
:1034900054504653495A453D222573220D0041544C
:1034A00023465450545950453D300D004154234655
:1034B0005450474554504B543D222573220D004132
:1034C00054234654505055543D222573222C300D20
:1034D00000415423465450434C4F53450D00415432
:1034E000234654504F50454E3D2225733A257522B0
:1034F0002C222573222C222573222C25750D00E207
:1035000035CC35B035A235903576356F354D3542F1
:1035100035293515356D756C7469706172742F6657
:103520006F726D2D64617461006170706C696361AC
:1035300074696F6E2F6F637465742D737472656137
:103540006D00746578742F706C61696E00617070C5
:103550006C69636174696F6E2F782D7777772D664C
:103560006F726D2D75726C656E636F646564006655
:1035700072616D653D002F676574706F73745F666F
:1035800072616D655F7061727365722E7068700034
:10359000415423485454505243563D25752C2575AB
:1035A0000D00234854545052494E473A20302C00C5
:1035B00041542348545450534E443D302C25752CCF
:1035C000222573222C25752C25730D004154234888
:1035D0005454505152593D302C25752C22257322BC
:1035E0000D00415423485454504346473D302C224B
:1035F0002573222C25750D0056384C384138363845
:103600002A381A380B380538F737EB37DF37D53714
:10361000CB37C237B937B037A7379E3795378A3798
:103620008437793773376B37613757374D374537BD
:103630003D3725371B370F370637FA36EC36B936A4
:10364000A33697368B3683367B36703665365B36D7
:1036500052364154235348444E0D0041542B575386
:1036600034363F0D002B43455245473A20302C005D
:1036700041542B43455245473F0D002B434D475284
:103680003A20002B434D474C3A200041542B5753CE
:1036900034363D25750D0041542353413D25752C8D
:1036A000310D0041542B434D474C3D2252454320A0
:1036B000554E52454144220D002532686875252A31
:1036C000632532686875252A632532686875252A5E
:1036D000632532686875252A632532686875252A4E
:1036E0006325326868752568686422004154235058
:1036F000534E543F3A202C0D0A0041542B43535152
:103700000D0A3A202C002B49503A20220D0A004184
:103710005423475052533D25750D004154257322C3
:103720002573220D0041542B434744434F4E543DD3
:10373000312C224950222C222573220D0047505251
:10374000533A203000475052533A2031004154231D
:10375000475052533F0D0041542B43434C4B3F0DB8
:103760000041542B434F50533F0D005352494E4795
:103770003A20002B434D5449004154234E49545A9A
:103780003D370D00415445300D0041542B434D450C
:10379000453D310D00415423434349440D004154FC
:1037A0002343494D490D004154234347534E0D00D7
:1037B00041542343474D520D0041542343474D4D3F
:1037C0000D0041542343474D490D004154234857B0
:1037D0005245560D0041542350534E543F0D004165
:1037E000542B4353510D0A3A202C002354454D507D
:1037F0004D4541533A200041542354454D504D4FBF
:103800004E3D310D00234750525300415423504147
:103810005353573D222573220D00415423555345E0
:103820005249443D222573220D002B434744434F08
:103830004E543D312C002B43475245473A20302C03
:103840000041542B43475245473F0D002B435245FF
:10385000473A20302C0041542B435245473F0D003E
:103860004D455335005B5854525D20005B5854520F
:103870005D2000433445005B5854525D20005B5886
:1038800054525D20005048454854005B5854525DE6
:1038900020005B5854525D20004F50544F44005B51
:1038A0005854525D20005B5854525D2000566567A5
:1038B0006150756C7320433231005B5854525D2067
:1038C000005B5854525D20005741524E494E4720EC
:1038D0002D20506F737369626C65206F766572631B
:1038E000757272656E742C20313256206973204FC8
:1038F0004E20696E20616C6C2074686520736F6364
:103900006B657473005B5854525D2000F240F140C7
:10391000F040EF40EE40ED40BC40784077407640CC
:10392000694028400A40DA3F923F563F113FC63E69
:10393000783E153EAC3D343DC23CC13C613C0D3C43
:10394000923B113B813AF73976394C392573202562
:10395000732025732025732025732025732025735C
:10396000202573202573202573202573202573209F
:1039700025732025730025632025642025732025C9
:103980006420256420257320256420257320256468
:10399000202573202573202573202573202564207E
:1039A0002573202573202573202564202573202569
:1039B00073202573202573202573202573202573FC
:1039C000202573202573202573202573202573203F
:1039D000257320257320257320257320257320252A
:1039E00073202573202573202564202573202564EA
:1039F000202573202573002563202564202573204E
:103A00002564202564202573202564202573202526
:103A100064202573202573202573202573202564B9
:103A200020257320257320257320257320257320DE
:103A300025632025642025732025732025732025E8
:103A4000732025732025732025732025732025736B
:103A500020257320257320257320257320257320AE
:103A60002573202573202573202573202573202599
:103A70007320256420257320256420257320257359
:103A800000256320256420257320256420256420DB
:103A90002573202564202573202564202573202587
:103AA000732025732025732025642025732025731A
:103AB000202573202573202573202563202564206D
:103AC0002573202573202573202573202573202539
:103AD00073202573202573202573202573202573DB
:103AE000202573202573202573202573202573201E
:103AF0002573202573202573202573202573202509
:103B000073202564202573202564202573202573C8
:103B1000002563202564202573202564202564204A
:103B200025732025642025732025642025732025F6
:103B30007320257320257320256420257320257389
:103B400020257320256420257320257320257320CC
:103B500025732025732025732025732025732025A8
:103B6000732025732025732025732025732025734A
:103B7000202573202573202573202573202573208D
:103B80002573202564202573202564202573202596
:103B90007300256320256420257320256420256477
:103BA000202573202564202573202564202573207B
:103BB0002573202573202573202564202573202557
:103BC00073202573202564202573202573202573F9
:103BD000202573202573202573202573202573202D
:103BE0002573202573202573202573202573202518
:103BF00073202573202573202573202573202564C9
:103C0000202573202564202573202573002563203B
:103C10002564202573202564202564202573202514
:103C200064202573202564202573202573202573A7
:103C300020256320256420257320257320257320EB
:103C400025732025732025732025732025732025B7
:103C50007320256420257320256420257320257377
:103C600000256320256420257320256420256420F9
:103C700025732025642025732025642025732025A5
:103C80006420257320257320257320257320257338
:103C9000202573202573202573202573202573206C
:103CA0002573202573202573202573202573202557
:103CB0007320256420257320256420257320257317
:103CC00000002563202564202573202564202564B9
:103CD000202573202564202573202564202573204A
:103CE0002573202573202573202564202573202526
:103CF00073202573202573202573202563202564D8
:103D0000202573202564202573202573202573200A
:103D100025732025732025732025732025732025E6
:103D20007320257320257320257320257320257388
:103D30002025730025632025642025732025642019
:103D400025642025732025642025732025642025E3
:103D50007320257320257320256320256420257377
:103D600020257320257320256420257320257320AA
:103D700025732025642025732025732025642025A4
:103D80007320257320257320257320257320257328
:103D9000202573202573202573202573202573206B
:103DA0002573202573202573202573002563202586
:103DB0006420257320256420256420257320256434
:103DC000202573202564202573202573202573204A
:103DD0002573202564202573202573202573202535
:103DE00064202564202573202573202573202573E6
:103DF000202573202573202573202573202573200B
:103E000025732025732025732025732025732025F5
:103E100073202573002563202564202573202564E5
:103E20002025642025732025642025732025642007
:103E300025732025732025732025732025642025D4
:103E40007320257320257320256420257320257376
:103E500020257320257320257320257320257320AA
:103E60002573202573202573202573202573202595
:103E70007320257320257300256320257320257367
:103E80002025732025642025732025732025732089
:103E90002573202573202563202573202573202575
:103EA0007320257320257320257320257320257307
:103EB000202573202573202573202573202573204A
:103EC0002573202573002563202573202573202565
:103ED00073202564202573202573202573202573E6
:103EE000202573202573202573202573202573201A
:103EF0002573202573202573202573202573202505
:103F000073202573202573202573202573202573A6
:103F10000025632025732025732025732025642028
:103F200025732025732025732025732025732025D4
:103F30007320257320257320257320257320257376
:103F400020257320257320257320257320257320B9
:103F500025732025730025632025642025732025E3
:103F60006420256420257320256420257320256482
:103F700020257320257320257320256320256420A8
:103F80002573202573202573202573202573202574
:103F90007300256320256420257320256420256473
:103FA0002025732025642025732025642025732077
:103FB0002564202573202573202573202573202553
:103FC00073202573202573202573202573202573E6
:103FD0002025732025732025730025632025732059
:103FE0002573202573202573202573202573202514
:103FF00073202573202573202573202573202573B6
:104000002025732025732025730025632025732028
:1040100025732025632025732025732025732025F3
:1040200073202573202573005741524E494E472077
:104030002D204E6F7420706F737369626C652074ED
:104040006F207475726E206F6E2074776F207365A9
:104050006E736F7273206174207468652073616D74
:10406000652074696D653A2000736F636B65742019
:104070002821293A200000005741524E494E47203E
:104080002D2054686520666F6C6C6F77696E6720B1
:1040900073656E736F722063616E206E6F7420772C
:1040A0006F726B20696E2074686520646566696E46
:1040B000656420736F636B65743A20005741524EFC
:1040C000494E47202D205265646566696E697469A2
:1040D0006F6E206F662073656E736F7220736F63EF
:1040E0006B6574206465746563746564000000002A
:1040F0000000003C413941354131412E412A4116F1
:1041000041094105414D312100696E76616C696458
:1041100020646174610073656E736F72206E6F74DA
:10412000206465746563746564003F4921003F2124
:104130000041622100443021004D21004921005BF3
:104140005057525D204E6F69736520696E20496E2D
:1041500074657272757074696F6E206C696E65003B
:104160005B5057525D2064656570536C65657020C7
:10417000525443206572726F7200496E76616C69A9
:104180006420474D542076616C756500496E636FFD
:10419000727265637420696E7075742070617261EB
:1041A0006D65746572730A005B5254435D2000575D
:1041B000726F6E672074696D6520666F726D6174D1
:1041C0002E204D757374206265202264643A6868FD
:1041D0003A6D6D220A005B5254435D2000496E63C4
:1041E0006F727265637420696E707574207061728D
:1041F000616D65746572730A005B5254435D200003
:1042000057726F6E672074696D6520666F726D619D
:10421000742E204D757374206265202264643A68A0
:10422000683A6D6D3A7373220A005B5254435D2005
:1042300000BD43A8439243824375436B435B4346AF
:10424000432F431D4311430A43F842E542D842CE6F
:1042500042BE429B4295426C425B425B25303275C6
:104260003A253032753A253032755D002530327589
:104270002563253032752563253032752563253059
:1042800032752563253032752563253032752563F7
:1042900025303275006572726F720025732C2025EF
:1042A0003032752F253032752F253032752C202570
:1042B0003032753A253032753A25303275004F6EFE
:1042C000636520706572206D696E757465005B6D45
:1042D0006D5D202D2D3E20005B68683A6D6D5D2080
:1042E0002D2D3E20005B446174652C2068683A6D7A
:1042F0006D5D202D2D3E20005B4461792C20686887
:104300003A6D6D5D202D2D3E20005B253032755DB0
:10431000005B253032753A253032755D005B253003
:1043200032752C20253032753A253032755D005BB0
:10433000253032752C20253032753A253032753AC9
:10434000253032755D00496E636F7272656374204B
:10435000616C61726D206D6F6465004F6E636520E6
:10436000706572207365636F6E64005B73735D20AC
:104370002D2D3E20005B6D6D3A73735D202D2D3E1B
:1043800020005B68683A6D6D3A73735D202D2D3E99
:1043900020005B446174652C2068683A6D6D3A7347
:1043A000735D202D2D3E20005B4461792C206868D0
:1043B0003A6D6D3A73735D202D2D3E2000416C6186
:1043C000726D206D61746368657320005B53445D9A
:1043D00020496E76616C69642066696C656E616DFA
:1043E00065007C3C3E5E2B3D3F2F5B5D3B2C2A22D3
:1043F0005C00000008090000000000000000000050
:1044000000000000000000000000000000000000AC
:10441000000000000000000000000000000000009C
:10442000000000000000000102081010204080047D
:104430000810204002020408102040800102802061
:104440004004200101020408102001408040800146
:10445000020804088004100402010810050505057F
:10446000030303030101010404030606060606060E
:10447000060601040501050103020202020202010F
:1044800002020505040403040401030407070707E7
:104490000700202326292C2F32002225282B2E31FD
:1044A00034002124272A2D30336364696E6F7073C2
:1044B0007578585B004E414E494E495459494E4615
:1044C000CDCCCC3D0AD7233C17B7D13877CC2B3293
:1044D0009595E6241FB14F0A000020410000C84214
:1044E00000401C4620BCBE4CCA1B0E5AAEC59D7473
:1044F00000407A10F35A00A0724E18090010A5D49B
:10450000E80000E87648170000E40B54020000CAF7
:104510009A3B000000E1F50500008096980000003D
:1045200040420F000000A08601000000102700009C
:104530000000E803000000006400000000000A0022
:10454000000000000100000000002C76D888DC6725
:104550004F0823DFC1DFAE59E1B1B796E5E3E4537D
:10456000C63AE651997696E8E6C28426EB898C9B9A
:1045700062ED407C6FFCEFBC9C9F40F2BAA56FA53A
:10458000F490055A2AF75C936B6CF9676DC11BFCBC
:10459000E0E40D47FEF520E6B500D0ED902E0300D7
:1045A000943577050080841E080000204E0A000024
:1045B00000C80C333333330F986E12831141EF8DE3
:1045C0002114893BE65516CFFEE6DB18D1844B3823
:1045D0001BF77C1D901DA4BBE424203284725E2254
:1045E0008100C9F124ECA1E53D27D22C48351A49B8
:1045F0005453F854905559600C614D6C9D7CDF8389
:10460000C385158CE3A611241FBECFEFD1E2DEBF18
:10461000CDBF18E0A0E0B2E0E6E3F3E701E00BBFB6
:1046200002C007900D92AC37B107D9F72DE1ACE786
:10463000B8E001C01D92AF31B207E1F712E2C3E06A
:10464000D3E204C02197FE010E94F7A9C53FD1071C
:10465000C9F70E9432900C9499B90C940000CF9243
:10466000DF92EF92FF920F931F93CF93DF93CDB71B
:10467000DEB72D970FB6F894DEBF0FBECDBF8C010D
:10468000D62E85E095E10E94547E65E871E187ECC5
:1046900096E10E94CC8BD801FE013196CE010D9699
:1046A0007F012D912193E817F907D9F701E010E078
:1046B000B70185E095E10E949C7F611571058044FA
:1046C0009640ACF10F5F1F4F4AE069EB7AE0C801FA
:1046D0000E94B1AE8091B90A0A30110514F48D839D
:1046E000E7CF698558854F819091BA0A98012A5081
:1046F00031092A35310548F46A87598748872E8160
:104700002F838D839E831B86D3CF0B3421E012072A
:1047100014F00AE411E02A852B876A8759874887B5
:104720008D839E838091BB0A8F831C86C1CF64E7F3
:1047300071E187EC96E10E94A48BB70187EC96E1CA
:104740000E94278BB70185E095E10E948683813026
:1047500031F46DE471E187EC96E10E94CC8B82E745
:1047600094E10E94EB769093C50A8093C40A66E4B4
:1047700071E187EC96E10E94A48B6091C40A70916C
:10478000C50A87EC96E10E94278B8091861490E001
:104790009093C10A8093C00A4AE069EB7AE00E94D4
:1047A000B1AE8091C00A9091C10A0A973CF4809101
:1047B000B90A8093BA0A80E38093B90A49EB5AE0B8
:1047C000B70185E095E10E949F82C82E8093B80AC8
:1047D00049E758E0B70185E095E10E949F82809308
:1047E000B80A082F10E00C0D111D8091871490E07D
:1047F0009093C10A8093C00A4AE069EB7AE00E9474
:10480000B1AE8091C00A9091C10A0A973CF48091A0
:10481000B90A8093BA0A80E38093B90A49EB5AE057
:10482000B70185E095E10E949F828093B80A080F46
:10483000111D49E758E0B70185E095E10E949F828C
:104840008093B80A080F111D80918C1490E090930A
:10485000C10A8093C00A4AE069EB7AE00E94B1AED7
:104860008091C00A9091C10A0A973CF48091B90ADC
:104870008093BA0A80E38093B90A49EB5AE0B70102
:1048800085E095E10E949F828093B80A080F111D70
:1048900049E758E0B70185E095E10E949F82809347
:1048A000B80A080F111D8091891490E09093C10AF5
:1048B0008093C00A4AE069EB7AE00E94B1AE809131
:1048C000C00A9091C10A0A973CF48091B90A80937A
:1048D000BA0A80E38093B90A49EB5AE0B70185E050
:1048E00095E10E949F828093B80A080F111D49E745
:1048F00058E0B70185E095E10E949F828093B80A55
:10490000080F111D80918A1490E09093C10A809342
:10491000C00A4AE069EB7AE00E94B1AE8091C00A19
:104920009091C10A0A973CF48091B90A8093BA0A1F
:1049300080E38093B90A49EB5AE0B70185E095E13D
:104940000E949F828093B80A080F111D49E758E022
:10495000B70185E095E10E949F828093B80A080F15
:10496000111D80918B1490E09093C10A8093C00A2E
:104970004AE069EB7AE00E94B1AE8091C00A909162
:10498000C10A0A973CF48091B90A8093BA0A80E37D
:104990008093B90A49EB5AE0B70185E095E10E949E
:1049A0009F828093B80A080F111D43E658E0B701B3
:1049B00085E095E10E949F828093B80A080F111D3F
:1049C0002091DF0B3091E00B4FED5AE0B70185E00D
:1049D00095E10E94C3828093B80A080F111D43E637
:1049E00058E0B70185E095E10E949F828093B80A64
:1049F000080F111D4AE069EB7AE08D2D90E00E94CE
:104A0000B1AE49EB5AE0B70185E095E10E942B83F6
:104A10008093B80A080F111D85E095E10E94B87DCA
:104A20000F30110519F467E271E110C062E171E124
:104A300087EC96E10E94A48B6FE070E0601B710B25
:104A400087EC96E10E94DB8A6AE071E187EC96E1EF
:104A50000E94CC8B2D960FB6F894DEBF0FBECDBF53
:104A6000DF91CF911F910F91FF90EF90DF90CF904A
:104A7000089587EC96E10E94158A61E870E187EC61
:104A800096E10E94CC8B6FE670E187EC96E10E9484
:104A9000CC8B68E873E180E090E00E94D4658CE004
:104AA0009DE00E94CF478093BD0A811134C16EE51D
:104AB00070E187EC96E10E94CC8B60E08CE09DE099
:104AC0000E9441418093BD0A811113C065E470E1E9
:104AD00087EC96E10E94A48B40911E0D50911F0D12
:104AE00060911A0D70911B0D87EC96E10E94E38B8B
:104AF00006C068E270E187EC96E10E94CC8B61E031
:104B00008CE09DE00E9441418093BD0A811113C059
:104B100065E070E187EC96E10E94A48B40911E0D48
:104B200050911F0D60911A0D70911B0D87EC96E14D
:104B30000E94E38B06C06EED7FE087EC96E10E9459
:104B4000CC8B62E08CE09DE00E9441418093BD0AE5
:104B5000811113C062EC7FE087EC96E10E94A48B88
:104B600040911E0D50911F0D60911A0D70911B0DFB
:104B700087EC96E10E94E38B06C062EA7FE087EC57
:104B800096E10E94CC8B63E08CE09DE00E94414165
:104B90008093BD0A811113C063E87FE087EC96E142
:104BA0000E94A48B40911E0D50911F0D60911A0D13
:104BB00070911B0D87EC96E10E94E38B06C060E6C6
:104BC0007FE087EC96E10E94CC8B64E08CE09DE076
:104BD0000E9441418093BD0A811113C064E57FE0CA
:104BE00087EC96E10E94A48B40911E0D50911F0D01
:104BF00060911A0D70911B0D87EC96E10E94E38B7A
:104C000006C064E47FE087EC96E10E94CC8B65E00F
:104C10008CE09DE00E9441418093BD0A811113C048
:104C200068E37FE087EC96E10E94A48B40911E0D23
:104C300050911F0D60911A0D70911B0D87EC96E13C
:104C40000E94E38B06C068E27FE087EC96E10E9459
:104C5000CC8B66E08CE09DE00E9441418093BD0AD0
:104C6000811113C06BE17FE087EC96E10E94A48B79
:104C700040911E0D50911F0D60911A0D70911B0DEA
:104C800087EC96E10E94E38B06C06AE07FE087EC48
:104C900096E10E94CC8B6BEF7EE087EC96E10E9460
:104CA000CC8B8CE09DE00E9445448CE09DE00E940E
:104CB000A73F8093BD0A81112BC06EED7EE087EC8B
:104CC00096E10E94A48B4091F70F5091F80F052EAA
:104CD000000C660B770B2AE030E087EC96E10E942F
:104CE000688B6AEC7EE087EC96E10E94A48B409191
:104CF000F50F5091F60F052E000C660B770B2AE08E
:104D000030E087EC96E10E94E18A69EB7EE005C025
:104D100062EA7EE002C06CE87EE087EC96E10E94E9
:104D2000CC8B63E07EE087EC96E10E94CC8B87EC35
:104D300096E10C94298A87EC96E10E94158A6AE72D
:104D40007DE087EC96E10E94CC8B65E67DE087EC08
:104D500096E10E94CC8B2FE83AE040E95AE069E303
:104D600072E08CE09DE00E94E7438CE09DE00E94B1
:104D700045448CE09DE00E94CF478093BD0A81119D
:104D800098C062E57DE087EC96E10E94CC8B6EE1F5
:104D90008CE09DE00E946A398093A60A8111A0C030
:104DA00061E37DE087EC96E10E94CC8B68E873E1DB
:104DB00080E090E00E94D4658CE09DE00E94174066
:104DC0008093BD0A811117C065E27DE087EC96E112
:104DD0000E94A48B4091F90F5091FA0F052E000C00
:104DE000660B770B2AE030E087EC96E10E94E18ABF
:104DF00060E27DE002C06AEF7CE087EC96E10E9411
:104E0000CC8B8CE09DE00E9489408093BD0A81118B
:104E100026C066EE7CE087EC96E10E94A48B809130
:104E2000FB0F823099F038F4882369F08130E9F47F
:104E30006BED7CE016C0843079F058F08530A9F431
:104E400061EB7CE00EC061EE7CE00BC065ED7CE0C8
:104E500008C06FEC7CE005C06BEC7CE002C064E84D
:104E60007CE087EC96E10E94CC8B84E1E2E9FAE0F9
:104E7000DF011D928A95E9F7BF018CE09DE00E9459
:104E8000DE408093BD0A81110DC064E77CE087ECB1
:104E900096E10E94A48B62E97AE087EC96E10E9499
:104EA000278B1EC06AE47CE087EC96E10E94CC8BE5
:104EB00017C064E37CE087EC96E10E94CC8B67E24C
:104EC0007CE087EC96E10E94A48B4091BD0A50E003
:104ED00060E070E02AE030E087EC96E10E94688BA9
:104EE0008CE09DE00E94CC486FE07CE087EC96E18E
:104EF0000E94CC8B66E87BE087EC96E10E94CC8B2D
:104F000087EC96E10C94298A0F931F93CF93DF933C
:104F10008CE09DE00E94CF478093BD0A81114EC076
:104F200060E77BE087EC96E10E94CC8B6BE57BE051
:104F300087EC96E10E94A48B0091DF0B1091E00BAF
:104F400040914502509146022FED3AE067E472E04D
:104F50008CE09DE00E9428428093BD0A81112BC005
:104F600069E47BE087EC96E10E94A48B60910110DC
:104F70007091021087EC96E10E943D8B67E37BE025
:104F800087EC96E10E94A48B40911E0D50911F0D5D
:104F900060911A0D70911B0D87EC96E10E94E38BD6
:104FA000C1E08091011090910210883C910509F0B8
:104FB000C0E0D0E01AC062E27BE008C06CE07BE0B9
:104FC00087EC96E10E94CC8B6FEF7AE087EC96E15C
:104FD0000E94A48B4091BD0A50E060E070E02AE09E
:104FE00030E087EC96E10E94688B67EE7AE087EC10
:104FF00096E10E94CC8B8CE09DE00E94CC48CE01D3
:10500000DF91CF911F910F910895CF93DF93EC0122
:1050100065EE7AE087EC96E10E94CC8B63EE7AE055
:1050200087EC96E10E94CC8B61EE7AE087EC96E10A
:105030000E94CC8B6FED7AE087EC96E10E94CC8BDE
:1050400066EC7AE087EC96E10E94CC8B8CE09DE0E8
:105050000E94CF478093BD0A81112FC063EB7AE095
:1050600087EC96E10E94CC8B6CE38CE09DE00E9483
:105070006A398093A60A811145C08CE09DE00E94A8
:10508000104366EA7AE087EC96E10E94CC8B82E7D7
:1050900094E10E94EB76BC0187EC96E10E94278B9D
:1050A00082E794E10E946A74BC0187EC96E10E9459
:1050B000278B81E08093B10A25C060E97AE087EC14
:1050C00096E10E94CC8B63E87AE087EC96E10E943F
:1050D000A48B4091BD0A50E060E070E02AE030E02F
:1050E00087EC96E10E94688B2091C00A3091C10A3A
:1050F0002F5F3F4F3093C10A2093C00AC217D307D6
:105100000CF0A4CF8CE09DE00E94CC486BE67AE0E6
:1051100087EC96E1DF91CF910C94CC8B80911019A4
:105120009091111981FF04C082E090E00C94052851
:10513000089590E0FC013197E831F10508F04CC08A
:10514000EA59FF4F0C94F7A96CE57AE047C06EE38B
:105150007AE044C064E27AE041C063E07AE03EC0B5
:105160006BEE79E03BC061ED79E038C069EB79E046
:1051700035C061EA79E032C066E879E02FC067E6C1
:1051800079E02CC064E379E029C06CEF78E026C0B8
:1051900067EC78E023C069E978E020C06CE578E04E
:1051A0001DC066E278E01AC061EE77E017C061EAE0
:1051B00077E014C06CE477E011C062E177E00EC0E4
:1051C0006EED76E00BC06EEA76E008C062E776E04E
:1051D00005C065E476E002C06DE376E087EC96E119
:1051E0000C94CC8B0F931F9361E276E087EC96E1F1
:1051F0000E94CC8B8CE09DE00E94CF478093BD0A3B
:10520000811130C06BE076E087EC96E10E94CC8B98
:1052100068EF75E087EC96E10E94CC8B40912A0202
:1052200050912B020AE012E027E132E06CE272E0DA
:105230008CE09DE00E94D3468093BD0A882351F004
:1052400067ED75E087EC96E10E94A48B8091BD0A22
:105250000E94992843E06CE271E08BEC96E10E9499
:10526000388C06C061EC75E087EC96E10E94CC8B2F
:1052700069EA75E087EC96E10E94CC8B8CE09DE0BA
:105280001F910F910C94CC48FF920F931F93CF93D3
:10529000DF938C01F12CC1E0D0E00C171D070CF45A
:1052A0006BC0F11069C067EA7AE08BEC96E10E946E
:1052B00009906BE875E087EC96E10E94CC8B6EE775
:1052C00075E087EC96E10E94A48B67EA7AE087ECB0
:1052D00096E10E94278B6CE675E087EC96E10E94D0
:1052E000A48B8BEC96E10E942690482F50E060E062
:1052F00070E02AE030E087EC96E10E94688B6EE473
:1053000075E087EC96E10E94CC8B8BEC96E10E94D5
:10531000828F8093BC0A882391F08130F1F469E296
:1053200075E087EC96E10E94CC8B43E06CE271E083
:105330008BEC96E10E946E8CFF24F394AECF6AE36F
:1053400075E087EC96E10E94CC8B43E06CE271E063
:105350008BEC96E10E94388C0DC06EE175E087EC15
:1053600096E10E94CC8B41E064EF71E08BEC96E11A
:105370000E946E8C219691CFDF91CF911F910F915A
:10538000FF900895CF93DF9389EB99E00E94534EED
:1053900089EB99E00E94F24E89EB99E00E94D84E89
:1053A0008EE798E00E947C4C8EE798E00E94364D94
:1053B0008EE798E00E941C4D80E599E00E940A501B
:1053C00080E599E00E94A95080E599E00E948F5005
:1053D00087EE98E00E94C75187EE98E00E946652DF
:1053E00087EE98E00E944C5282E29AE00E940C4BB9
:1053F00082E29AE00E94884B82E29AE00E947B4B14
:105400004EE352E061E088EC9AE00E943B3568E0B0
:1054100088EC9AE00E94EB2CC9EBD9E02B813C810F
:105420004D815E8167E888EC9AE00E9414312F81FB
:10543000388549855A856CE888EC9AE00E941431D9
:105440002F85388949895A8966E988EC9AE00E9453
:1054500014312B853C854D855E8561E988EC9AE0A9
:105460000E941431CEE7D8E02B813C814D815E81D2
:1054700060E188EC9AE00E9414312F8138854985DB
:105480005A8565E188EC9AE00E9414312B853C85B1
:105490004D855E856AE188EC9AE00E9414312F8583
:1054A000388949895A896FE188EC9AE00E94143161
:1054B00080E794E10E949571482F50E064E388EC06
:1054C0009AE00E94B12E4091910A50E06DE388EC81
:1054D0009AE00E94B12E82E794E10E946A74AC01C6
:1054E0006BE388EC9AE00E94403188EC9AE00E94DD
:1054F000F32C0E9484278093B70A682F80E692E0FD
:105500000E942F2360ED77E080E090E00E94D46558
:105510004EE352E061E088EC9AE00E943B3568E09F
:1055200088EC9AE00E94EB2CC7EED8E02B813C81FE
:105530004D815E8164ED88EC9AE00E9414312F81E8
:10554000388549855A8569ED88EC9AE00E941431C6
:105550002B853C854D855E856EED88EC9AE00E943A
:1055600014312F85388949895A8963EE88EC9AE08D
:105570000E941431C0E5D9E02B813C814D815E81D0
:105580006CE988EC9AE00E9414312F8138854985B6
:105590005A8561EA88EC9AE00E9414312B853C859B
:1055A0004D855E8566EA88EC9AE00E9414312F856D
:1055B000388949895A896BEA88EC9AE00E9414314B
:1055C0002B813C814D815E816CE988EC9AE00E94E0
:1055D00014312F81388549855A8561EA88EC9AE033
:1055E0000E9414312B853C854D855E8566EA88ECEA
:1055F0009AE00E9414312F85388949895A896BEACB
:1056000088EC9AE00E94143188EC9AE00E94F32C16
:105610000E9484278093B70A682F80E692E0DF918A
:10562000CF910C942F2387EC96E10E94158A82E794
:1056300094E10E945D780E9439250E949B268AE0B1
:1056400090E00E9444292FE83AE040E95AE069E3FB
:1056500072E08CE09DE00E94E7438CE09DE00E94B8
:10566000454480913D0290E00E94052882E794E144
:105670000E94EB76BC0187EC96E10E94278B6EE0DE
:1056800075E087EC96E10E94CC8B85E095E10E9465
:10569000547E8091B60A882399F060E672E085E036
:1056A00095E10E94D7808093B80A813019F461E0B7
:1056B00075E002C060EF74E087EC96E10E94CC8B4D
:1056C00060E672E085E095E10E9486838093B80AE7
:1056D000813019F463EE74E002C062ED74E087EC8F
:1056E00096E10E94CC8B6CEB74E087EC96E10E9413
:1056F000A48B609143027091440287EC96E10E9472
:105700003D8B48ED53E060E672E085E095E10E9454
:105710002B838093B80A813019F46DEA74E002C0DB
:1057200062E974E087EC96E10E94CC8B6DE074E056
:1057300087EC96E10E94CC8B68E873E087EC96E1F9
:105740000E94CC8B63E073E087EC96E10E94CC8BE7
:1057500087EC96E10E94158A1092C70A1092C60A39
:1057600008950F930E94A5656093B20A7093B30ADF
:105770008093B40A9093B50A8091C60A9091C70AA3
:1057800001969093C70A8093C60A66EF72E087EC91
:1057900096E10E94A48B6091C60A7091C70A87ECBB
:1057A00096E10E943D8B8BEC96E10E9426908093BF
:1057B000910A0E94C2290E94F22862EB72E087ECF3
:1057C00096E10E94CC8B20E041E067E474E082E740
:1057D00094E10E94B67B8091B10A0E948E286EE609
:1057E00072E087EC96E10E94CC8B8091430290910D
:1057F00044022091BE0A3091BF0A821B930B059789
:105800008A30910514F48FE090E09093C30A80935E
:10581000C20A61E672E087EC96E10E94A48B609177
:10582000C20A7091C30A87EC96E10E943D8B809179
:10583000C20A9091C30A6CE370E00E94A2A99093FF
:10584000C10A8093C00A4AE069EB7AE00E94B1AED7
:105850008091C00A9091C10A0A973CF48091B90ADC
:105860008093BA0A80E38093B90A8091B90A809341
:105870005D028091BA0A80935E028091C20A909183
:10588000C30A2CE330E0B9010E94A2A9CB01B901FF
:105890000E94A2A99093C10A8093C00A4AE069EBD2
:1058A0007AE00E94B1AE8091C00A9091C10A0A9735
:1058B0003CF48091B90A8093BA0A80E38093B90AD4
:1058C0008091B90A80935A028091BA0A80935B0250
:1058D0008091C20A9091C30A20E13EE0B9010E9482
:1058E000A2A9CB01B9010E94A2A99093C10A8093F9
:1058F000C00A4AE069EB7AE00E94B1AE8091C00A2A
:105900009091C10A0A973CF48091B90A8093BA0A2F
:1059100080E38093B90A8091B90A809357028091FD
:10592000BA0A809358026AE472E087EC96E10E941A
:10593000CC8B68E472E087EC96E10E94A48B64E56E
:1059400072E087EC96E10E949B8A66E472E087EC45
:1059500096E10E94CC8B82E794E10E946A74BC01BC
:1059600087EC96E10E94278B87EC96E10E94298ABA
:1059700003E020E040E064E572E080E794E10E940B
:105980005F7387EC96E10E94158A6DEB71E087ECFE
:1059900096E10E94CC8B6EEA71E087EC96E10F9164
:1059A0000C94CC8B67E082E29AE00E94DE4A66E0CB
:1059B00089EB99E00E94204E65E080E599E00E9425
:1059C000D74F64E087EE98E00E94945163E08EE741
:1059D00098E00C94494CFC01668B6F73928D907823
:1059E000692B628F0895CF92DF92EF92FF920F930F
:1059F0001F93CF93DF93EC0187EC96E10E94488AD6
:105A00000FE110E060E08DE30E9417690150110979
:105A1000C9F760E08DE00E94176960E08AE00E94AB
:105A200017698981813021F460E080E794E00CC03F
:105A3000811104C060E08EE794E006C0823009F076
:105A400095C060E08DE894E00E94246960E08FE9F1
:105A500094E00E94246960E089EA94E00E9424694D
:105A60007E0189EEE81A8EEFF80AF70160817181F4
:105A700080E090E000E02AE030E040E050E00E946A
:105A8000346960E08DE00E94176960E08AE00E945E
:105A9000176960E082EB94E00E9424696A8D70E0EF
:105AA00080E090E02AE030E040E050E00E9434697D
:105AB00060E08DE00E94176960E08AE00E9417694B
:105AC00060E080EC94E00E94246967966E0100E03B
:105AD00010E0F7018081918160E00817190740F418
