:100000000C94F01B0C94757D0C94A67D0C94D77DFC
:100010000C940B7E0C943F7E0C94707E0C94A17E0D
:100020000C94D27E0C941A1C0C941A1C0C941A1C5E
:100030000C94B13F0C941A1C0C941A1C0C940D4097
:100040000C941A1C0C941A1C0C941A1C0C941A1C58
:100050000C941A1C0C941A1C0C941A1C0C94E83F57
:100060000C941A1C0C9422430C941A1C0C941A1C09
:100070000C941A1C0C941A1C0C941A1C0C941A1C28
:100080000C941A1C0C941A1C0C941A1C0C941A1C18
:100090000C9463430C941A1C0C941A1C0C949381BA
:1000A0000C941A1C0C941A1C0C941A1C0C941A1CF8
:1000B0000C941A1C0C941A1C0C941A1C0C941A1CE8
:1000C0000C941A1C0C941A1C0C941A1CE520E820A1
:1000D000EB20EE20F120F420F720FA20FD20002173
:1000E0000321062109210C210F211221152118219C
:1000F0001B211E212121242127212A21F037F3371A
:10010000F637F937FC37FF370238424F514F704FFF
:100110007F4F8E4F9D4FAC4F21502F503D504B5035
:100120004E505C506A50785086509450A250B05057
:10013000BE50CC503A5453546B547C548654A05403
:100140000855235E265E295E305E395E425E4B5E58
:100150005E7D607D627D647D667D6B7D687D6A7D90
:10016000DC83EA83F183F383F583F783F983362E07
:100170002057616B6520757021210A0A0058585874
:1001800058585858585858585858585858585858EF
:1001900058585858585858585858585858585858DF
:1001A00058585858585858585858585858585858CF
:1001B00058585858585858585858585858585858BF
:1001C00058585858585858585858585858585858AF
:1001D000585858585858585858585858585858589F
:1001E000585858585858585858585858585858588F
:1001F000585858585858585858585858585858587F
:10020000585858585800352E20456E746572206431
:1002100065657020736C6565702E2E2E00767800F3
:1002200076780076780076780076780076780076B2
:10023000780076780076780076780076767676762E
:10024000767676767676767676767676767676764E
:10025000767676767676767676767676767676763E
:10026000767676767676767676767676767676762E
:10027000767676767676767676767676767676761E
:10028000767676767676767676767676767676760E
:1002900076767676767676767676767676767676FE
:1002A00076767676767676767676767676767676EE
:1002B0007676767676767676767676767676760054
:1002C0007C7C7C7C7C7C7C7C7C7C7C7C7C7C7C7C6E
:1002D0007C7C7C7C7C7C7C7C7C7C7C7C7C7C7C7C5E
:1002E0007C7C7C7C7C7C7C7C7C7C7C7C7C7C7C7C4E
:1002F0007C7C7C7C7C7C7C7C7C7C7C7C7C7C7C7C3E
:100300007C7C7C7C7C7C7C7C7C7C7C7C7C7C7C7C2D
:100310007C7C7C7C7C7C7C7C7C7C7C7C7C7C7C7C1D
:100320007C7C7C7C7C7C7C7C7C7C7C7C7C7C7C7C0D
:100330007C7C7C7C7C7C7C7C7C7C7C7C7C7C7C7CFD
:100340007C7C7C7C005E5E5E5E5E5E5E5E5E5E5EB3
:100350005E5E5E5E5E5E5E5E5E5E5E5E5E5E5E5EBD
:100360005E5E5E5E5E5E5E5E5E5E5E5E5E5E5E5EAD
:100370005E5E5E5E5E5E5E5E5E5E5E5E5E5E5E5E9D
:100380005E5E5E5E5E5E5E5E5E5E5E5E5E5E5E5E8D
:100390005E5E5E5E5E5E5E5E5E5E5E5E5E5E5E5E7D
:1003A0005E5E5E5E5E5E5E5E5E5E5E5E5E5E5E5E6D
:1003B0005E5E5E5E5E5E5E5E5E5E5E5E5E5E5E5E5D
:1003C0005E5E5E5E5E5E5E5E5E007772697465694B
:1003D0006E672069732068617665696E6720657253
:1003E000726F7273007772697465696E67206973E2
:1003F000204F4B0066696C65204E4F542063726538
:10040000617465640066696C65206372656174651A
:10041000640066696C65204E4F542064656C657499
:1004200065640066696C652064656C65746564006C
:1004300053445F434152445F4152484956455F56D9
:10044000315F5254435F4F5441505F34475F4241E4
:100450005245424F4E4553002D2D2D2D2D2D2D2D26
:100460002D2D2D2D2D2D2D2D2D2D2D2D2D2D2D2DBC
:100470002D2D2D2D2D0050726F6772616D207665C8
:100480007273696F6E3A200050726F6772616D20EF
:1004900069643A20002D2D2D2D2D2D2D2D2D2D2D46
:1004A0002D2D2D2D2D2D2D2D2D2D2D2D2D2D2D2D7C
:1004B0002D2D0052455354415254494E4700524548
:1004C00050524F4752414D4D494E47204F4B0052DD
:1004D0004550524F4752414D4D494E47204552528B
:1004E0004F5200332E20537769746368204F46467D
:1004F000203447206D6F64756C6500312E203447C1
:10050000206D6F64756C65206E6F742073746172FA
:1005100074656400322E312E2046545020636F6E75
:100520006E656374696F6E206572726F723A200037
:10053000434D4545206572726F723A2000322E336A
:100540002E204572726F722063616C6C696E672039
:1005500027667470436C6F736553657373696F6E50
:10056000272066756E6374696F6E2E206572726FD8
:10057000723A2000322E332E2046545020636C6F86
:1005800073652073657373696F6E204F4B00322E55
:10059000322E204572726F722063616C6C696E67D7
:1005A000202766747055706C6F6164272066756EC5
:1005B0006374696F6E2E204572726F723A2000204C
:1005C000730055706C6F61642074696D653A20002A
:1005D000322E322E2055706C6F6164696E67205325
:1005E000442066696C6520746F2046545020736502
:1005F0007276657220646F6E65212000322E312E76
:1006000020465450206F70656E2073657373696F58
:100610006E204F4B00312E203447206D6F64756C77
:10062000652072656164792E2E2E00352E20537759
:1006300069746368204F4646203447206D6F6475A7
:100640006C65003447206D6F64756C65206E6F7447
:100650002073746172746564004F54412072657137
:1006600075657374206661696C65642E20457272CD
:100670006F7220636F64653A20003D3D3E205265F5
:100680007175657374204F54412E2E2E00312E202B
:100690003447206D6F64756C652072656164792ED6
:1006A0002E2E005354415254494E47204F5441502E
:1006B0002056455253494F4E20434845434B007501
:1006C0006E6B6E6F776E006572726F7220646F77FB
:1006D0006E6C6F6164696E672062696E6172792009
:1006E00066696C653A2073697A65206D69736D611E
:1006F000746368006572726F7220646F776E6C6FDE
:100700006164696E672062696E6172792066696CE6
:10071000653A206E6F206D6F726520726574726924
:1007200065732067657474696E6720646174610025
:100730006572726F7220646F776E6C6F6164696E40
:10074000672062696E6172792066696C653A20651E
:1007500072726F722077726974696E6720534400F9
:100760006572726F7220646F776E6C6F6164696E10
:10077000672062696E6172792066696C653A2070E3
:1007800061636B65742073697A65206D69736D614F
:10079000746368006572726F7220646F776E6C6F3D
:1007A0006164696E672062696E6172792066696C46
:1007B000653A206572726F72202067657474696E85
:1007C00067207061636B65742073697A6500657278
:1007D000726F7220646F776E6C6F6164696E6720F0
:1007E00062696E6172792066696C653A2065727221
:1007F0006F72206D6F64756C652072657475726EB2
:1008000073206572726F7220636F64652061667415
:1008100065722072657175657374696E67206461B5
:100820007461006572726F7220646F776E6C6F61B5
:1008300064696E672062696E6172792066696C65B1
:100840003A206572726F72206F70656E696E6720F4
:100850007468652047455420636F6E6E65637469E4
:100860006F6E006572726F7220646F776E6C6F616D
:1008700064696E672062696E6172792066696C6571
:100880003A206572726F722073657474696E6720A6
:1008900074686520706F696E746572206F6620746D
:1008A00068652066696C65006572726F7220646F9E
:1008B000776E6C6F6164696E672062696E617279D0
:1008C0002066696C653A206572726F72206F706580
:1008D0006E696E67207468652066696C6500657274
:1008E000726F7220646F776E6C6F6164696E6720DF
:1008F00062696E6172792066696C653A2065727210
:100900006F72206372656174696E67207468652018
:1009100066696C6520696E205344006572726F725F
:1009200020646F776E6C6F6164696E672062696EB8
:100930006172792066696C653A205344206E6F7449
:100940002070726573656E74006572726F722064D8
:100950006F776E6C6F6164696E672062696E617239
:10096000792066696C653A2072656164696E6720FA
:100970007468652066696C652073697A65006572C4
:10098000726F7220646F776E6C6F6164696E67203E
:1009900062696E6172792066696C653A207365726E
:1009A0007665722066696C652073697A6520697363
:1009B000207A65726F0066696C652073697A6520BC
:1009C000646F6573206E6F74206D61746368206955
:1009D0006E20555047524144452E54585420616E64
:1009E000642073657276657200696E76616C696405
:1009F0002070726F6772616D2076657273696F6EB9
:100A0000206E756D626572006E6F202756455253D9
:100A1000494F4E27207061747465726E20666F7541
:100A20006E64006E6F202753495A45272070617409
:100A30007465726E20666F756E64006E6F2027504D
:100A400041544827207061747465726E20666F751A
:100A50006E6400274E4F5F46494C4527206973203E
:100A60007468652066696C656E616D65006E6F20E7
:100A70002746494C4527207061747465726E206664
:100A80006F756E640066696C656E616D6520697373
:100A900020646966666572656E7420746F20372005
:100AA0006279746573006572726F72206F70656E23
:100AB000696E67204654502073657373696F6E00CA
:100AC0006572726F7220646F776E6C6F6164696EAD
:100AD0006720555047524144452E545854005344C2
:100AE000206E6F742070726573656E7400322E20F4
:100AF000537769746368204F4646203447206D6FF2
:100B000064756C65004572726F7220636F64653A3C
:100B100020003447206D6F64756C65206E6F742003
:100B20007374617274656400312E203447206D6FD8
:100B300064756C6520726561647900342E2053778A
:100B400069746368204F4646203447206D6F647592
:100B50006C65004572726F7220636F64653A2000A5
:100B60003447206D6F64756C65206E6F74207374EC
:100B70006172746564004661696C65642E2045721B
:100B8000726F7220636F64653A2000446F6E652E49
:100B9000204854545020636F64653A200053656EBA
:100BA00064696E6720746865206672616D652E2EBB
:100BB0002E00312E203447206D6F64756C652072D5
:100BC000656164792E2E2E00585858585858585838
:100BD0005858585858585858585858585858585895
:100BE0005858585858585858585858585858585885
:100BF0005858585858585858585858585858585875
:100C00005858585858585858585858585858585864
:100C10005858585858585858585858585858585854
:100C20005858585858585858585858585858585844
:100C30005858585858585858585858585858585834
:100C40005858585858585858585858585858585824
:100C500000322E20537769746368204F4646203453
:100C600047206D6F64756C65004572726F7220630A
:100C70006F64653A20003447206D6F64756C6520A1
:100C80006E6F74207374617274656400312E342E3B
:100C9000204572726F722063616C6C696E672027E9
:100CA0006765744F70657261746F72272066756E28
:100CB0006374696F6E00312E342E204F706572613F
:100CC000746F723A2000312E332E204572726F728B
:100CD0002063616C6C696E6720276765744E65746C
:100CE000776F726B54797065272066756E637469CF
:100CF0006F6E00556E6B6E6F776E206F72206E6F29
:100D0000742072656769737465726564004C54453C
:100D1000004853445041005743444D41004547501B
:100D20005253004750525300312E332E204E6574DB
:100D3000776F726B20747970653A2000312E322EF5
:100D4000204572726F722063616C6C696E67202738
:100D500067657452535349272066756E6374696FD3
:100D60006E002064426D00312E322E2052535349C2
:100D70003A2000312E312E204D6F64756C65206352
:100D80006F6E6E656374656420746F206E65747732
:100D90006F726B00312E203447206D6F64756C6567
:100DA000207265616479005374617274696E6720A2
:100DB000494E464F5F34475F4E4554005858585887
:100DC00058585858585858585858585858585858A3
:100DD0005858585858585858585858585858585893
:100DE0005858585858585858585858585858585883
:100DF0005858585858585858585858585858585873
:100E00005858585858585858585858585858585862
:100E10005858585858585858585858585858585852
:100E20005858585858585858585858585858585842
:100E30005858585858585858585858585858585832
:100E4000585858580058585858585858585858587A
:100E50005858585858585858585858585858585812
:100E60005858585858585858585858585858585802
:100E700058585858585858585858585858585858F2
:100E800058585858585858585858585858585858E2
:100E900058585858585858585858585858585858D2
:100EA00058585858585858585858585858585858C2
:100EB00058585858585858585858585858585858B2
:100EC000585858585858585858585858580034472F
:100ED000206D6F64756C65206E6F74207374617221
:100EE00074656400312E392E2054656D7065726111
:100EF00074757265204552524F52002043656C73E1
:100F0000697573206465677265657300312E396297
:100F10002E2054656D70657261747572653A20009B
:100F2000312E39612E2054656D7065726174757251
:100F30006520696E74657276616C3A2000312E38D6
:100F40002E2053686F772041504E3A00312E372EB5
:100F5000204943434944204552524F5200312E37D5
:100F60002E2049434349443A2000312E362E204951
:100F70004D5349204552524F5200312E362E2049B2
:100F80004D53493A2000312E352E20494D454920F8
:100F90004552524F5200312E352E20494D45493A87
:100FA0002000312E342E205265766973696F6E20D1
:100FB0006964656E74696669636174696F6E204502
:100FC00052524F5200312E342E2052657669736989
:100FD0006F6E206964656E74696669636174696FB8
:100FE0006E3A2000312E332E204D6F64656C2069DF
:100FF00064656E74696669636174696F6E204552D9
:10100000524F5200312E332E204D6F64656C206993
:1010100064656E74696669636174696F6E3A200015
:10102000312E322E204D616E756661637475726566
:1010300072206964656E74696669636174696F6E54
:10104000204552524F5200312E322E204D616E7586
:101050006661637475726572206964656E74696631
:1010600069636174696F6E3A2000312E312E204819
:1010700061726477617265207265766973696F6EFB
:10108000204552524F5200312E312E204861726459
:1010900077617265207265766973696F6E3A2000B8
:1010A0003447206D6F64756C652072656164790AE0
:1010B0000058585858585858585858585858585808
:1010C00058585858585858585858585858585858A0
:1010D0005858585858585858585858585858585890
:1010E0005858585858585858585858585858585880
:1010F0005858585858585858585858585858585870
:10110000585858585858585858585858585858585F
:10111000585858585858585858585858585858584F
:10112000585858585858585858585858585858583F
:101130005858585858585858580074696D653A208E
:1011400000207673207573657220736179732000B7
:101150003A20617069207361797320004572726F63
:10116000722073656E736F7220747970652026200B
:101170006E6669656C6473206D69736D6174636814
:1011800020666F7220696E64657820005B4652416C
:101190004D455D2000207673207573657220736164
:1011A000797320003A20617069207361797320009F
:1011B0004572726F722073656E736F7220747970EE
:1011C00065206D69736D6174636820666F72206954
:1011D0006E64657820005B4652414D455D200020DD
:1011E000767320003A20004572726F722073656E2C
:1011F000736F722074797065206D69736D617463AB
:101200006820666F7220696E64657820005B4652C4
:10121000414D455D20000101010101010101010174
:1012200001010101010101010101010101010101AE
:10123000010101010101010101010101010101019E
:101240000202030301010101010101020101010187
:101250000303010101030101010101010101010277
:10126000010101010101010101010101010101016E
:10127000010101010101010101010101010101015E
:10128000010101010101010101010101010101014E
:10129000010101010101010101010101010101013E
:1012A000010101010101010101010101010101012E
:1012B000010101010101010101010101010101011E
:1012C000010101010101010101010101010101010E
:1012D00001010101010101010101010101010101FE
:1012E00001010101010101010101010101010101EE
:1012F00001010101010101010101010101010101DE
:1013000001010102020202020202020404010102BE
:1013100002020202020202020202020202020202AD
:1013200002020202020202020202020202010101A0
:10133000010101010000010002010303030000019B
:10134000010201040300000303020202040202027C
:10135000020401000000000000000000020202027E
:101360000202000000000000000000000000000079
:101370000000000000000000000000000000040069
:10138000000000000000000000020202020202024F
:10139000020202020202020202020202020202022D
:1013A000020202020202020202020202020202021D
:1013B000020202020202020202020202020202020D
:1013C00002020202020202020202020202020202FD
:1013D00002020202020202020202020202020202ED
:1013E00002020202020202020202020202020202DD
:1013F000081A031AFD19F619F119EC19E619DF1983
:10140000D919D319CE19C919C319BD19B719B119E9
:10141000AB19A619A1199C19971992198D19881938
:1014200083197E19791974196F196A196519601968
:101430005A1953194A1942193B1934192D192719E8
:1014400020191A1911190B190519FF18F818F21893
:10145000EC18E618E018DA18D618D218CD18C91802
:10146000C618C218BD18B818B418B018A818A4180F
:101470009D18991898189718931890188C18861812
:1014800081187C187918761872186D186918661802
:101490006518641863186218611860185F185E1880
:1014A0005D1854184A18461841183C183718361851
:1014B0003518341833183218311830182F182E18E0
:1014C0002D182C182B182A18291828182718261810
:1014D0002518241823182218211820181F181E1840
:1014E0001D181C181B181718161811180B1805189A
:1014F000021801180018FF17FE17FD17F717F1174C
:10150000EB17E517DF17DA17D517D017CB17C61764
:10151000C117BC17B717B217AD17A817A3179E1797
:10152000991794178E17881782177C1776177117DB
:101530006C17671762175D17581753174E1749171F
:1015400044173F173A17351730172B1725171F1752
:10155000191713170D1708170317FE16F916F416A7
:10156000EF16EA16E516E016DB16D516CF16C916E5
:10157000C316BD16B716B116AB16A5169F1699164B
:1015800093168D16871681167C16771672166D16B1
:10159000681662165C16561650164A164516401600
:1015A0003B16361631162C16271622161D1618163F
:1015B00012160C1606160016FA15F415EE15E81597
:1015C000E215DC15D615D015CA155443375F440013
:1015D0005443375F43005443375F42005443375FFF
:1015E00041004449535F44004449535F4300444928
:1015F000535F42004449535F41005446415F4500F8
:101600005446415F44005446415F43005446415FA5
:1016100042005446415F410053535F450053535FBE
:10162000440053535F430053535F420053535F41A1
:101630000053425F450053425F440053425F430002
:1016400053425F420053425F41005443365F4500BE
:101650005443365F44005443365F43005443365F7F
:1016600042005443365F410043555F450043555F98
:10167000440043555F430043555F420043555F417B
:10168000005341315F45005341315F4400534131C4
:101690005F43005341315F42005341315F4100439A
:1016A0004E315F4500434E315F4400434E315F434E
:1016B00000434E315F4200434E315F410054433599
:1016C0005F45005443355F44005443355F43005445
:1016D00043355F42005443355F4100544D5F450040
:1016E000544D5F4400544D5F4300544D5F420054DD
:1016F0004D5F4100544E5F4500544E5F4400544ED0
:101700005F4300544E5F4200544E5F4100544334E7
:101710005F45005443345F44005443345F430054F6
:1017200043345F42005443345F410054445F4500FA
:1017300054445F440054445F430054445F420054A7
:10174000445F410053415F450053415F44005341B2
:101750005F430053415F420053415F4100434E5F8E
:101760004500434E5F4400434E5F4300434E5F429B
:1017700000434E5F41005443335F45005443335FA1
:1017800044005443335F43005443335F42005443A7
:10179000335F4100504D5F4500504D5F4400504D58
:1017A0005F4300504D5F4200504D5F410052585F13
:1017B000450052585F440052585F430052585F4200
:1017C0000052585F410050485F450050485F440058
:1017D00050485F430050485F420050485F4100540A
:1017E00043325F45005443325F44005443325F4309
:1017F000005443325F42005443325F410000000016
:10180000000050530056424F4F54005650524F471D
:10181000005641504900005453540000000000009D
:1018200000000000000000000000000000000000B8
:101830000000000000000050444F500056444F503C
:101840000048444F5000414C5400434F55525345BB
:101850005F4F470053504545445F4F47000000002D
:101860000000000000005553004C555800505245F0
:10187000530048554D0054460054430050415254C3
:1018800000504D313000504D325F3500504D310029
:10189000524200554944000000535452004D494CF7
:1018A0004C49530041434300494E5F54454D50005D
:1018B00052414D00474D540054494D450044415458
:1018C00045004E4944004E41004D414300525353A0
:1018D0004900475053004241540043425F46500084
:1018E00043425F54500043425F464C0043425F46D0
:1018F000520043425F56530043425F52504D004DE9
:10190000425F4952004D425F4852004D425F444998
:10191000004D425F434F494C5300454D5F544300D7
:10192000454D5F48444F00454D5F434C00454D5F7A
:101930004E4F3300454D5F4E483400454D5F4348A0
:101940004C00454D5F434F4E4400454D5F4445506C
:10195000544800454D5F4F525000454D5F50480080
:101960004F505F45004F505F44004F505F43004F62
:10197000505F42004F505F41004F4D5F45004F4D5B
:101980005F44004F4D5F43004F4D5F42004F4D5F3E
:1019900041004F535F45004F535F44004F535F4337
:1019A000004F535F42004F535F41005443315F4546
:1019B000005443315F44005443315F43005443318A
:1019C0005F42005443315F410055535F440055531B
:1019D0005F41004C55585F44004C55585F410050E2
:1019E0005245535F440048554D5F440054465F44A0
:1019F0000054435F4400505245535F410048554DE9
:101A00005F410054465F410054435F4100010101C2
:101A100001010101010101010101010101010101B6
:101A200001010101010101010101010101010101A6
:101A30000101010101010102020303010101010190
:101A4000010102010101010303010101030101017F
:101A50000101010101010201010101010101010175
:101A60000101010101010101010101010101010166
:101A70000101010101010101010101010101010156
:101A80000101010101010101010101010101010146
:101A90000101010101010101010101010101010136
:101AA0000101010101010101010101010101010126
:101AB0000101010101010101010101010101010116
:101AC0000101010101010101010101010101010106
:101AD00001010101010101010101010101010101F6
:101AE00001010101010101010101010101010101E6
:101AF00001010101010101010101010101010101D6
:101B000001010101010101010101010101020202C2
:101B100002020202020404010102020202020202A3
:101B20000202020202020202020202020202020295
:101B30000202020202020201010101010101000090
:101B4000010002010303030000010102010403007C
:101B50000003030202020402020202040100000068
:101B60000000000000000202020202020101010264
:101B7000020202000000000000000000000000005F
:101B80000000000000000000040000000000000051
:101B9000000000020202020202020202020202022B
:101BA0000202020202020202020202020202020215
:101BB0000202020202020202020202020202020205
:101BC00002020202020202020202020202020202F5
:101BD00002020202020202020202020202020201E6
:101BE00001020201020302020001010102020202DB
:101BF00003010203030303030303020202010202BF
:101C000002020202010202020103010203E122DCDC
:101C100022D622CF22CA22C522BF22B822B222ACAB
:101C200022A722A2229F229A22952290228B2285ED
:101C3000227F22792273226E22692264225F225C33
:101C4000225922562250224A2244223E223822324F
:101C5000222C22262220221A2214220E22082202BC
:101C600022F921F321ED21E721E021DA21D421CE4F
:101C700021C821C221BE21BA21B521B121AE21AA9C
:101C800021A521A0219C21982190218C21852181B1
:101C90002180217F217B21782174216E216921649B
:101CA0002161215E215A21552151214E214D214C86
:101CB000214B214A21492148214721462145213CE8
:101CC0002132212E21292124211F211B2113210B07
:101CD0002107210321FF20FB20F720F620F520F427
:101CE00020F320F220F120F020EF20EE20ED20EC78
:101CF00020EB20EA20E920E820E720E620E520E4A8
:101D000020E320DF20DE20D920D320CD20CA20C927
:101D100020C820C720C620C520C020BB20B620B1C7
:101D200020AB20A5209F20992093208D2087208103
:101D3000207B2075206F20692063205D2057205173
:101D4000204B2045203F20392033202D20272021E3
:101D5000201B2015200F2009200320FD1FF71FF155
:101D60001FEC1FE71FE21FDD1FD71FD11FCB1FC5B1
:101D70001FC01FBB1FB61FB11FAC1FA71FA21F9DF7
:101D80001F981F931F8E1F891F831F7D1F771F7131
:101D90001F6B1F651F5F1F591F541F4F1F4A1F4591
:101DA0001F3F1F391F331F2D1F271F211F1B1F15EB
:101DB0001F121F0E1F0B1F071F021FFD1EF91EF60D
:101DC0001EF31EEF1EEB1EE61EE11EDE1EDB1ED8FE
:101DD0001ED41ED11ECB1EC41EBD1EB61EB01EAA12
:101DE0001EA41E9E1E981E901E861E7D1E771E70AF
:101DF0001E6A1E641E5E1E571E511E4B1E431E3A57
:101E00001E321E291E211E1B1E141E0D1E4750535E
:101E10005F5354004750535F5350004750535F483F
:101E2000004750535F4C4F43004750535F4744496E
:101E300052004750535F475350004750535F414350
:101E40005350004750535F4353500048495F575326
:101E50000057435F5753005742545F575300414464
:101E60005F57530041485F57530044505F5753003A
:101E700054454D5F57530052485F575300505245E9
:101E800053535F57530050524553534C5F575300C1
:101E9000505245535F57530054415F575300544EBF
:101EA0005F57530054435F57530050535F575300DD
:101EB00053545F575300534E545F5753005352547B
:101EC0005F5753005353485F57530053525F575364
:101ED0000053540053564F005A4F00595400585461
:101EE00000434D5053004143574400435744005072
:101EF0005354005049005054005753530041574722
:101F0000530041574744004157530057530041572E
:101F100044005744005443375F44005443375F4301
:101F2000005443375F42005443375F41004450330D
:101F30005F44004450335F43004450335F420044E9
:101F400050335F41004C545F44004C545F43004C9D
:101F5000545F42004C545F41004254325F4400429F
:101F600054325F43004254325F42004254325F4178
:101F7000005443365F44005443365F4300544336B5
:101F80005F42005443365F410057505F4400575052
:101F90005F430057505F420057505F410041505F20
:101FA000440041505F430041505F420041505F4157
:101FB0000052485F440052485F430052485F42006D
:101FC00052485F41005443355F44005443355F43FA
:101FD000005443355F42005443355F410056505F23
:101FE000440056505F430056505F420056505F41D8
:101FF000005443345F44005443345F43005443343B
:102000005F42005443345F41004543325F44004522
:1020100043325F43004543325F42004543325F41F4
:10202000004450325F44004450325F430044503219
:102030005F42004450325F41005443335F440054D8
:1020400043335F43005443335F42005443335F41A3
:10205000004543315F44004543315F430045433110
:102060005F42004543315F41004450315F440044CA
:1020700050315F43004450315F42004450315F4172
:10208000004D56325F44004D56325F43004D56328C
:102090005F42004D56325F41005443325F4400546A
:1020A00043325F43005443325F42005443325F4146
:1020B00000434F5F4400434F5F4300434F5F420084
:1020C000434F5F4100000000000050530056424F54
:1020D0004F54005650524F4700564150490000544B
:1020E0005354000000000000000000000000000049
:1020F000000000000000004E434E005053480057BF
:1021000053500050544300455443005343325F52F0
:102110004144005343315F52414400524144005016
:10212000444F500056444F500048444F5000414CDB
:102130005400434F555253455F4F47005350454558
:10214000445F4F47000000000000000000005553AE
:10215000004C555800505245530048554D005446C8
:10216000005443005041525400504D313000504D06
:10217000325F3500504D3100524200554944000055
:1021800000535452004D494C4C49530041434300C5
:10219000494E5F54454D500052414D00474D54004B
:1021A00054494D450044415445004E4944004E4178
:1021B000004D4143005253534900475053004241A0
:1021C000540043425F46500043425F545000434234
:1021D0005F464C0043425F46520043425F56530005
:1021E00043425F52504D004D425F4952004D425FA5
:1021F0004852004D425F4449004D425F434F494CB5
:1022000053004254315F44004254315F4300425412
:10221000315F42004254315F41004D56315F44000E
:102220004D56315F43004D56315F42004D56315F90
:1022300041005443315F44005443315F43005443F1
:10224000315F42005443315F41004355525F4200C9
:102250004355525F460046440053440054440055E1
:10226000565F460055565F450055565F430055562C
:102270005F42005041525F46005041525F4500505E
:1022800041525F43005041525F420053525F46004B
:1022900053525F450053525F430053525F42004C1C
:1022A000570055535F440055535F41004C55585FEC
:1022B00044004C55585F4100505245535F4400481C
:1022C000554D5F440054465F440054435F44005002
:1022D0005245535F410048554D5F410054465F41B0
:1022E0000054435F410001010101010101010101AD
:1022F00001010101010101010101010101010101CE
:1023000001010101010101010101010101010101BD
:1023100001010101010101010101010201010101AC
:102320000303010101030101010101010101010296
:10233000010101010101010101010101010101018D
:10234000010101010101010101010101010101017D
:10235000010101010101010101010101010101016D
:10236000010101010101010101010101010101015D
:10237000010101010101010101010101010101014D
:10238000010101010101010101010101010101013D
:102390000101010101010101010102020303010127
:1023A00001010101181008010101010101010202EE
:1023B00002020202020202020202020202020202FD
:1023C00002020202000000000000000002020202FD
:1023D00002020000000002000000000000000000F7
:1023E00000000002010303030000010102010403D5
:1023F00003030303020202040202020204010000BA
:1024000000000000000000020202020202000000C0
:1024100000000202020202020202020202020202A0
:102420000202020202020200000400000000000298
:102430000202020202020202020200000000000088
:102440000000000002020202020202000202020276
:102450000202020202020200020202000002020262
:10246000020001010101010101000001010101025D
:10247000020204040200462942293F293B29382947
:10248000342930292C292829242921291D291A29D0
:10249000162912290F290B2907290329FF28FB28B0
:1024A000F528F428F328F228F128F028EF28EE2860
:1024B000ED28E828E328DE28DD28DC28D728D628E0
:1024C000D528D428D328D028CC28C928C628C12864
:1024D000BD28B828B328AE28A928A428A3289F2857
:1024E0009B28962892288F288B28862881287D284B
:1024F000792871286D2866286228612860285C2860
:10250000592855284F284A28452842283F283B2843
:10251000362832282F282E282D282C282B282A2808
:1025200029282828272826281D2813280F280A2884
:1025300005280028FF27FE27FD27FC27FB27F52776
:10254000EF27E927E227DC27D627D027CA27C3278A
:10255000BD27B727B127AB27A4279C27972791270B
:102560008B2785277F277927782777277327722757
:102570006D27672761275E275A275727532750273C
:102580004B27482743273E27392733272D272C273A
:102590002B272A27292728272727262725272427C7
:1025A00023271D27172711270A2703270027FC2683
:1025B000F926F426EF26EA26E626E326E026DD269F
:1025C000DA26D326CC26C526C426C026BB26B726A7
:1025D000B626B526AF26A926A3269D269C26932699
:1025E0008D26872681267A2674266E266826622600
:1025F0005C2655264D2645263D2636262D262526A3
:1026000017260D260626524553554C540054485261
:102610004553484F4C440046455645525F434F553D
:102620004E54455200434F554E5445520053493481
:1026300042315F5443004149525F54430055534572
:10264000525F544300504D5F42494E4800504D5F29
:1026500042494E4C00504D5F42494E0043425F4656
:10266000500043425F54500043425F464C00434297
:102670005F46520043425F56530043425F52504D03
:10268000004D425F4952004D425F4852004D425F4B
:102690004449004D425F434F494C5300004355525B
:1026A0005F44004355525F43004355525F4200432D
:1026B00055525F410000004C554D0048554D4200B9
:1026C0005443420000534F494C5F4500534F494C1F
:1026D0005F4300534F494C5F42004644005344005F
:1026E00054440055560050415200504C563300504F
:1026F0004C563200504C563100575600414E450062
:102700004C5700534F494C544600534F494C544387
:1027100000534F494C3300534F494C3200534F49FB
:102720004C3100000000000000000000004F52503B
:102730005F45004F52505F410050485F4500504890
:102740005F41005455524200575400434F4E4400DD
:10275000444F004F525000504800524144005053E3
:102760000056424F4F54005650524F47005641506A
:102770004900005453540000005357495F4400532C
:1027800057495F43005357495F42005357495F41E0
:10279000005357494E41005357494B005357494343
:1027A0004C4F34005357494E4F32005357494D4711
:1027B000005357494C490053574950480053574913
:1027C0004147005357494E483400535749494F0039
:1027D000535749435500535749434C0053574942B7
:1027E00052005357494E4F33005357494642005306
:1027F0005749464C00535749434100000000000030
:1028000050444F500056444F500048444F500041F0
:102810004C5400434F555253455F4F47005350456A
:1028200045445F4F470000000000000000000055D5
:1028300053004C555800505245530048554D0054D4
:1028400046005443005041525400504D3130005026
:102850004D325F3500504D31005242005549440021
:102860000000535452004D494C4C495300414343DE
:1028700000494E5F54454D500052414D00474D5464
:102880000054494D450044415445004E4944004ED2
:1028900041004D41430052535349004750530042B9
:1028A0004154000045565F450045565F440045567B
:1028B0005F430045565F4100524F55540052494E08
:1028C0000048414C4C004C4C004C500050495200C8
:1028D0005746000000000047505F46000000475088
:1028E0005F430047505F420047505F4100000000D7
:1028F00000000000004E4F49534500534F32005036
:1029000048330048434E0048434C00483253004887
:10291000320045544F00434C32004E4F00564F4357
:102920000053560041503200415031004C50470096
:102930004E4F32004E4833004F3300434834004F6F
:102940003200434F3200434F0001010101010101F8
:102950000101010101010101010101010101010167
:102960000101010101010101030101010101010155
:102970000101010101010101010101010101020146
:102980000101010303010101030101010101010131
:102990000101010101010101010101010101010325
:1029A0000301010101010101010101010101010115
:1029B0000101010101010101010101010101010107
:1029C00001010101010101010101010101010101F7
:1029D00001010101010101010101010101010101E7
:1029E00001010102010101010101010101010101D6
:1029F0000101010101181002020202020202020298
:102A000002020202020202020200000000020002B0
:102A1000000002020202010002020202020202029D
:102A20000202020200020202020202000201030389
:102A30000300000101020104030303030302020275
:102A4000020202020202020202020202000000046A
:102A50000202020202020002020202020202020258
:102A60000202020202020200000000000000000058
:102A7000020204020000000202020202020202023A
:102A80000202020202020202020202020202020226
:102A90000202020202020202020202020202020216
:102AA0000202020101842F802F7D2F792F752F7153
:102AB0002F6D2F692F662F622F5F2F5B2F572F539C
:102AC0002F4E2F4B2F482F432F3F2F3A2F372F3486
:102AD0002F302F2C2F292F252F212F1D2F1A2F1567
:102AE0002F122F0F2F0C2F082F042FFF2EF92EF44B
:102AF0002EF12EED2EEA2EE72EE42EE12EDD2EDA3B
:102B00002ED62ED22ECF2ECC2EC92EC62EC22EBE03
:102B10002EB92EB52EB22EAE2EA92EA42EA02E9CEE
:102B20002E942E902E892E852E812E7B2E772E741C
:102B30002E712E6D2E6A2E652E622E5D2E582E540D
:102B40002E4F2E4A2E462E402E3C2E362E302E292B
:102B50002E232E1D2E192E102E062E022EFD2DF8A0
:102B60002DF32DEF2DEA2DE52DE02DD92DD22DCBF6
:102B70002DC42DBE2DB82DB22DAE2DA72DA12D9B70
:102B80002D952D8F2D8A2D852D802D7B2D762D71C8
:102B90002D6A2D632D5C2D572D522D4E2D492D4420
:102BA0002D3E2D382D312D2B2D242D1E2D172D1082
:102BB0002D092D022DFC2CF52CEF2CE82CE12CDA24
:102BC0002CD42CCD2CC72CC12CBA2CB22CAB2CA4C1
:102BD0002C9E2C962C8C2C832C7A2C742C6E2C688E
:102BE0002C622C5C2C562C502C4A2C442C3E2C381D
:102BF0002C332C2E2C292C232C1D2C172C0C2C0187
:102C00002C4F50435F4E325F42494E004F50435F5E
:102C10004E335F42494E004F52505F43004F525077
:102C20005F42004F52505F410050485F43005048A0
:102C30005F420050485F4100535749504800535786
:102C400049414700535749504200535749494F00A3
:102C5000535749435500535749434C005357494232
:102C600052005357494E4F0053574946420053575D
:102C700049464C005357494341004F50435F504130
:102C80005254004F50435F504D3130004F50435F1E
:102C9000504D325F35004F50435F504D31004F5023
:102CA000435F50004F50435F5446004F50435F54C2
:102CB000430047505F505245530047505F48554DC1
:102CC0000047505F54460047505F54430047505FF1
:102CD000434F320047505F4F330047505F43483403
:102CE0000047505F534F320047505F504833004712
:102CF000505F4F320047505F4E4F320047505F4E9B
:102D00004F0047505F4E48330047505F48434E00E6
:102D100047505F48434C0047505F4832530047508C
:102D20005F48320047505F45544F0047505F434F64
:102D30000047505F434C320056424F4F54005650AC
:102D4000524F470056415049005455524200545387
:102D5000540057465F450057465F430048414C4C7E
:102D60005F460048414C4C5F450048414C4C5F4435
:102D7000004C4C5F46004C4C5F45004C4C5F44009F
:102D80004C505F46004C505F45004C505F44004C37
:102D9000554D5F46004C554D5F45004C554D5F44C9
:102DA0000055535F35560055535F33563300544337
:102DB0004300534F494C3300534F494C3200534F5B
:102DC000494C3100534F494C5F4600534F494C5FCB
:102DD0004500534F494C5F4400534F494C5F4300FB
:102DE000504C563300504C563200504C5631004631
:102DF000534D0050444F500056444F500048444FEC
:102E00005000414C5400434F555253455F4F4700CB
:102E100053504545445F4F47004C555800444D5F63
:102E2000535000444D5F53540054585F5057520064
:102E300044494E4F330044494D47320044494B000A
:102E400044494355320044494900444942520044F0
:102E500049434C0044494600444943410044494EDB
:102E60004100575400434F4E4400444F004F5250CE
:102E700000504800524200554944004D57494649C8
:102E8000004D425400535452004D494C4C4953009C
:102E900041434300494E5F54454D500052414D005F
:102EA000474D540054494D450044415445004E4956
:102EB00044004E41004D4143005253534900475096
:102EC0005300424154004446004C430057460043DF
:102ED000550052414400504C5600575600414E4553
:102EE000004644005344005444005556005041529B
:102EF000004C5700534F494C00534F494C54004825
:102F0000554D420054464200544342005053004D38
:102F1000460055530044555354004C440043504719
:102F200000434447004D4350005354005049520061
:102F30004C554D004C4C004C500048414C4C0056F8
:102F400042520042454E44005057005041004855FF
:102F50004D41005446410054434100564F43004FF9
:102F600033004E4F32005356004150320041503131
:102F7000004E4833004C504700434834004F320065
:102F8000434F3200434F002A2A2A2A2A2A2A2A2A71
:102F90002A2A2A2A2A2A2A2A2A2A2A2A2A2A2A2A91
:102FA0002A2A2A2A0050415353574F52443A2000AC
:102FB0004C4F47494E3A200041504E3A20002A2AB1
:102FC0002A2A2A2A2A2A2A2A2A2A2A2A2A2A2A2A61
:102FD0002A2A2A2A2A2A2A2A2A2A2A000B300330B5
:102FE000FD2FF72FF12FE82F56455253494F4E3AF8
:102FF0000053495A453A00504154483A0046494C1A
:10300000453A004E4F5F46494C45002F55504752B8
:103010004144452E5458540029311C310A31F730AF
:10302000E930D730C830C030B130A0308E308A306F
:103030007F307430633058304C303C30415423463C
:1030400054504357443D222573220D0041542346DA
:1030500054504C4953540D0041542346545050573A
:10306000440D0041542346545044454C453D2225CF
:1030700073220D0023465450524543563A20004EC9
:103080004F2043415252494552002B2B2B002346DF
:103090005450474554504B543A2025732C302C0043
:1030A0004154234654504150504558543D25750DC8
:1030B00000415423465450474554504B543F0D0053
:1030C000234654504D5347004154234654505245D3
:1030D00043563D25750D00415423465450465349EF
:1030E0005A453D222573220D004154234654505425
:1030F0005950453D300D00415423465450474554E6
:10310000504B543D222573220D0041542346545008
:103110005055543D222573222C300D004154234636
:103120005450434C4F53450D004154234654504F87
:1031300050454E3D2225733A2575222C22257322B7
:103140002C222573222C25750D002D321732FB31D0
:10315000ED31DB31C131BA3198318D3174316031AB
:103160006D756C7469706172742F666F726D2D6409
:10317000617461006170706C69636174696F6E2F56
:103180006F637465742D73747265616D0074657816
:10319000742F706C61696E006170706C696361742A
:1031A000696F6E2F782D7777772D666F726D2D751D
:1031B000726C656E636F646564006672616D653D17
:1031C000002F676574706F73745F6672616D655F01
:1031D0007061727365722E70687000415423485498
:1031E00054505243563D25752C25750D00234854E7
:1031F000545052494E473A20302C004154234854F1
:103200005450534E443D302C25752C222573222CCE
:1032100025752C25730D00415423485454505152A8
:10322000593D302C25752C222573220D0041542345
:10323000485454504346473D302C222573222C25B8
:10324000750D00A13497348C34813475346534564F
:10325000345034423436342A34203416340D340495
:1032600034FB33F233E933E033D533CF33C433BEE9
:1032700033B633AC33A2339833903388337033662C
:10328000335A335133453337330433EE32E232D6D7
:1032900032CE32C632BB32B032A6329D32415423D6
:1032A0005348444E0D0041542B575334363F0D00C4
:1032B0002B43455245473A20302C0041542B43457F
:1032C0005245473F0D002B434D47523A20002B43B8
:1032D0004D474C3A200041542B575334363D257509
:1032E0000D0041542353413D25752C310D004154AF
:1032F0002B434D474C3D2252454320554E524541AC
:1033000044220D002532686875252A6325326868D5
:1033100075252A632532686875252A632532686811
:1033200075252A632532686875252A632532686801
:103330007525686864220041542350534E543F3A27
:10334000202C0D0A0041542B4353510D0A3A202CD6
:10335000002B49503A20220D0A0041542347505275
:10336000533D25750D0041542573222573220D0010
:1033700041542B434744434F4E543D312C22495036
:10338000222C222573220D00475052533A20300040
:10339000475052533A203100415423475052533F33
:1033A0000D0041542B43434C4B3F0D0041542B43E4
:1033B0004F50533F0D005352494E473A20002B4384
:1033C0004D5449004154234E49545A3D370D004154
:1033D0005445300D0041542B434D45453D310D00C2
:1033E000415423434349440D0041542343494D492B
:1033F0000D004154234347534E0D0041542343478E
:103400004D520D0041542343474D4D0D004154236F
:1034100043474D490D0041542348575245560D002E
:1034200041542350534E543F0D0041542B435351AC
:103430000D0A3A202C002354454D504D4541533A36
:10344000200041542354454D504D4F4E3D310D0009
:1034500023475052530041542350415353573D2268
:103460002573220D004154235553455249443D22B2
:103470002573220D002B434744434F4E543D312CBE
:10348000002B43475245473A20302C0041542B43F0
:10349000475245473F0D002B435245473A20302CB9
:1034A0000041542B435245473F0D005B5057525D3E
:1034B000204E6F69736520696E20496E7465727263
:1034C000757074696F6E206C696E65005B50575241
:1034D0005D2064656570536C6565702052544320AF
:1034E0006572726F7200496E76616C696420474D37
:1034F000542076616C756500496E636F7272656306
:103500007420696E70757420706172616D65746588
:1035100072730A005B5254435D200057726F6E67EE
:103520002074696D6520666F726D61742E204D7513
:103530007374206265202264643A68683A6D6D3A5B
:103540007373220A005B5254435D2000D836C336A1
:10355000AD369D3690368636763661364A36383602
:103560002C36253613360036F335E935D935B635E0
:10357000B035873576355B253032753A2530327572
:103580003A253032755D002530327525632530329D
:103590007525632530327525632530327525632501
:1035A000303275256325303275256325303275003C
:1035B0006572726F720025732C20253032752F25AD
:1035C0003032752F253032752C20253032753A2552
:1035D0003032753A25303275004F6E636520706564
:1035E00072206D696E757465005B6D6D5D202D2DAB
:1035F0003E20005B68683A6D6D5D202D2D3E2000F9
:103600005B446174652C2068683A6D6D5D202D2DDA
:103610003E20005B4461792C2068683A6D6D5D2026
:103620002D2D3E20005B253032755D005B2530324C
:10363000753A253032755D005B253032752C2025BA
:103640003032753A253032755D005B253032752C8D
:1036500020253032753A253032753A253032755D85
:1036600000496E636F727265637420616C61726D84
:10367000206D6F6465004F6E636520706572207306
:1036800065636F6E64005B73735D202D2D3E2000BB
:103690005B6D6D3A73735D202D2D3E20005B686875
:1036A0003A6D6D3A73735D202D2D3E20005B4461B1
:1036B00074652C2068683A6D6D3A73735D202D2D0A
:1036C0003E20005B4461792C2068683A6D6D3A7346
:1036D000735D202D2D3E2000416C61726D206D6167
:1036E000746368657320005B53445D20496E7661A6
:1036F0006C69642066696C656E616D65007C3C3E3A
:103700005E2B3D3F2F5B5D3B2C2A225C00000008B6
:1037100009000000000000000000000000000000A0
:103720000000000000000000000000000000000099
:103730000000000000000000000000000000000089
:1037400000000102081010204080040810204002F0
:103750000204081020408001028020400420010162
:103760000204081020014080408001020804088003
:1037700004100402010810050505050303030301F5
:1037800001010404030606060606060606010405F2
:103790000105010302020202020201020205050400
:1037A0000403040401030407070707070020232676
:1037B000292C2F32002225282B2E313400212427BA
:1037C0002A2D30336364696E6F70737578585B00AF
:1037D000282AAD3FDA461E56605D445F8D6536840B
:1037E00011241FBECFEFD1E2DEBFCDBF16E0A0E0B7
:1037F000B2E0E0E8F5E201E00BBF02C007900D92F5
:10380000A637B107D9F727E1A6E7B6E001C01D92B8
:10381000A632B207E1F71BE1C0EFDBE104C021975C
:10382000FE010E944A87C83ED107C9F70E949269EB
:103830000C94BE920C940000EF92FF920F931F9392
:10384000CF93DF937C01162F03E020E040E060EC93
:1038500072E087E69EE00E94EC4D8CEF9EE00E94B5
:10386000D55789E69EE00E9478519093AC068093EC
:10387000AB066AE371E18EEB90E10E941C656091FA
:10388000AB067091AC068EEB90E10E949F64809134
:103890007D0E90E09093AA068093A9064AE062EA22
:1038A00076E00E94C38B8091A9069091AA060A97A0
:1038B0003CF48091A2068093A30680E38093A20645
:1038C00042EA56E0B7018CEF9EE00E94205C082F90
:1038D0008093A10643E756E0B7018CEF9EE00E947B
:1038E000205C8093A106C82FD0E0C00FD11D80912D
:1038F0007E0E90E09093AA068093A9064AE062EAC1
:1039000076E00E94C38B8091A9069091AA060A973F
:103910003CF48091A2068093A30680E38093A206E4
:1039200042EA56E0B7018CEF9EE00E94205C809353
:10393000A106C80FD11D43E756E0B7018CEF9EE00A
:103940000E94205C8093A106C80FD11D8091830E38
:1039500090E09093AA068093A9064AE062EA76E096
:103960000E94C38B8091A9069091AA060A973CF405
:103970008091A2068093A30680E38093A20642EA88
:1039800056E0B7018CEF9EE00E94205C8093A10678
:10399000C80FD11D43E756E0B7018CEF9EE00E94AF
:1039A000205C8093A106C80FD11D8091800E90E00D
:1039B0009093AA068093A9064AE062EA76E00E9404
:1039C000C38B8091A9069091AA060A973CF4809136
:1039D000A2068093A30680E38093A20642EA56E003
:1039E000B7018CEF9EE00E94205C8093A106C80F77
:1039F000D11D43E756E0B7018CEF9EE00E94205CAA
:103A00008093A106C80FD11D8091810E90E0909304
:103A1000AA068093A9064AE062EA76E00E94C38B78
:103A20008091A9069091AA060A973CF48091A2067B
:103A30008093A30680E38093A20642EA56E0B70192
:103A40008CEF9EE00E94205C8093A106C80FD11DE0
:103A500043E756E0B7018CEF9EE00E94205C809324
:103A6000A106C80FD11D8091820E90E09093AA0606
:103A70008093A9064AE062EA76E00E94C38B8091B7
:103A8000A9069091AA060A973CF48091A206809319
:103A9000A30680E38093A20642EA56E0B7018CEFCA
:103AA0009EE00E94205C8093A106C80FD11D4DE5C9
:103AB00056E0B7018CEF9EE00E94205C8093A10647
:103AC000C80FD11D2091C4073091C50744EC56E0C2
:103AD000B7018CEF9EE00E94445C8093A106C80F62
:103AE000D11D4DE556E0B7018CEF9EE00E94205CB1
:103AF0008093A106C80FD11D4AE062EA76E0812FCB
:103B000090E00E94C38B42EA56E0B7018CEF9EE042
:103B10000E94AC5C8093A106C80FD11D8CEF9EE083
:103B20000E943957CF30D10519F46CEC72E010C007
:103B30006BEE72E08EEB90E10E9413646FE070E038
:103B40006C1B7D0B8EEB90E10E94536463EE72E080
:103B50008EEB90E1DF91CF911F910F91FF90EF904D
:103B60000C949F648EEB90E10E948D6361EB70E199
:103B70008EEB90E10E94446561E073E08EEB90E192
:103B80000E949F6468E873E180E090E00E946140D9
:103B900081EF98E00E94623E8093A606811134C1B5
:103BA00060EA70E18EEB90E10E94446560E081EF95
:103BB00098E00E94D4378093A606811113C067E86D
:103BC00070E18EEB90E10E941C65409103095091D9
:103BD00004096091FF08709100098EEB90E10E944A
:103BE0005B6506C06AE670E18EEB90E10E94446579
:103BF00061E081EF98E00E94D4378093A60681119E
:103C000013C067E470E18EEB90E10E941C65409167
:103C10000309509104096091FF08709100098EEB2F
:103C200090E10E945B6506C060E270E18EEB90E17E
:103C30000E94446562E081EF98E00E94D43780934F
:103C4000A606811113C064E070E18EEB90E10E9442
:103C50001C6540910309509104096091FF0870911F
:103C600000098EEB90E10E945B6506C064EE7FE088
:103C70008EEB90E10E94446563E081EF98E00E9442
:103C8000D4378093A606811113C065EC7FE08EEBDC
:103C900090E10E941C6540910309509104096091D4
:103CA000FF08709100098EEB90E10E945B6506C0F1
:103CB00062EA7FE08EEB90E10E94446564E081EF70
:103CC00098E00E94D4378093A606811113C066E95C
:103CD0007FE08EEB90E10E941C65409103095091BA
:103CE00004096091FF08709100098EEB90E10E9439
:103CF0005B6506C066E87FE08EEB90E10E9444655C
:103D000065E081EF98E00E94D4378093A606811188
:103D100013C06AE77FE08EEB90E10E941C65409142
:103D20000309509104096091FF08709100098EEB1E
:103D300090E10E945B6506C06AE67FE08EEB90E151
:103D40000E94446566E081EF98E00E94D43780933A
:103D5000A606811113C06DE57FE08EEB90E10E9415
:103D60001C6540910309509104096091FF0870910E
:103D700000098EEB90E10E945B6506C06CE47FE079
:103D80008EEB90E10E9444656DE37FE08EEB90E165
:103D90000E94446581EF98E00E94D83A81EF98E054
:103DA0000E943A368093A60681112BC060E27FE024
:103DB0008EEB90E10E941C654091DC0B5091DD0B75
:103DC000052E000C660B770B2AE030E08EEB90E1BD
:103DD0000E94E0646CE07FE08EEB90E10E941C6545
:103DE0004091DA0B5091DB0B052E000C660B770B24
:103DF0002AE030E08EEB90E10E9459646BEF7EE0A8
:103E000005C064EE7EE002C06EEC7EE08EEB90E1D9
:103E10000E94446565E47EE08EEB90E10E9444657B
:103E20008EEB90E10C94A1638EEB90E10E948D6388
:103E30006CEB7DE08EEB90E10E94446567EA7DE0EB
:103E40008EEB90E10E9444652DE836E04EE856E0A6
:103E50006AE572E081EF98E00E947A3A81EF98E09B
:103E60000E94D83A81EF98E00E94623E8093A606B5
:103E7000811198C064E97DE08EEB90E10E94446579
:103E80006EE181EF98E00E944A2E80938C068111AA
:103E9000A0C063E77DE08EEB90E10E94446568E896
:103EA00073E180E090E00E94614081EF98E00E9421
:103EB000AA368093A606811117C067E67DE08EEBD7
:103EC00090E10E941C654091DE0B5091DF0B052EA6
:103ED000000C660B770B2AE030E08EEB90E10E943D
:103EE000596462E67DE002C06CE37DE08EEB90E118
:103EF0000E94446581EF98E00E941C378093A606DB
:103F0000811126C068E27DE08EEB90E10E941C6585
:103F10008091E00B823099F038F4882369F0813089
:103F2000E9F46DE17DE016C0843079F058F0853019
:103F3000A9F463EF7CE00EC063E27DE00BC067E1B3
:103F40007DE008C061E17DE005C06DE07DE002C07C
:103F500066EC7CE08EEB90E10E94446584E1E8E74A
:103F6000F6E0DF011D928A95E9F7BF0181EF98E045
:103F70000E9471378093A60681110DC066EB7CE02C
:103F80008EEB90E10E941C6568E776E08EEB90E195
:103F90000E949F641EC06CE87CE08EEB90E10E9462
:103FA000446517C066E77CE08EEB90E10E944465B3
:103FB00069E67CE08EEB90E10E941C654091A606CC
:103FC00050E060E070E02AE030E08EEB90E10E948B
:103FD000E06481EF98E00E945F3F61E57CE08EEB5A
:103FE00090E10E94446568EC7BE08EEB90E10E94DA
:103FF00044658EEB90E10C94A1630F931F9381EFC6
:1040000098E00E94623E8093A60681114EC062EB4A
:104010007BE08EEB90E10E9444656DE97BE08EEBE6
:1040200090E10E941C650091C4071091C507409162
:104030004B0250914C0224EC36E06DE472E081EFCB
:1040400098E00E94BB388093A60681112BC06BE8D4
:104050007BE08EEB90E10E941C656091E60B709115
:10406000E70B8EEB90E10E94B56463E173E08EEBA9
:1040700090E10E94136440910309509104096091FA
:10408000FF08709100098EEB90E10E945B658091C2
:10409000E60B883C21F481E08093A0061DC01092BD
:1040A000A0061AC066E77BE008C060E67BE08EEB06
:1040B00090E10E94446563E57BE08EEB90E10E9415
:1040C0001C654091A60650E060E070E02AE030E018
:1040D0008EEB90E10E94E0646BE37BE08EEB90E17D
:1040E0000E94446581EF98E01F910F910C945F3F0F
:1040F000CF93DF93EC0181EF98E00E94623E8093C2
:10410000A606811126C068E27BE08EEB90E10E945A
:1041100044656CE381EF98E00E944A2E80938C0600
:1041200081113CC081EF98E00E94A33989E69EE0AE
:104130000E947851BC018EEB90E10E949F6489E659
:104140009EE00E94F74EBC018EEB90E10E949F64BE
:1041500025C062E17BE08EEB90E10E94446565E062
:104160007BE08EEB90E10E941C654091A60650E03A
:1041700060E070E02AE030E08EEB90E10E94E064C5
:104180002091A9063091AA062F5F3F4F3093AA06CF
:104190002093A906C217D3070CF0ADCF81EF98E0AA
:1041A0000E945F3F6DEE7AE08EEB90E1DF91CF9160
:1041B0000C94446590E0FC013197E831F10508F07A
:1041C0004CC0EA59FF4F0C944A876EED7AE047C025
:1041D00060EC7AE044C066EA7AE041C065E87AE0E3
:1041E0003EC06DE67AE03BC063E57AE038C06BE341
:1041F0007AE035C063E27AE032C068E07AE02FC04E
:1042000069EE79E02CC066EB79E029C06EE779E0D1
:1042100026C069E479E023C06BE179E020C06EED4F
:1042200078E01DC068EA78E01AC063E678E017C05D
:1042300063E278E014C06EEC77E011C064E977E0E7
:104240000EC060E677E00BC060E377E008C064EF83
:1042500076E005C067EC76E002C06FEB76E08EEBAF
:1042600090E10C9444650F931F9363EA76E08EEB24
:1042700090E10E94446581EF98E00E94623E809345
:10428000A606811130C06DE876E08EEB90E10E94C9
:1042900044656AE776E08EEB90E10E9444654091C8
:1042A0003C0250913D0201E212E02EE232E06EE368
:1042B00072E081EF98E00E94663D8093A606882315
:1042C00051F069E576E08EEB90E10E941C658091EB
:1042D000A6060E94DA2043E06CE271E082EC90E1F5
:1042E0000E94B06506C063E476E08EEB90E10E9428
:1042F00044656BE276E08EEB90E10E94446581EFCD
:1043000098E01F910F910C945F3FAF92BF92CF92B4
:10431000DF92EF92FF920F931F93CF93DF935C0195
:10432000EB0181EF98E00E94623E8093A606811126
:10433000A1C065E176E08EEB90E10E94446540917A
:104340003C0250913D0201E212E02EE232E06EE3C7
:1043500072E081EF98E00E9446318093A6068111B9
:1043600077C06CEF75E08EEB90E10E9444650E948F
:1043700032406B017C01A501BE0181EF98E00E94F3
:1043800016328093A60681112BC060ED75E08EEB8E
:1043900090E10E941C6562EC75E08EEB90E10E945A
:1043A0001C650E9432400D2C000CEE08FF086C19B1
:1043B0007D098E099F0928EE33E040E050E00E941D
:1043C0000987BA01A9012AE030E08EEB90E10E9452
:1043D00059646FEB75E08EEB90E10E94446511C06B
:1043E0006EE875E08EEB90E10E941C654091A60698
:1043F00050E060E070E02AE030E08EEB90E10E9457
:10440000E06481EF98E00E9451318093A60681110B
:1044100003C064E775E030C06DE375E08EEB90E1BA
:104420000E941C654091A60650E060E070E02AE022
:1044300030E08EEB90E10E94E06460E375E08EEB8B
:1044400090E10E941C654091D80B5091D90B09C096
:1044500064E175E08EEB90E10E941C654091A60638
:1044600050E060E070E02AE030E08EEB90E10E94E6
:10447000E06406C06BEF74E08EEB90E10E9444654F
:1044800063EE74E08EEB90E10E94446581EF98E06A
:10449000DF91CF911F910F91FF90EF90DF90CF9020
:1044A000BF90AF900C945F3F8EEB90E10E948D63C4
:1044B00089E69EE00E94EA520E94B21D0E94141FEB
:1044C0006AE072E087E192E00E94852182EC90E14F
:1044D0000E94E2688093A506882361F08130C1F4D0
:1044E0006EEB74E08EEB90E10E94446543E06CE279
:1044F00071E017C06FEC74E08EEB90E10E944465B0
:1045000043E06CE271E082EC90E10E94B0650DC086
:1045100063EB74E08EEB90E10E94446541E064EF50
:1045200071E082EC90E10E94E6656FE876E082EC53
:1045300090E10E94696965E974E08EEB90E10E9468
:10454000446568E874E08EEB90E10E941C656FE8BA
:1045500076E08EEB90E10E949F6466E774E08EEB5C
:1045600090E10E941C6582EC90E10E948669482FD0
:1045700050E060E070E02AE030E08EEB90E10E94D5
:10458000E06468E574E08EEB90E10E9444652DE8FC
:1045900036E04EE856E06AE572E081EF98E00E946E
:1045A0007A3A81EF98E00E94D83A89E69EE00E942C
:1045B000EA528091750290E00E94782089E69EE0A0
:1045C0000E947851BC018EEB90E10E949F6460E3F1
:1045D00074E08EEB90E10E9444658CEF9EE00E94B7
:1045E000D55780919F06882399F066E772E08CEF9B
:1045F0009EE00E94585A8093A106813019F463E22C
:1046000074E002C062E174E08EEB90E10E944465C8
:1046100066E772E08CEF9EE00E94075D8093A10642
:10462000813019F465E074E002C064EF73E08EEB52
:1046300090E10E9444656FEE73E08EEB90E10E9482
:10464000136460917302709174028EEB90E10E948A
:10465000B56445E054E066E772E08CEF9EE00E94AE
:10466000AC5C8093A106813019F465EE73E002C062
:104670006AEC73E08EEB90E10E94446565E473E0C0
:104680008EEB90E10E94446560EC72E08EEB90E16D
:104690000E9444656BE372E08EEB90E10E944465FA
:1046A0008EEB90E10C948D630F9368E372E08EEBD8
:1046B00090E10E94446565E372E08EEB90E10E9418
:1046C000446562E372E08EEB90E10E9444656FE224
:1046D00072E08EEB90E10E9444656CE272E08EEB3A
:1046E00090E10E94446569E272E08EEB90E10E94E5
:1046F000446566E272E08EEB90E10E94446563E2FD
:1047000072E08EEB90E10E94446560E272E08EEB15
:1047100090E10E9444656DE172E08EEB90E10E94B1
:1047200044650E9432406093990670939A06809384
:104730009B0690939C064EE552E061E08DEA96E080
:104740000E941B2A87E69EE00E94224C482F50E0E0
:1047500064E38DEA96E00E944D268DEA96E00E9481
:104760008F240E94FD1F6091A00686E792E00E94C0
:104770001C1C0E943321809173029091740220913D
:10478000A7063091A806821B930B05978A309105E6
:1047900014F48FE090E090939E0680939D0664E76A
:1047A00074E08EEB90E10E94136460919D0670911D
:1047B0009E068EEB90E10E94B56480919D069091DB
:1047C0009E066CE370E00E94F5869093AA068093A3
:1047D000A9064AE062EA76E00E94C38B8091A906AE
:1047E0009091AA060A973CF48091A2068093A306B2
:1047F00080E38093A2068091A2068093700280914C
:10480000A3068093710280919D0690919E062CE3F1
:1048100030E0B9010E94F586CB01B9010E94F5860E
:104820009093AA068093A9064AE062EA76E00E9485
:10483000C38B8091A9069091AA060A973CF48091B7
:10484000A2068093A30680E38093A2068091A2062D
:1048500080936D028091A30680936E0280919D06E5
:1048600090919E0620E13EE0B9010E94F586CB01C1
:10487000B9010E94F5869093AA068093A9064AE0A2
:1048800062EA76E00E94C38B8091A9069091AA0605
:104890000A973CF48091A2068093A30680E380935C
:1048A000A2068091A20680936A028091A30680935B
:1048B0006B0266E072E08EEB90E10E9444656CE270
:1048C00075E08EEB90E10E94136467E672E08EEB78
:1048D00090E10E9413646CE275E08EEB90E10E941F
:1048E0009F648EEB90E10E94A16303E020E040E032
:1048F00067E672E087E69EE00E94EC4D8EEB90E169
:104900000E948D636DE771E08EEB90E10E9444653B
:104910006EE671E08EEB90E10F910C944465CF92BE
:10492000DF92EF92FF920F931F93CF93DF93EC01EF
:104930008EEB90E10E94C0630FE110E060E08DE338
:104940000E94A44301501109C9F760E08DE00E9464
:10495000A44360E08AE00E94A4438981813021F46D
:1049600060E081EA94E00CC0811104C060E08FEA4D
:1049700094E006C0823009F095C060E08EEB94E0D0
:104980000E94B14360E080ED94E00E94B14360E09A
:104990008AED94E00E94B1437E0189EEE81A8EEF21
:1049A000F80AF7016081718180E090E000E02AE080
:1049B00030E040E050E00E94C14360E08DE00E94A2
:1049C000A44360E08AE00E94A44360E083EE94E0A8
:1049D0000E94B1436A8D70E080E090E02AE030E010
:1049E00040E050E00E94C14360E08DE00E94A4439B
:1049F00060E08AE00E94A44360E081EF94E00E94BE
:104A0000B14367966E0100E010E0F701808191816B
:104A100060E00817190740F4F60181916F010E94C8
:104A200045440F5F1F4FF1CF8DE00E94A44360E02B
:104A30008AE00E94A44360E08FEF94E00E94B143BB
:104A400000E010E0F7018081918160E0081719070C
:104A500030F489910E94A4430F5F1F4FF3CF8DE084
:104A60000E94A44360E08AE00E94A443CFE1D0E02A
:104A700060E08DE30E94A4432197D1F760E08DE0D0
:104A80000E94A44360E08AE00E94A4438EEB90E180
:104A9000DF91CF911F910F91FF90EF90DF90CF901A
:104AA0000C94E563DF91CF911F910F91FF90EF90F0
:104AB000DF90CF900895FF920F931F93CF93DF93D2
:104AC000062FF42E122F2091C310A62FB0E027340A
:104AD00080F0FC012689FD01273019F4E35FF44ED4
:104AE0000BC0283019F4ED5FFC4E06C0E255FC4DBA
:104AF00003C0FD01E950F64DC591D491C13069F56F
:104B0000F1E0FF1508F059C06DE072E18EEB90E125
:104B10000E941C6567EE71E18EEB90E10E941C65BE
:104B2000402F50E060E070E02AE030E08EEB90E152
:104B30000E94596464EE71E18EEB90E10E941C6565
:104B40002AE030E041E050E060E070E08EEB90E180
:104B50000E9459646FED71E12AC0CF1571F166EDC5
:104B600071E18EEB90E10E941C6560EB71E18EEBD0
:104B700090E10E941C65402F50E060E070E02AE068
:104B800030E08EEB90E10E94596464EA71E18EEBB3
:104B900090E10E941C654C2F50E060E070E02AE03C
:104BA00030E08EEB90E10E94596465E971E18EEB93
:104BB00090E10E941C654F2D49C02091C3102734FD
:104BC00080F0FC018689FD01873019F4E35FF54E22
:104BD0000BC0883019F4EA5EFD4E06C0EA51FD4D67
:104BE00003C0FD01E75BF64D85919491C82F8117B5
:104BF000C1F16CE871E18EEB90E10E941C656CE5FF
:104C000071E18EEB90E10E941C65402F50E060E066
:104C100070E02AE030E08EEB90E10E94596460E59C
:104C200071E18EEB90E10E941C654C2F50E060E03A
:104C300070E02AE030E08EEB90E10E94596461E47C
:104C400071E18EEB90E10E941C65412F50E060E025
:104C500070E02AE030E08EEB90E10E94E0648FEF9C
:104C600001C081E0DF91CF911F910F91FF900895D6
:104C7000FC01E95EFE4F20813181620F731FDC0170
:104C800012968D919C9113978617970720F0718348
:104C9000608381E0089580E008956F927F928F9203
:104CA0009F92AF92BF92CF92DF92EF92FF920F93BB
:104CB0001F93CF93DF93CDB7DEB7A8970FB6F894C5
:104CC000DEBF0FBECDBF8C01F62E5A016C0127EE60
:104CD000C21A2EEFD20AD6018C918E3109F418C176
:104CE000F8018181813009F087C08091C310E62FDF
:104CF000F0E09E012F5F3F4F7901873490F0D8019B
:104D000056968C91EE0FFF1F873019F4E35FF34E38
:104D10000CC0883019F4E051FC4E07C0EA58FB4D36
:104D200004C0EE0FFF1FEB55F54D65917491C7015F
:104D30000E94138B4E01B5E18B0E911C4AE0B40129
:104D4000C5010E94C38BF70101900020E9F731975C
:104D5000BF016E197F09F40101900020E9F7319736
:104D6000E819F9096E0F7F1F6E5F7F4FC8010E941F
:104D70003826882309F464C0F801E95EFE4FA0805C
:104D8000B180F70101900020E9F73197AF014E198A
:104D90005F09F40101900020E9F73197E819F9095A
:104DA00035016E1A7F0AC501841B950B8E1B9F0B64
:104DB0004596B701800F911F0E942B8BF801E60DDD
:104DC000F71D8AE3858BF40101900020E9F7319704
:104DD000AF0148195909C3014696B401800F911FCC
:104DE0000E942B8BF801EA0DFB1D83E2868BF601F6
:104DF00080818F5F808384C021E04F3F510509F09F
:104E00000CF540E06F2DC8010E945B258F3FC1F07B
:104E10008091C310EF2DF0E08734F0F0D801569662
:104E20008C91873089F4E35FF44E859194918130C1
:104E3000C1F563E070E0C8010E94382681110FC0FF
:104E40008FEF67C041E0DECF883019F4ED5FFC4E94
:104E5000ECCFE255FC4DE9CFE950F64DE6CFF80135
:104E6000E95EFE4F20813181F801E20FF31FF48AE1
:104E7000A58AB68A178AF60180818E31D0F590E036
:104E8000AC01440F551F840F951F800F911FFC012B
:104E9000E651FE4F1082319623502083319683E0F5
:104EA00027C062E070E0C8010E943826882341F2E2
:104EB000F801E95EFE4F20813181F801E20FF31F16
:104EC000F58AA68A178AD6018C918E3190F490E0EB
:104ED000AC01440F551F840F951F800F911FFC01DB
:104EE000E651FE4F1082319622502083319682E0A7
:104EF0008083F60180818F5F80838091C407855015
:104F0000D8015B968C93F801E95EFE4F808101C069
:104F100080E0A8960FB6F894DEBF0FBECDBFDF913C
:104F2000CF911F910F91FF90EF90DF90CF90BF90A6
:104F3000AF909F908F907F906F900895AF92BF92A7
:104F4000CF92DF92EF92FF920F931F93CF93DF9355
:104F50001F92CDB7DEB76C01F62E03E910E060E0DA
:104F6000C80179830E94B0920F5F1F4F7981033A85
:104F70001105A9F7D601149681E1FD0111928A95D8
:104F8000E9F70F2D172F5D0183E9E82EF12C680159
:104F9000F8016081633241F0603231F0C7010E9454
:104FA000B092F801808105C06FE5C7010E94B09200
:104FB0008FE5F50180830F5F1F4FF6018081882305
:104FC00051F0FFEFEF1AFF0A8FEFA81AB80AE3EAD1
:104FD000EE16F104E1F60F90DF91CF911F910F9142
:104FE000FF90EF90DF90CF90BF90AF900895CF9259
:104FF000DF92EF92FF920F931F93CF93DF937B018A
:10500000EC01249681E1FE0111928A95E9F76B018A
:1050100000E010E0B8016D567F4F82EC90E10E94F5
:10502000F8668993F60181936F010F5F1F4F00317E
:10503000110581F7F701108ADF91CF911F910F9130
:10504000FF90EF90DF90CF900895CF93DF93EC0126
:1050500060E083EA90E00E94B0928FEF90E09B8343
:105060008A83FE01E158FE4F8CE08083BE016C5FB5
:105070007F4F8DEA96E00E94F7271D8ADF91CF913E
:10508000089563EA70E082EC90E10C94F866AF92C8
:10509000BF92CF92DF92EF92FF920F931F93CF9325
:1050A000DF93CDB7DEB765970FB6F894DEBF0FBEBE
:1050B000CDBF8C01DC0111966C93119786E056965A
:1050C0008C93F801779680E091E0DF019C011D92BE
:1050D00021503040E1F7ED52FE4F8AE5DF011D928D
:1050E0008A95E9F7E15DF10910828CE3F801878B7D
:1050F0008DE3808F8EE3818F613009F0FFC0809156
:10510000C310873410F480E801C086E8D8015A96AD
:105110008C935A975B961C925B9783E25C968C9378
:105120007801B9EEEB1ABEEFFB0A86E090E0F701DA
:10513000918380838091C3109E012F5F3F4F69014F
:10514000873460F17091CB106091CA105091C910F2
:105150004091C8103091C7102091C6109091C51091
:105160008091C4101F927F931F926F931F925F9341
:105170001F924F931F923F931F922F931F929F93C3
:105180001F928F938DE095E09F938F931F9281E103
:105190008F93DF92CF920E94058C17C03091C81078
:1051A0002091C9109091CA108091CB103F932F93FA
:1051B0009F938F938EE295E09F938F931F9281E14F
:1051C0008F93DF92CF920E94058C0FB6F894DEBFCA
:1051D0000FBECDBFD601F60101900020E9F731974F
:1051E000EC19FD09CD018C199D098E179F0778F4E4
:1051F0002D91222361F0F70180819181F801E80F60
:10520000F91F278B0196F70191838083E4CFD701A3
:105210008D919C911197F801E80FF91F23E2278BDC
:1052200001968D939C93F801349698012C5E3F4F24
:105230004FE58191811144C0F70180819181F8018E
:10524000E80FF91F23E2A22EA78A0196D7018D93BA
:105250009C93C8010E944128B82E6E01B2E1CB0E8A
:10526000D11C4AE0B60190E00E94C38BF601019088
:105270000020E9F73197AF014C195D09F7018081F2
:1052800091814796B601800F911F0E942B8BF601EA
:1052900001900020E9F731979F012C193D09D701B2
:1052A0004D915C911197240F351FF801E20FF31F08
:1052B000A78A2F5F3F4F2D933C9361E06B0D87C012
:1052C000D701833241F48D919C91DC01A00FB11F75
:1052D00057964C9307C06D917C91DB01A00FB11FD5
:1052E00057968C93D7018D919C91119701968D9330
:1052F0009C93E217F30709F09CCF9ECF61118AC0FF
:105300008091C310873410F480E001C086E0F8017A
:10531000828F3091C8102091C9109091CA1080914D
:10532000CB104091C310B801695E7E4F7B014734BA
:10533000D8F08091C410848F8091C510858F8091A2
:10534000C610868F8091C710878F8091C81080A368
:105350008091C91081A38091CA1082A38091CB1043
:1053600083A38DE090E007C0F801348F258F968FDE
:10537000878F89E090E0D7018D939C93F801349654
:1053800098012C5E3F4F4FE58191811125C0F701B7
:1053900080819181F801E80FF91F23E2278B0196A4
:1053A000D7018D939C93C8010E944128F701208169
:1053B0003181F801E20FF31F878B2F5F3F4FD70139
:1053C0002D933C932550F801238F61E0680F83EA09
:1053D00090E00E94B0921EC0D701833241F48D91BB
:1053E0009C91DC01A00FB11F57964C9307C06D91A3
:1053F0007C91DB01A00FB11F57968C93D7018D9143
:105400009C91119701968D939C93E217F30709F0F5
:10541000BBCFBDCF65960FB6F894DEBF0FBECDBF34
:10542000DF91CF911F910F91FF90EF90DF90CF9080
:10543000BF90AF900895CF93C62FBA018DEA96E042
:105440000E949E276C2F8DEA96E0CF910C944728FE
:105450008DEA96E00C942528CF92DF92EF920F937D
:105460001F93CF93DF93EC0180E092ECA1E0B0E0DA
:1054700089839A83AB83BC8388E893E1A0E0B0E0A2
:105480008D839E83AF83B88784E690E0A0E0B0E090
:1054900089879A87AB87BC8781E08D87FE01E254BC
:1054A000FD4F88E0DF011D928A95E9F7389610825A
:1054B000319610826EE2CE0188539D4F0E94F749CB
:1054C0009E012C5E3D4F8EE1F901982F11929A9525
:1054D000E9F78E010E5C1D4FD801E82F1D92EA9569
:1054E000E9F7DE01A05BBD4FFD0111928A95E9F756
:1054F00081E4C82E80E5D82E8EE4E82EF901C08222
:10550000D182E28245E753E765E672E7F80140831E
:1055100051836283738388E0E2E3F5E001900D92AA
:105520008A95E1F7E8E5F1E3859194919F938F9354
:10553000CE0182599D4F9F938F930E94428CCE0142
:1055400044969F878E8780E092E0998B888B0F909E
:105550000F900F900F90DF91CF911F910F91EF90CF
:10556000DF90CF900895CF93DF93EC0128EB3BE0E1
:1055700040E050E06CE375E00E94C861882351F080
:10558000BE0169517D4F4BE355E0CE010E9442635D
:1055900080E001C081E0DF91CF9108952F923F928A
:1055A0004F925F926F927F928F929F92AF92BF9233
:1055B000CF92DF92EF92FF920F931F93CF93DF93DF
:1055C000CDB7DEB7C952D2400FB6F894DEBF0FBEDA
:1055D000CDBF5C01762E4A01302E212E6E2CC95D86
:1055E000DD4FF882C752D24026018E01005F1D4F69
:1055F00084E1F80111928A95E9F7409103095091ED
:1056000004096091FF0870910009C801C85DDD4F71
:105610002883C852D240C75DDD4F3883C952D2407B
:105620000E94738B6FE375E0C8010E94638BC85DB5
:10563000DD4F2881C852D240C75DDD4F3881C95245
:10564000D240892B09F443C1CC5DDD4F1882198209
:105650001A82C452D240EAE4F1E3859194913F93D7
:105660002F939F928F929F938F939E012F5F3F4F17
:1056700049013F932F930E94428CE0EDCE2EE7E04C
:10568000DE2EE12CF12C09E415E020E535E048E8B8
:1056900055E0B401C5010E94E3600FB6F894DEBF87
:1056A0000FBECDBF823031F4F501E951FD4F8FEFD0
:1056B0009FEF0EC0833029F4C5010E94B32A81E018
:1056C00007C1811108C0F501E951FD4F8EEF9FEF31
:1056D00091838083F4CFF2E0F71528F1ECE4F1E355
:1056E000859194912F923F921F927F929F938F93D7
:1056F0009F928F920E94428C18E8E12E13E1F12EC6
:1057000000E010E020E535E048E855E0B401C501CF
:105710000E94CA600FB6F894DEBF0FBECDBF8130C5
:1057200009F0CFC0CCC08DEF870D823008F042C0A9
:10573000EEE4F1E325913491C50182599D4F9F9389
:105740008F935F924F922F923F92872D90E0039715
:105750009F938F933F932F939F928F920E94428C9F
:1057600018E8E12E13E1F12E00E010E020E535E02D
:1057700048E555E0B401C5010E94CA600FB6F8942F
:10578000DEBF0FBECDBF813009F09BC064E670E084
:1057900080E090E00E94614020E535E048E855E077
:1057A000662DC95DDD4F7881C752D240C5010E9488
:1057B000CA6083C0F5E07F1288C0E4E5F1E365913B
:1057C00074911E012BE0221A2EEF320AC1010E94B1
:1057D000138BEEE4F1E385919491950122593D4FAD
:1057E0003F932F9392012D5F3F4F220F331F3F9323
:1057F0002F933F922F921F921F929F938F939F926E
:105800008F920E94428C18E8E12E13E1F12E00E005
:1058100010E020E535E048E555E0B401C5010E94FF
:10582000CA600FB6F894DEBF0FBECDBF813009F05D
:1058300048C064E670E080E090E00E946140E6E5E8
:10584000F1E365917491C4010E94138B61E0C4017E
:105850000E94B143862CC95DDD4F9880C752D2406B
:10586000480C591C84149504E9F021E0AE014C5D0C
:105870005D4FB40182EC90E10E94666861E0CC5D0E
:10588000DD4F8881C452D2400E94A44361E0CB5DC9
:10589000DD4F8881C552D2400E94A443FFEF8F1A8A
:1058A0009F0AE0CF08E813E120E030E040E555E052
:1058B00068E875E0C5010E94DF61813021F480E075
:1058C00007C082E005C083E003C084E001C085E03A
:1058D000C75DDD4F0FB6F894DEBF0FBECDBFDF91C1
:1058E000CF911F910F91FF90EF90DF90CF90BF90DD
:1058F000AF909F908F907F906F905F904F903F9070
:105900002F900895AF92BF92CF92DF92EF92FF92C5
:105910000F931F93CF93DF93CDB7DEB7E6970FB604
:10592000F894DEBF0FBECDBF6C019A01AB01E0E57C
:10593000F1E365917491CE0101965C012BAB3CAB18
:105940004DAB5EAB0E94138B2BA93CA94DA95EA960
:10595000B501C6010E94C861882309F474C028E813
:1059600033E140E050E06FEB75E0C6010E94C86192
:10597000882309F46AC062E875E0D6011E968D910D
:105980009C911F970E941A8B009709F460C00E9497
:10599000C58AF601EB50FD4F9183808362E875E084
:1059A00080E090E00E941A8B62E875E0F60186853F
:1059B00097850E941A8B009709F44BC00E94C58AF4
:1059C000892B09F448C0E2E5F1E3859194911F9297
:1059D0001F921F921F929F938F93BF92AF920E942C
:1059E000428C10EDE12E17E0F12E00E010E020E5F2
:1059F00035E04CE555E0B501C6010E94CA600FB61E
:105A0000F894DEBF0FBECDBF8130C9F428E833E182
:105A100040E050E06FEB75E0C6010E94C86188234A
:105A2000E1F0D6011E96ED91FC911F9752968D9153
:105A30009C915397E80FF91F108280E011C08230CB
:105A400071F087E00DC081E00BC082E009C083E007
:105A500007C084E005C088E003C085E001C086E09F
:105A6000E6960FB6F894DEBF0FBECDBFDF91CF91A3
:105A70001F910F91FF90EF90DF90CF90BF90AF906C
:105A800008955F926F927F928F929F92AF92BF9292
:105A9000CF92DF92EF92FF920F931F93CF93DF93FA
:105AA000CDB7DEB7C456D1090FB6F894DEBF0FBE2E
:105AB000CDBF5C014C0189E0881A8DEF980AF40192
:105AC00010821182128213823E01F3E36F0E711C69
:105AD00082E3582EF301852D11928A95E9F7E2E2CF
