:100000000C94B5180C9499730C94CA730C94FB73EC
:100010000C942F740C9463740C9494740C94C574A5
:100020000C94F6740C94DF180C94DF180C94DF1801
:100030000C941E360C94DF180C94DF180C947A364E
:100040000C94DF180C94DF180C94DF180C94DF1854
:100050000C94DF180C94DF180C94DF180C945536B0
:100060000C94DF180C948F390C94DF180C94DF1863
:100070000C94DF180C94DF180C94DF180C94DF1824
:100080000C94DF180C94DF180C94DF180C94DF1814
:100090000C94D0390C94DF180C94DF180C94B777BB
:1000A0000C94DF180C94DF180C94DF180C94DF18F4
:1000B0000C94DF180C94DF180C94DF180C94DF18E4
:1000C0000C94DF180C94DF180C94DF185F1B621B74
:1000D000651B681B6B1B6E1B711B741B771B7A1BCC
:1000E0007D1B801B831B861B891B8C1B8F1B921BFC
:1000F000951B981B9B1B9E1BA11BA41B5D2E602E9A
:10010000632E662E692E6C2E6F2EAF45BE45DD45E3
:10011000EC45FB450A4619468E469C46AA46B8461B
:10012000BB46C946D746E546F34601470F471D473C
:100130002B473947A74AC04AD84AE94AF34A0D4BE8
:10014000754B9054935496549D54A654AF54B85440
:1001500082738473867388738A738F738C738E73C0
:10016000007A0E7A157A177A197A1B7A1D7A362E4A
:100170002057616B6520757021210A0A0058585874
:1001800058585858585858585858585858585858EF
:1001900058585858585858585858585858585858DF
:1001A00058585858585858585858585858585858CF
:1001B00058585858585858585858585858585858BF
:1001C00058585858585858585858585858585858AF
:1001D000585858585858585858585858585858589F
:1001E000585858585858585858585858585858588F
:1001F000585858585858585858585858585858587F
:10020000585858585800352E20456E746572206431
:1002100065657020736C6565702E2E2E007171718E
:1002200071717171007171717171717100717171A0
:100230007171717100717171717171710071717190
:100240007171717100717171717171710071717180
:100250007171717100717171717171710071717170
:100260007171717100717171717171710076767651
:10027000767676767676767676767676767676761E
:10028000767676767676767676767676767676760E
:1002900076767676767676767676767676767676FE
:1002A00076767676767676767676767676767676EE
:1002B00076767676767676767676767676767676DE
:1002C00076767676767676767676767676767676CE
:1002D00076767676767676767676767676767676BE
:1002E00076767676767676767676767676767676AE
:1002F00076007C7C7C7C7C7C7C7C7C7C7C7C7C7CC0
:100300007C7C7C7C7C7C7C7C7C7C7C7C7C7C7C7C2D
:100310007C7C7C7C7C7C7C7C7C7C7C7C7C7C7C7C1D
:100320007C7C7C7C7C7C7C7C7C7C7C7C7C7C7C7C0D
:100330007C7C7C7C7C7C7C7C7C7C7C7C7C7C7C7CFD
:100340007C7C7C7C7C7C7C7C7C7C7C7C7C7C7C7CED
:100350007C7C7C7C7C7C7C7C7C7C7C7C7C7C7C7CDD
:100360007C7C7C7C7C7C7C7C7C7C7C7C7C7C7C7CCD
:100370007C7C7C7C7C7C005E5E5E5E5E5E5E5E5E47
:100380005E5E5E5E5E5E5E5E5E5E5E5E5E5E5E5E8D
:100390005E5E5E5E5E5E5E5E5E5E5E5E5E5E5E5E7D
:1003A0005E5E5E5E5E5E5E5E5E5E5E5E5E5E5E5E6D
:1003B0005E5E5E5E5E5E5E5E5E5E5E5E5E5E5E5E5D
:1003C0005E5E5E5E5E5E5E5E5E5E5E5E5E5E5E5E4D
:1003D0005E5E5E5E5E5E5E5E5E5E5E5E5E5E5E5E3D
:1003E0005E5E5E5E5E5E5E5E5E5E5E5E5E5E5E5E2D
:1003F0005E5E5E5E5E5E5E5E5E5E5E00777269742D
:1004000065696E672069732068617665696E67202B
:100410006572726F7273007772697465696E6720B6
:100420006973204F4B0066696C65204E4F54206302
:100430007265617465640066696C652063726561EC
:100440007465640066696C65204E4F542064656C69
:10045000657465640066696C652064656C657465C7
:10046000640053445F434152445F415248495645FA
:100470005F56315F5254435F4F5441505F34475F82
:1004800042415245424F4E4553002D2D2D2D2D2DCD
:100490002D2D2D2D2D2D2D2D2D2D2D2D2D2D2D2D8C
:1004A0002D2D2D2D2D2D2D0050726F6772616D2019
:1004B00076657273696F6E3A200050726F67726171
:1004C0006D2076657273696F6E3A200050726F67A7
:1004D00072616D2069643A20002D2D2D2D2D2D2D5A
:1004E0002D2D2D2D2D2D2D2D2D2D2D2D2D2D2D2D3C
:1004F0002D2D2D2D2D2D0052455354415254494E32
:100500004700524550524F4752414D4D494E4720AA
:100510004F4B00524550524F4752414D4D494E4767
:10052000204552524F5200352E205377697463682C
:10053000204F4646203447206D6F64756C6500344B
:1005400047206D6F64756C65206E6F7420737461E5
:1005500072746564004F54412072657175657374DF
:10056000206661696C65642E204572726F7220632B
:100570006F64653A20003D3D3E205265717565739C
:1005800074204F54412E2E2E00312E203447206DE2
:100590006F64756C652072656164792E2E2E005330
:1005A00054415254494E47204F54415020564552D1
:1005B00053494F4E20434845434B00756E6B6E6F59
:1005C000776E006572726F7220646F776E6C6F6108
:1005D00064696E672062696E6172792066696C6514
:1005E0003A2073697A65206D69736D617463680080
:1005F0006572726F7220646F776E6C6F6164696E82
:10060000672062696E6172792066696C653A206E56
:100610006F206D6F726520726574726965732067F3
:10062000657474696E672064617461006572726FCD
:100630007220646F776E6C6F6164696E67206269A7
:100640006E6172792066696C653A206572726F72AC
:100650002077726974696E67205344006572726F07
:100660007220646F776E6C6F6164696E6720626977
:100670006E6172792066696C653A207061636B65A2
:10068000742073697A65206D69736D6174636800A5
:100690006572726F7220646F776E6C6F6164696EE1
:1006A000672062696E6172792066696C653A2065BF
:1006B00072726F72202067657474696E6720706152
:1006C000636B65742073697A65006572726F72205E
:1006D000646F776E6C6F6164696E672062696E61CA
:1006E00072792066696C653A206572726F72206D4E
:1006F0006F64756C652072657475726E73206572B7
:10070000726F7220636F6465206166746572207217
:10071000657175657374696E6720646174610065E5
:1007200072726F7220646F776E6C6F6164696E674E
:100730002062696E6172792066696C653A20657223
:10074000726F72206F70656E696E672074686520C5
:1007500047455420636F6E6E656374696F6E006504
:1007600072726F7220646F776E6C6F6164696E670E
:100770002062696E6172792066696C653A206572E3
:10078000726F722073657474696E67207468652077
:10079000706F696E746572206F662074686520667C
:1007A000696C65006572726F7220646F776E6C6F32
:1007B0006164696E672062696E6172792066696C36
:1007C000653A206572726F72206F70656E696E6730
:1007D000207468652066696C65006572726F7220AE
:1007E000646F776E6C6F6164696E672062696E61B9
:1007F00072792066696C653A206572726F72206347
:1008000072656174696E67207468652066696C65DD
:1008100020696E205344006572726F7220646F7796
:100820006E6C6F6164696E672062696E61727920B7
:1008300066696C653A205344206E6F74207072654F
:1008400073656E74006572726F7220646F776E6C80
:100850006F6164696E672062696E61727920666992
:100860006C653A2072656164696E67207468652002
:1008700066696C652073697A65006572726F7220B3
:10088000646F776E6C6F6164696E672062696E6118
:1008900072792066696C653A20736572766572209C
:1008A00066696C652073697A65206973207A657260
:1008B0006F0066696C652073697A6520646F657383
:1008C000206E6F74206D6174636820696E205550CE
:1008D00047524144452E54585420616E642073653C
:1008E0007276657200696E76616C69642070726FF1
:1008F0006772616D2076657273696F6E206E756DBB
:10090000626572006E6F202756455253494F4E273D
:10091000207061747465726E20666F756E64006E0F
:100920006F202753495A4527207061747465726E91
:1009300020666F756E64006E6F2027504154482703
:10094000207061747465726E20666F756E64002726
:100950004E4F5F46494C45272069732074686520D7
:1009600066696C656E616D65006E6F202746494C47
:100970004527207061747465726E20666F756E64B1
:100980000066696C656E616D6520697320646966D7
:10099000666572656E7420746F20372062797465A5
:1009A00073006572726F72206F70656E696E67207A
:1009B0004654502073657373696F6E006572726F71
:1009C0007220646F776E6C6F6164696E672055503A
:1009D00047524144452E545854005344206E6F747E
:1009E0002070726573656E7400322E2053776974BF
:1009F0006368204F4646203447206D6F64756C65F0
:100A0000004572726F7220636F64653A200034474C
:100A1000206D6F64756C65206E6F742073746172E5
:100A200074656400312E203447206D6F64756C65E9
:100A300020726561647900342E205377697463688D
:100A4000204F4646203447206D6F64756C65004525
:100A500072726F7220636F64653A20003447206DB4
:100A60006F64756C65206E6F742073746172746549
:100A700064004661696C65642E204572726F722055
:100A8000636F64653A2000446F6E652E20485454AD
:100A90005020636F64653A200053656E64696E6729
:100AA00020746865206672616D652E2E2E00312ED1
:100AB000203447206D6F64756C65207265616479C0
:100AC0002E2E2E0074696D653A20002076732075F5
:100AD000736572207361797320003A206170692018
:100AE0007361797320004572726F722073656E7343
:100AF0006F7220747970652026206E6669656C645B
:100B000073206D69736D6174636820666F7220690C
:100B10006E64657820005B4652414D455D200020A3
:100B200076732075736572207361797320003A20A3
:100B3000617069207361797320004572726F722051
:100B400073656E736F722074797065206D69736D53
:100B50006174636820666F7220696E646578200036
:100B60005B4652414D455D200020767320003A20BF
:100B7000004572726F722073656E736F72207479A4
:100B80007065206D69736D6174636820666F722093
:100B9000696E64657820005B4652414D455D2000DA
:100BA0000101010101010101010101010101010135
:100BB0000101010101010101010101010101010125
:100BC000010101010101010101010202030301010F
:100BD00001010101010201010101030301010103FE
:100BE00001010101010101010102010101010101F4
:100BF00001010101010101010101010101010101E5
:100C000001010101010101010101010101010101D4
:100C100001010101010101010101010101010101C4
:100C200001010101010101010101010101010101B4
:100C300001010101010101010101010101010101A4
:100C40000101010101010101010101010101010194
:100C50000101010101010101010101010101010184
:100C60000101010101010101010101010101010174
:100C70000101010101010101010101010101010164
:100C80000101010101010101010101010102020251
:100C90000202020202040401010202020202020232
:100CA0000202020202020202020202020202020224
:100CB000020202020202020101010101010100001F
:100CC000010002010303030000010102010403000B
:100CD00000030302020204020202020401000000F7
:100CE00000000000000002020202020200000000F8
:100CF00000000000000000000000000000000000F4
:100D000000000000000000000400000000000000DF
:100D100000000002020202020202020202020202B9
:100D200002020202020202020202020202020202A3
:100D30000202020202020202020202020202020293
:100D40000202020202020202020202020202020283
:100D50000202020202020202020202020202020273
:100D60000202020202020202020202020202020263
:100D70000202020202020202020292138D13871380
:100D800080137B1376137013691363135D13581369
:100D900053134D13471341133B13351330132B13C8
:100DA000261321131C13171312130D130813031307
:100DB000FE12F912F412EF12EA12E412DD12D4124A
:100DC000CC12C512BE12B712B112AA12A4129B12F3
:100DD00095128F12891282127C12761270126A1288
:100DE000641260125C125712531250124C124712C6
:100DF00042123E123A1232122E12271223122212DD
:100E000021121D121A12161210120B1206120312C0
:100E10000012FC11F711F311F011EF11EE11ED11A9
:100E2000EC11EB11EA11E911E811E711DE11D4110F
:100E3000D011CB11C611C111C011BF11BE11BD110E
:100E4000BC11BB11BA11B911B811B711B611B51156
:100E5000B411B311B211B111B011AF11AE11AD1186
:100E6000AC11AB11AA11A911A811A711A611A511B6
:100E7000A111A0119B1195118F118C118B118A1149
:100E800089118811871181117B1175116F116911F9
:100E900064115F115A11551150114B114611411136
:100EA0003C11371132112D11281123111E11181167
:100EB00012110C1106110011FB10F610F110EC10BC
:100EC000E710E210DD10D810D310CE10C910C410F6
:100ED000BF10BA10B510AF10A910A3109D10971035
:100EE00092108D10881083107E10791074106F107E
:100EF0006A1065105F10591053104D1047104110C3
:100F00003B1035102F10291023101D101710111031
:100F10000B1006100110FC0FF70FF20FEC0FE60F8D
:100F2000E00FDA0FD40FCF0FCA0FC50FC00FBB0FE2
:100F3000B60FB10FAC0FA70FA20F9C0F960F900F1B
:100F40008A0F840F7E0F780F720F6C0F660F600F81
:100F50005A0F540F5443375F44005443375F4300E4
:100F60005443375F42005443375F41004449535F65
:100F700044004449535F43004449535F420044499D
:100F8000535F41005446415F45005446415F440071
:100F90005446415F43005446415F42005446415F1E
:100FA000410053535F450053535F440053535F4325
:100FB0000053535F420053535F410053425F45006B
:100FC00053425F440053425F430053425F42005329
:100FD000425F41005443365F45005443365F44004E
:100FE0005443365F43005443365F42005443365FF8
:100FF000410043555F450043555F440043555F43FF
:101000000043555F420043555F41005341315F4506
:10101000005341315F44005341315F43005341313C
:101020005F42005341315F4100434E315F45004311
:101030004E315F4400434E315F4300434E315F42C7
:1010400000434E315F41005443355F450054433502
:101050005F44005443355F43005443355F420054BE
:1010600043355F4100544D5F4500544D5F4400548B
:101070004D5F4300544D5F4200544D5F4100544E5C
:101080005F4500544E5F4400544E5F4300544E5F32
:101090004200544E5F41005443345F450054433492
:1010A0005F44005443345F43005443345F42005470
:1010B00043345F410054445F450054445F4400544E
:1010C000445F430054445F420054445F4100534135
:1010D0005F450053415F440053415F430053415F0C
:1010E000420053415F4100434E5F4500434E5F4421
:1010F00000434E5F4300434E5F4200434E5F41005A
:101100005443335F45005443335F44005443335FDB
:1011100043005443335F42005443335F4100504D1A
:101120005F4500504D5F4400504D5F4300504D5FA0
:101130004200504D5F410052585F450052585F4495
:101140000052585F430052585F420052585F4100BE
:1011500050485F450050485F440050485F4300508E
:10116000485F420050485F41005443325F4500549D
:1011700043325F44005443325F43005443325F4282
:10118000005443325F4100000000000050530056FD
:10119000424F4F54005650524F470056415049005D
:1011A0000054535400000000000000000000000044
:1011B000000000000000000000000000000000002F
:1011C0000050444F500056444F500048444F500088
:1011D000414C5400434F555253455F4F47005350C5
:1011E0004545445F4F47000000000000000000003C
:1011F0005553004C555800505245530048554D002A
:101200005446005443005041525400504D31300078
:10121000504D325F3500504D310052420055494427
:10122000000000535452004D494C4C495300414377
:101230004300494E5F54454D500052414D00474DCB
:10124000540054494D450044415445004E49440022
:101250004E41004D41430052535349004750530003
:101260004241540043425F46500043425F545000A5
:1012700043425F464C0043425F46520043425F5642
:10128000530043425F52504D004D425F4952004D62
:10129000425F4852004D425F4449004D425F434F18
:1012A000494C5300454D5F544300454D5F48444F02
:1012B00000454D5F434C00454D5F4E4F3300454D5B
:1012C0005F4E483400454D5F43484C00454D5F43F9
:1012D0004F4E4400454D5F444550544800454D5FD6
:1012E0004F525000454D5F5048004F505F45004FF2
:1012F000505F44004F505F43004F505F42004F50DB
:101300005F41004F4D5F45004F4D5F44004F4D5FC3
:1013100043004F4D5F42004F4D5F41004F535F45CB
:10132000004F535F44004F535F43004F535F4200F1
:101330004F535F41005443315F45005443315F4494
:10134000005443315F43005443315F420054433102
:101350005F410055535F440055535F41004C555861
:101360005F44004C55585F4100505245535F440064
:1013700048554D5F440054465F440054435F440069
:10138000505245535F410048554D5F410054465F00
:10139000410054435F4100010101010101010101CC
:1013A000010101010101010101010101010101012D
:1013B000010101010101010101010101010101011D
:1013C0000102020303010101010101010201010106
:1013D00001030301010103010101010101010101F7
:1013E00002010101010101010101010101010101EC
:1013F00001010101010101010101010101010101DD
:1014000001010101010101010101010101010101CC
:1014100001010101010101010101010101010101BC
:1014200001010101010101010101010101010101AC
:10143000010101010101010101010101010101019C
:10144000010101010101010101010101010101018C
:10145000010101010101010101010101010101017C
:10146000010101010101010101010101010101016C
:10147000010101010101010101010101010101015C
:10148000010101010101010101010101010101014C
:101490000101010101010102020202020202020431
:1014A000040101020202020202020202020202021C
:1014B000020202020202020202020202020202020C
:1014C0000201010101010101000001000201030309
:1014D00003000001010201040300000303020202F1
:1014E00004020202020401000000000000000000EB
:1014F00002020202020201010102020202000000D5
:1015000000000000000000000000000000000000DB
:1015100000000400000000000000000000020202C1
:10152000020202020202020202020202020202029B
:10153000020202020202020202020202020202028B
:10154000020202020202020202020202020202027B
:10155000020202020202020202020202020202026B
:10156000020202020202020202010102020102035D
:10157000020200010101020202020301020303034D
:101580000303030302020201020202020202010239
:10159000020201030102036B1C661C601C591C54EF
:1015A0001C4F1C491C421C3C1C361C311C2C1C2989
:1015B0001C241C1F1C1A1C151C0F1C091C031CFDC1
:1015C0001BF81BF31BEE1BE91BE61BE31BE01BDAFE
:1015D0001BD41BCE1BC81BC21BBC1BB61BB01BAA3B
:1015E0001BA41B9E1B981B921B8C1B831B7D1B77B4
:1015F0001B711B6A1B641B5E1B581B521B4C1B4838
:101600001B441B3F1B3B1B381B341B2F1B2A1B2659
:101610001B221B1A1B161B0F1B0B1B0A1B091B056E
:101620001B021BFE1AF81AF31AEE1AEB1AE81AE458
:101630001ADF1ADB1AD81AD71AD61AD51AD41AD31F
:101640001AD21AD11AD01ACF1AC61ABC1AB81AB39B
:101650001AAE1AA91AA51A9D1A951A911A8D1A89E5
:101660001A851A811A801A7F1A7E1A7D1A7C1A7BB3
:101670001A7A1A791A781A771A761A751A741A73E6
:101680001A721A711A701A6F1A6E1A6D1A691A681C
:101690001A631A5D1A571A541A531A521A511A50C9
:1016A0001A4F1A4A1A451A401A3B1A351A2F1A2984
:1016B0001A231A1D1A171A111A0B1A051AFF19F9EB
:1016C00019F319ED19E719E119DB19D519CF19C962
:1016D00019C319BD19B719B119AB19A5199F1999D2
:1016E0001993198D19871981197B19761971196C3C
:1016F00019671961195B1955194F194A194519408C
:10170000193B19361931192C19271922191D1918C5
:101710001913190D1907190119FB18F518EF18E914
:1017200018E318DE18D918D418CF18C918C318BD73
:1017300018B718B118AB18A5189F189C18981895C9
:101740001891188C188718831880187D18791875C7
:101750001870186B186818651862185E185B1855B1
:10176000184E18471840183A1834182E18281822FE
:10177000181A18101807180118FA17F417EE17E8B6
:1017800017E117DB17D517CD17C417BC17B317AB65
:1017900017A5179E1797174750535F53540047508C
:1017A000535F5350004750535F48004750535F4CBE
:1017B0004F43004750535F47444952004750535FDF
:1017C000475350004750535F4143535000475053D5
:1017D0005F4353500048495F57530057435F575387
:1017E000005742545F57530041445F5753004148EC
:1017F0005F57530044505F57530054454D5F575354
:101800000052485F57530050524553535F5753009F
:1018100050524553534C5F575300505245535F57F6
:10182000530054415F575300544E5F575300544385
:101830005F57530050535F57530053545F57530043
:10184000534E545F5753005352545F5753005353F2
:10185000485F57530053525F575300535400535639
:101860004F005A4F00595400585400434D505300F4
:1018700041435744004357440050535400504900DB
:101880005054005753530041574753004157474462
:1018900000415753005753004157440057440054E8
:1018A00043375F44005443375F43005443375F423C
:1018B000005443375F41004450335F440044503389
:1018C0005F43004450335F42004450335F41004C5B
:1018D000545F44004C545F43004C545F42004C54EE
:1018E0005F41004254325F44004254325F43004241
:1018F00054325F42004254325F41005443365F44E9
:10190000005443365F43005443365F42005443362D
:101910005F410057505F440057505F430057505F8E
:10192000420057505F410041505F440041505F43C7
:101930000041505F420041505F410052485F440007
:1019400052485F430052485F420052485F41005492
:1019500043355F44005443355F43005443355F4291
:10196000005443355F410056505F440056505F437A
:101970000056505F420056505F41005443345F446C
:10198000005443345F43005443345F4200544334B3
:101990005F41004543325F44004543325F430045A9
:1019A00043325F42004543325F41004450325F445E
:1019B000004450325F43004450325F420044503292
:1019C0005F41005443335F44005443335F4300544A
:1019D00043335F42005443335F41004543315F442A
:1019E000004543315F43004543315F420045433189
:1019F0005F41004450315F44004450315F43004434
:101A000050315F42004450315F41004D56325F44D7
:101A1000004D56325F43004D56325F42004D563204
:101A20005F41005443325F44005443325F430054EB
:101A300043325F42005443325F4100434F5F4400F2
:101A4000434F5F4300434F5F4200434F5F410000FD
:101A50000000000050530056424F4F540056505261
:101A60004F470056415049000054535400000000B5
:101A70000000000000000000000000000000000066
:101A8000004E434E005053480057535000505443AB
:101A900000455443005343325F52414400534331A5
:101AA0005F524144005241440050444F500056445C
:101AB0004F500048444F5000414C5400434F555242
:101AC00053455F4F470053504545445F4F47000023
:101AD00000000000000000005553004C5558005015
:101AE0005245530048554D00544600544300504160
:101AF000525400504D313000504D325F3500504D42
:101B00003100524200554944000000535452004DE8
:101B1000494C4C49530041434300494E5F54454DA5
:101B2000500052414D00474D540054494D4500442A
:101B3000415445004E4944004E41004D414300523E
:101B400053534900475053004241540043425F46BB
:101B5000500043425F54500043425F464C004342B2
:101B60005F46520043425F56530043425F52504D1E
:101B7000004D425F4952004D425F4852004D425F66
:101B80004449004D425F434F494C53004254315F3A
:101B900044004254315F43004254315F420042549A
:101BA000315F41004D56315F44004D56315F430077
:101BB0004D56315F42004D56315F41005443315F15
:101BC00044005443315F43005443315F4200544367
:101BD000315F41004355525F42004355525F46001A
:101BE00046440053440054440055565F4600555641
:101BF0005F450055565F430055565F4200504152C5
:101C00005F46005041525F45005041525F430050D3
:101C100041525F420053525F460053525F450053AA
:101C2000525F430053525F42004C570055535F448C
:101C30000055535F41004C55585F44004C55585F68
:101C40004100505245535F440048554D5F44005495
:101C5000465F440054435F4400505245535F410087
:101C600048554D5F410054465F410054435F410079
:101C70000101010101010101010101010101010154
:101C80000101010101010101010101010101010144
:101C90000101010101010101010101010101010134
:101CA000010101010102010101010303010101031D
:101CB0000101010101010101010201010101010113
:101CC0000101010101010101010101010101010104
:101CD00001010101010101010101010101010101F4
:101CE00001010101010101010101010101010101E4
:101CF00001010101010101010101010101010101D4
:101D000001010101010101010101010101010101C3
:101D100001010101010101010101010101010101B3
:101D20000101010102020303010101010101181077
:101D30000801010101010101020202020202020284
:101D40000202020202020202020202020202000077
:101D50000000000000000202020202020000000077
:101D6000020000000000000000000000000201036B
:101D70000303000001010201040303030303020241
:101D80000204020202020401000000000000000040
:101D9000000202020202020000000000020202022F
:101DA0000202020202020202020202020202020213
:101DB000020000040000000000020202020202020F
:101DC0000202020200000000000000000000020207
:101DD00002020202020002020202020202020202E5
:101DE00002000202020000020202020001010101DF
:101DF00001010100000101010102020204040200CC
:101E0000D022CC22C922C522C222BE22BA22B622A8
:101E1000B222AE22AB22A722A422A0229C22992287
:101E2000952291228D22892285227F227E227D2267
:101E30007C227B227A2279227822772272226D22DA
:101E4000682267226622612260225F225E225D2272
:101E50005A225622532250224B22472242223D220E
:101E6000382233222E222D222922252220221C2212
:101E70001922152210220B2207220322FB21F7210F
:101E8000F021EC21EB21EA21E621E321DF21D92118
:101E9000D421CF21CC21C921C521C021BC21B92108
:101EA000B821B721B621B521B421B321B221B12186
:101EB000B021A7219D21992194218F218A21892157
:101EC00088218721862185217F21792173216C2119
:101ED000662160215A2154214D21472141213B2176
:101EE00035212E21262121211B2115210F210921F8
:101EF000032102210121FD20FC20F720F120EB200D
:101F0000E820E420E120DD20DA20D520D220CD20F9
:101F1000C820C320BD20B720B620B520B420B320F0
:101F2000B220B120B020AF20AE20AD20A720A1204C
:101F30009B2094208D208A20862083207E2079205B
:101F4000742070206D206A20672064205D20562058
:101F50004F204E204A204520412040203F2039205C
:101F600033202D20272026201D20172011200B2074
:101F70000420FE1FF81FF21FEC1FE61FDF1FD71FF4
:101F8000CF1FC71FC01FB71FAF1FA11F971F901FD5
:101F9000524553554C54005448524553484F4C44B5
:101FA0000046455645525F434F554E5445520043F7
:101FB0004F554E5445520053493442315F5443000B
:101FC0004149525F544300555345525F54430050BA
:101FD0004D5F42494E4800504D5F42494E4C0050C3
:101FE0004D5F42494E0043425F46500043425F54BA
:101FF000500043425F464C0043425F46520043421A
:102000005F56530043425F52504D004D425F49526C
:10201000004D425F4852004D425F4449004D425FCF
:10202000434F494C5300004355525F4400435552BF
:102030005F43004355525F42004355525F410000E9
:10204000004C554D0048554D42005443420000534A
:102050004F494C5F4500534F494C5F4300534F4934
:102060004C5F42004644005344005444005556001F
:1020700050415200504C563300504C563200504C98
:10208000563100575600414E45004C5700534F49BA
:102090004C544600534F494C544300534F494C3322
:1020A00000534F494C3200534F494C31000000005F
:1020B000000000000000004F52505F45004F52509A
:1020C0005F410050485F450050485F410054555201
:1020D0004200575400434F4E4400444F004F52506B
:1020E000005048005241440050530056424F4F5454
:1020F000005650524F470056415049000054535427
:102100000000005357495F44005357495F43005351
:1021100057495F42005357495F41005357494E4169
:10212000005357494B00535749434C4F34005357C2
:10213000494E4F32005357494D47005357494C4978
:102140000053574950480053574941470053574996
:102150004E483400535749494F005357494355009F
:10216000535749434C005357494252005357494E25
:102170004F3300535749464200535749464C00538A
:102180005749434100000000000050444F500056A2
:10219000444F500048444F5000414C5400434F5569
:1021A0005253455F4F470053504545445F4F4700EA
:1021B0000000000000000000005553004C5558007E
:1021C000505245530048554D00544600544300506A
:1021D00041525400504D313000504D325F35005067
:1021E0004D31005242005549440000005354520002
:1021F0004D494C4C49530041434300494E5F5445BF
:102200004D500052414D00474D540054494D45003A
:1022100044415445004E4944004E41004D41430065
:102220005253534900475053004241540000455611
:102230005F450045565F440045565F430045565F85
:102240004100524F55540052494E0048414C4C00F9
:102250004C4C004C500050495200574600000000C2
:102260000047505F4600000047505F430047505F03
:10227000420047505F410000000000000000004E97
:102280004F49534500534F32005048330048434EA6
:102290000048434C004832530048320045544F0038
:1022A000434C32004E4F00564F43005356004150AE
:1022B0003200415031004C5047004E4F32004E48E2
:1022C00033004F3300434834004F3200434F320055
:1022D000434F00010101010101010101010101015F
:1022E00001010101010101010101010101010101DE
:1022F00001010301010101010101010101010101CC
:1023000001010101010101010201010101030301B8
:1023100001010301010101010101010101010101AB
:102320000101010101010101010303010101010199
:10233000010101010101010101010101010101018D
:10234000010101010101010101010101010101017D
:10235000010101010101010101010101010101016D
:10236000010101010101010101010101010201015C
:102370000101010101010101010101010101011836
:10238000100202020202020202020202020202021F
:10239000020202000000000200020000020202022B
:1023A0000100020202020202020202020202000212
:1023B0000202020202000201030303000001010203
:1023C00001040303030303020202020202020202E7
:1023D00002020202020200000004020202020202E1
:1023E00000020202020202020202020202020202CF
:1023F00002000000000000000000020204020000D1
:1024000000020202020202020202020202020202AE
:10241000020202020202020202020202020202029C
:102420000202020202020202020202020201010E82
:10243000290A2907290329FF28FB28F728F328F070
:1024400028EC28E928E528E128DD28D828D528D255
:1024500028CD28C928C428C128BE28BA28B628B340
:1024600028AF28AB28A728A4289F289C289928961D
:102470002892288E28892883287E287B287728740C
:102480002871286E286B286728642860285C2859E2
:10249000285628532850284C28482843283F283CB1
:1024A00028382833282E282A2826281E281A2813B8
:1024B000280F280B2805280128FE27FB27F727F4DB
:1024C00027EF27EC27E727E227DE27D927D427D0D5
:1024D00027CA27C627C027BA27B327AD27A727A310
:1024E000279A2790278C27872782277D277927748B
:1024F000276F276A2763275C2755274E27482742DF
:10250000273C27382731272B2725271F2719271452
:10251000270F270A2705270027FB26F426ED26E6A6
:1025200026E126DC26D826D326CE26C826C226BB00
:1025300026B526AE26A826A1269A2693268C268680
:10254000267F26792672266B2664265E265726511C
:10255000264B2644263C2635262E262826202616BF
:10256000260D260426FE25F825F225EC25E625E095
:1025700025DA25D425CE25C825C225BD25B825B305
:1025800025AD25A725A12596258B254F50435F4EC8
:10259000325F42494E004F50435F4E335F42494ED7
:1025A000004F52505F43004F52505F42004F525015
:1025B0005F410050485F430050485F420050485F11
:1025C000410053574950480053574941470053571A
:1025D00049504200535749494F005357494355000A
:1025E000535749434C005357494252005357494EA1
:1025F0004F00535749464200535749464C005357E2
:10260000494341004F50435F50415254004F5043A3
:102610005F504D3130004F50435F504D325F3500B9
:102620004F50435F504D31004F50435F50004F506B
:10263000435F5446004F50435F54430047505F5040
:102640005245530047505F48554D0047505F544630
:102650000047505F54430047505F434F320047509C
:102660005F4F330047505F4348340047505F534F3C
:10267000320047505F5048330047505F4F320047A9
:10268000505F4E4F320047505F4E4F0047505F4EF5
:1026900048330047505F48434E0047505F48434C23
:1026A0000047505F4832530047505F483200475060
:1026B0005F45544F0047505F434F0047505F434CC6
:1026C000320056424F4F54005650524F4700564129
:1026D00050490054555242005453540057465F45E8
:1026E0000057465F430048414C4C5F460048414C10
:1026F0004C5F450048414C4C5F44004C4C5F4600E9
:102700004C4C5F45004C4C5F44004C505F46004CC5
:10271000505F45004C505F44004C554D5F46004CA7
:10272000554D5F45004C554D5F440055535F355640
:102730000055535F3356330054434300534F494CC5
:102740003300534F494C3200534F494C3100534FE3
:10275000494C5F4600534F494C5F4500534F494C2D
:102760005F4400534F494C5F4300504C5633005078
:102770004C563200504C56310046534D0050444F99
:10278000500056444F500048444F5000414C5400B4
:10279000434F555253455F4F470053504545445FA3
:1027A0004F47004C555800444D5F535000444D5F17
:1027B00053540054585F5057520044494E4F330011
:1027C00044494D47320044494B0044494355320087
:1027D0004449490044494252004449434C00444959
:1027E0004600444943410044494E41005754004388
:1027F0004F4E4400444F004F525000504800524248
:1028000000554944004D57494649004D4254005334
:102810005452004D494C4C49530041434300494EEA
:102820005F54454D500052414D00474D54005449AE
:102830004D450044415445004E4944004E41004D31
:102840004143005253534900475053004241540002
:102850004446004C43005746004355005241440053
:10286000504C5600575600414E45004644005344D4
:1028700000544400555600504152004C5700534FED
:10288000494C00534F494C540048554D4200544662
:102890004200544342005053004D460055530044FB
:1028A000555354004C440043504700434447004DA7
:1028B000435000535400504952004C554D004C4C6D
:1028C000004C500048414C4C005642520042454E8C
:1028D000440050570050410048554D410054464176
:1028E0000054434100564F43004F33004E4F3200D7
:1028F00053560041503200415031004E4833004C95
:10290000504700434834004F3200434F3200434F9A
:10291000002A2A2A2A2A2A2A2A2A2A2A2A2A2A2A41
:102920002A2A2A2A2A2A2A2A2A2A2A2A2A2A00500B
:10293000415353574F52443A20004C4F47494E3A67
:10294000200041504E3A20002A2A2A2A2A2A2A2ADE
:102950002A2A2A2A2A2A2A2A2A2A2A2A2A2A2A2AD7
:102960002A2A2A2A2A0095298D29872981297B2923
:10297000722956455253494F4E3A0053495A453AE7
:1029800000504154483A0046494C453A004E4F5F8A
:1029900046494C45002F555047524144452E545806
:1029A0005400B32AA62A942A812A732A612A522A19
:1029B0004A2A3B2A2A2A182A142A092AFE29ED29FA
:1029C000E229D629C6294154234654504357443D51
:1029D000222573220D004154234654504C49535430
:1029E0000D004154234654505057440D0041542388
:1029F00046545044454C453D222573220D00234644
:102A00005450524543563A20004E4F2043415252B3
:102A1000494552002B2B2B00234654504745545018
:102A20004B543A2025732C302C00415423465450EB
:102A30004150504558543D25750D0041542346548E
:102A400050474554504B543F0D00234654504D536E
:102A50004700415423465450524543563D25750D79
:102A6000004154234654504653495A453D2225734C
:102A7000220D00415423465450545950453D300DC9
:102A800000415423465450474554504B543D222551
:102A900073220D004154234654505055543D222575
:102AA00073222C300D00415423465450434C4F5355
:102AB000450D004154234654504F50454E3D22256C
:102AC000733A2575222C222573222C222573222C61
:102AD00025750D00B72BA12B852B772B652B4B2B49
:102AE000442B222B172BFE2AEA2A6D756C74697011
:102AF0006172742F666F726D2D6461746100617014
:102B0000706C69636174696F6E2F6F637465742D87
:102B100073747265616D00746578742F706C61698F
:102B20006E006170706C69636174696F6E2F782DCF
:102B30007777772D666F726D2D75726C656E636F2A
:102B4000646564006672616D653D002F6765747031
:102B50006F73745F6672616D655F706172736572C9
:102B60002E70687000415423485454505243563DCF
:102B700025752C25750D00234854545052494E4755
:102B80003A20302C0041542348545450534E443D75
:102B9000302C25752C222573222C25752C25730DA0
:102BA00000415423485454505152593D302C2575FE
:102BB0002C222573220D004154234854545043467F
:102BC000473D302C222573222C25750D002B2E21FC
:102BD0002E162E0B2EFF2DEF2DE02DDA2DCC2DC035
:102BE0002DB42DAA2DA02D972D8E2D852D7C2D73E6
:102BF0002D6A2D5F2D592D4E2D482D402D362D2C13
:102C00002D222D1A2D122DFA2CF02CE42CDB2CCF9A
:102C10002CC12C8E2C782C6C2C602C582C502C45D4
:102C20002C3A2C302C272C4154235348444E0D0071
:102C300041542B575334363F0D002B4345524547E3
:102C40003A20302C0041542B43455245473F0D005C
:102C50002B434D47523A20002B434D474C3A20001E
:102C600041542B575334363D25750D0041542353A1
:102C7000413D25752C310D0041542B434D474C3DB2
:102C80002252454320554E52454144220D002532E3
:102C9000686875252A632532686875252A63253298
:102CA000686875252A632532686875252A63253288
:102CB000686875252A632532686875256868642206
:102CC0000041542350534E543F3A202C0D0A0041EA
:102CD000542B4353510D0A3A202C002B49503A20D3
:102CE000220D0A00415423475052533D25750D00D3
:102CF00041542573222573220D0041542B43474430
:102D0000434F4E543D312C224950222C2225732210
:102D10000D00475052533A203000475052533A204A
:102D20003100415423475052533F0D0041542B432F
:102D3000434C4B3F0D0041542B434F50533F0D002C
:102D40005352494E473A20002B434D5449004154B9
:102D5000234E49545A3D370D00415445300D004132
:102D6000542B434D45453D310D00415423434349C8
:102D7000440D0041542343494D490D004154234320
:102D800047534E0D0041542343474D520D004154CB
:102D90002343474D4D0D0041542343474D490D00FA
:102DA00041542348575245560D0041542350534E29
:102DB000543F0D0041542B4353510D0A3A202C002F
:102DC0002354454D504D4541533A2000415423541E
:102DD000454D504D4F4E3D310D002347505253004D
:102DE00041542350415353573D222573220D004136
:102DF00054235553455249443D222573220D002B3F
:102E0000434744434F4E543D312C002B43475245DA
:102E1000473A20302C0041542B43475245473F0D41
:102E2000002B435245473A20302C0041542B43524B
:102E300045473F0D005B5057525D204E6F697365EB
:102E400020696E20496E74657272757074696F6E58
:102E5000206C696E65005B5057525D20646565703B
:102E6000536C65657020525443206572726F720016
:102E7000496E76616C696420474D542076616C75AB
:102E80006500496E636F727265637420696E707558
:102E90007420706172616D65746572730A005B52B3
:102EA00054435D200057726F6E672074696D652012
:102EB000666F726D61742E204D757374206265208B
:102EC0002264643A68683A6D6D3A7373220A005B53
:102ED0005254435D200062304D30373027301A3075
:102EE00010300030EB2FD42FC22FB62FAF2F9D2FD5
:102EF0008A2F7D2F732F632F402F3A2F112F002FF2
:102F00005B253032753A253032753A253032755DA1
:102F10000025303275256325303275256325303222
:102F20007525632530327525632530327525632577
:102F3000303275256325303275006572726F72000C
:102F400025732C20253032752F253032752F2530F2
:102F500032752C20253032753A253032753A2530BD
:102F60003275004F6E636520706572206D696E75F5
:102F70007465005B6D6D5D202D2D3E20005B6868E3
:102F80003A6D6D5D202D2D3E20005B446174652CF3
:102F90002068683A6D6D5D202D2D3E20005B4461F8
:102FA000792C2068683A6D6D5D202D2D3E20005BE8
:102FB000253032755D005B253032753A253032752B
:102FC0005D005B253032752C20253032753A253076
:102FD00032755D005B253032752C20253032753A14
:102FE000253032753A253032755D00496E636F7257
:102FF0007265637420616C61726D206D6F64650031
:103000004F6E636520706572207365636F6E640038
:103010005B73735D202D2D3E20005B6D6D3A7373E5
:103020005D202D2D3E20005B68683A6D6D3A73730C
:103030005D202D2D3E20005B446174652C20686866
:103040003A6D6D3A73735D202D2D3E20005B446117
:10305000792C2068683A6D6D3A73735D202D2D3E92
:103060002000416C61726D206D617463686573202E
:10307000005B53445D20496E76616C69642066692B
:103080006C656E616D65007C3C3E5E2B3D3F2F5B49
:103090005D3B2C2A225C00000008090000000000B3
:1030A0000000000000000000000000000000000020
:1030B0000000000000000000000000000000000010
:1030C00000000000000000000000000001020810E5
:1030D0001020408004081020400202040810204004
:1030E0008001028020400420010102040810200118
:1030F0004080408001020804088004100402010896
:10310000100505050503030303010101040403067B
:10311000060606060606060104050105010302026D
:103120000202020201020205050404030404010371
:1031300004070707070700202326292C2F32002227
:1031400025282B2E3134002124272A2D3033636487
:10315000696E6F70737578585B00E2231A36473DCD
:103160008B4CCD53B155AD5B5A7A11241FBECFEFB6
:10317000D1E2DEBFCDBF16E0A0E0B2E0E8ECF1E1C5
:1031800001E00BBF02C007900D92AE35B107D9F731
:1031900026E1AEE5B6E001C01D92AA3FB207E1F715
:1031A00018E1C5EBD8E104C02197FE010E946E7DB5
:1031B000CD3AD107C9F70E94B65F0C94E2880C940F
:1031C0000000EF92FF920F931F93CF93DF937C0148
:1031D000162F03E020E040E069EA72E08BE39EE016
:1031E0000E94594480ED9EE00E94424E8DE39EE095
:1031F0000E94E5479093800680937F0664EC7AE016
:1032000082E990E10E943C5B60917F0670918006AC
:1032100082E990E10E94BF5A8091510E90E0909314
:103220007E0680937D064AE066E776E00E94E781AD
:1032300080917D0690917E060A973CF480917606F7
:103240008093770680E38093760646E756E0B701E1
:1032500080ED9EE00E948D52082F809375064CE50C
:1032600056E0B70180ED9EE00E948D528093750676
:10327000C82FD0E0C00FD11D8091520E90E09093E6
:103280007E0680937D064AE066E776E00E94E7814D
:1032900080917D0690917E060A973CF48091760697
:1032A0008093770680E38093760646E756E0B70181
:1032B00080ED9EE00E948D5280937506C80FD11D4F
:1032C0004CE556E0B70180ED9EE00E948D52809360
:1032D0007506C80FD11D8091570E90E090937E0621
:1032E00080937D064AE066E776E00E94E781809160
:1032F0007D0690917E060A973CF480917606809335
:10330000770680E38093760646E756E0B70180EDC6
:103310009EE00E948D5280937506C80FD11D4CE52A
:1033200056E0B70180ED9EE00E948D5280937506B5
:10333000C80FD11D8091540E90E090937E0680932B
:103340007D064AE066E776E00E94E78180917D068F
:1033500090917E060A973CF48091760680937706DA
:1033600080E38093760646E756E0B70180ED9EE065
:103370000E948D5280937506C80FD11D4CE556E012
:10338000B70180ED9EE00E948D5280937506C80FB4
:10339000D11D8091550E90E090937E0680937D061E
:1033A0004AE066E776E00E94E78180917D06909191
:1033B0007E060A973CF4809176068093770680E338
:1033C0008093760646E756E0B70180ED9EE00E94C6
:1033D0008D5280937506C80FD11D4CE556E0B7019C
:1033E00080ED9EE00E948D5280937506C80FD11D1E
:1033F0008091560E90E090937E0680937D064AE081
:1034000066E776E00E94E78180917D0690917E06D6
:103410000A973CF4809176068093770680E3809348
:10342000760646E756E0B70180ED9EE00E948D5299
:1034300080937506C80FD11D46E456E0B70180EDB4
:103440009EE00E948D5280937506C80FD11D209179
:1034500098073091990748E956E0B70180ED9EE062
:103460000E94B15280937506C80FD11D46E456E004
:10347000B70180ED9EE00E948D5280937506C80FC3
:10348000D11D4AE066E776E0812F90E00E94E78157
:1034900046E756E0B70180ED9EE00E941953809305
:1034A0007506C80FD11D80ED9EE00E94A64DCF305D
:1034B000D10519F465EB72E010C064ED72E082E9A9
:1034C00090E10E94335A6FE070E06C1B7D0B82E943
:1034D00090E10E94735A6CEC72E082E990E1DF9116
:1034E000CF911F910F91FF90EF900C94BF5A0F93C3
:1034F0001F9385EC98E00E94CF3480937A06811167
:103500004EC06EEA7AE082E990E10E94645B69E96C
:103510007AE082E990E10E943C5B0091980710916B
:103520009907409134025091350228E936E066E36C
:1035300072E085EC98E00E94282F80937A06811132
:103540002BC067E87AE082E990E10E943C5B6091E1
:10355000BA0B7091BB0B82E990E10E94D55A6CEFD7
:1035600072E082E990E10E94335A4091D70850916D
:10357000D8086091D3087091D40882E990E10E9444
:103580007B5B8091BA0B883C21F481E080937406C8
:103590001DC0109274061AC062E77AE008C06CE59C
:1035A0007AE082E990E10E94645B6FE47AE082E96C
:1035B00090E10E943C5B40917A0650E060E070E050
:1035C0002AE030E082E990E10E94005B67E37AE064
:1035D00082E990E10E94645B85EC98E01F910F9175
:1035E0000C94CC35CF93DF93EC0185EC98E00E94EE
:1035F000CF3480937A06811126C064E27AE082E9B2
:1036000090E10E94645B6CE385EC98E00E940428E2
:103610008093600681113CC085EC98E00E941030D8
:103620008DE39EE00E94E547BC0182E990E10E94A3
:10363000BF5A8DE39EE00E946445BC0182E990E19F
:103640000E94BF5A25C06EE07AE082E990E10E94B4
:10365000645B61E07AE082E990E10E943C5B40912A
:103660007A0650E060E070E02AE030E082E990E124
:103670000E94005B20917D0630917E062F5F3F4FB8
:1036800030937E0620937D06C217D3070CF0ADCF92
:1036900085EC98E00E94CC3569EE79E082E990E112
:1036A000DF91CF910C94645B90E0FC013197E8319D
:1036B000F10508F04CC0EA59FF4F0C946E7D6AED9D
:1036C00079E047C06CEB79E044C062EA79E041C040
:1036D00061E879E03EC069E679E03BC06FE479E0FB
:1036E00038C067E379E035C06FE179E032C064E06B
:1036F00079E02FC065EE78E02CC062EB78E029C05D
:103700006AE778E026C065E478E023C067E178E006
:1037100020C06AED77E01DC064EA77E01AC06FE56B
:1037200077E017C06FE177E014C06AEC76E011C073
:1037300060E976E00EC06CE576E00BC06CE276E006
:1037400008C060EF75E005C063EC75E002C06BEB8C
:1037500075E082E990E10C94645B0F931F936FE92D
:1037600075E082E990E10E94645B85EC98E00E943C
:10377000CF3480937A06811130C069E875E082E920
:1037800090E10E94645B66E775E082E990E10E9447
:10379000645B40912502509126020AE012E027E185
:1037A00032E067E272E085EC98E00E94D3338093C8
:1037B0007A06882351F065E575E082E990E10E9480
:1037C0003C5B80917A060E94541B43E06CE271E0FE
:1037D00086E990E10E94D05B06C06FE375E082E964
:1037E00090E10E94645B67E275E082E990E10E94EB
:1037F000645B85EC98E01F910F910C94CC3582E9C5
:1038000090E10E94AD598DE39EE00E94574986E900
:1038100090E10E94025F80937906882361F08130F5
:10382000C1F462E075E082E990E10E94645B43E0EC
:103830006CE271E017C063E175E082E990E10E94FB
:10384000645B43E06CE271E086E990E10E94D05B4A
:103850000DC067EF74E082E990E10E94645B41E093
:1038600064EF71E086E990E10E94065C63E676E031
:1038700086E990E10E94895F69ED74E082E990E158
:103880000E94645B6CEC74E082E990E10E943C5B16
:1038900063E676E082E990E10E94BF5A6AEB74E049
:1038A00082E990E10E943C5B86E990E10E94AA5F78
:1038B000482F50E060E070E02AE030E082E990E1DB
:1038C0000E94005B61E086E990E10E94A65F68EAE1
:1038D00074E082E990E10E943C5B86E990E10E94FD
:1038E000AA5F482F50E060E070E02AE030E082E913
:1038F00090E10E94005B6AE874E082E990E10E9436
:10390000645B21E636E042E656E063E472E085EC73
:1039100098E00E94E73085EC98E00E9445318DE305
:103920009EE00E94574980915E0290E00E94F21A48
:103930008DE39EE00E94E547BC0182E990E10E9490
:10394000BF5A62E674E082E990E10E94645B80ED18
:103950009EE00E94424E80917306882399F06FE5A5
:1039600072E080ED9EE00E94C55080937506813024
:1039700019F465E574E002C064E474E082E990E162
:103980000E94645B6FE572E080ED9EE00E947453DC
:1039900080937506813019F467E374E002C066E233
:1039A00074E082E990E10E94645B68ED73E082E973
:1039B00090E10E94335A60915C0270915D0282E94D
:1039C00090E10E94D55A4EEE53E06FE572E080ED33
:1039D0009EE00E94195380937506813019F467E1C7
:1039E00074E002C06CEF73E082E990E10E94645BD6
:1039F00067E773E082E990E10E94645B62EF72E046
:103A000082E990E10E94645B6DE672E082E990E1F8
:103A10000E94645B82E990E10C94AD590F9365E6D6
:103A200072E082E990E10E94645B6DE572E082E9F8
:103A300090E10E94645B65E572E082E990E10E949A
:103A4000645B6DE472E082E990E10E94645B65E48E
:103A500072E082E990E10E94645B6DE372E082E9CA
:103A600090E10E94645B65E372E082E990E10E946C
:103A7000645B6DE272E082E990E10E94645B65E262
:103A800072E082E990E10E94645B6DE172E082E99C
:103A900090E10E94645B0E949F3660936D06709374
:103AA0006E0680936F069093700647E452E061E0E3
:103AB00081E896E00E94D5238BE39EE00E948F422E
:103AC000482F50E064E381E896E00E94072081E8F7
:103AD00096E00E94491E0E94771A609174068FE555
:103AE00092E00E94E1180E94AD1B80915C029091CF
:103AF0005D0220917B0630917C06821B930B05971B
:103B00008A30910514F48FE090E0909372068093D0
:103B100071066DE574E082E990E10E94335A60918C
:103B200071067091720682E990E10E94D55A8091E7
:103B30007106909172066CE370E00E94197D90937B
:103B40007E0680937D064AE066E776E00E94E78184
:103B500080917D0690917E060A973CF480917606CE
:103B60008093770680E38093760680917606809333
:103B700059028091770680935A0280917106909144
:103B800072062CE330E0B9010E94197DCB01B90126
:103B90000E94197D90937E0680937D064AE066E739
:103BA00076E00E94E78180917D0690917E060A97DB
:103BB0003CF4809176068093770680E380937606C6
:103BC0008091760680935602809177068093570203
:103BD000809171069091720620E13EE0B9010E9449
:103BE000197DCB01B9010E94197D90937E068093C7
:103BF0007D064AE066E776E00E94E78180917D06D7
:103C000090917E060A973CF4809176068093770621
:103C100080E38093760680917606809353028091AC
:103C200077068093540266E072E082E990E10E9498
:103C3000645B65E175E082E990E10E94335A60E5DA
:103C400072E082E990E10E94335A65E175E082E911
:103C500090E10E94BF5A82E990E10E94C15903E0BD
:103C600020E040E060E572E08BE39EE00E94594472
:103C700082E990E10E94AD596DE771E082E990E13F
:103C80000E94645B6EE671E082E990E10F910C9412
:103C9000645BCF92DF92EF92FF920F931F93CF93CB
:103CA000DF93EC0182E990E10E94E0590FE110E01E
:103CB00060E08DE30E94113A01501109C9F760E0FC
:103CC0008DE00E94113A60E08AE00E94113A8981F9
:103CD000813021F460E08AE894E00CC0811104C0D6
:103CE00060E088E994E006C0823009F095C060E0A9
:103CF00087EA94E00E941E3A60E089EB94E00E941B
:103D00001E3A60E083EC94E00E941E3A7E0189EE48
:103D1000E81A8EEFF80AF7016081718180E090E087
:103D200000E02AE030E040E050E00E942E3A60E0FF
:103D30008DE00E94113A60E08AE00E94113A60E052
:103D40008CEC94E00E941E3A6A8D70E080E090E076
:103D50002AE030E040E050E00E942E3A60E08DE042
:103D60000E94113A60E08AE00E94113A60E08AED18
:103D700094E00E941E3A67966E0100E010E0F701A1
:103D80008081918160E00817190740F4F601819164
:103D90006F010E94B23A0F5F1F4FF1CF8DE00E947A
:103DA000113A60E08AE00E94113A60E088EE94E007
:103DB0000E941E3A00E010E0F7018081918160E0EE
:103DC0000817190730F489910E94113A0F5F1F4FAD
:103DD000F3CF8DE00E94113A60E08AE00E94113A30
:103DE000CFE1D0E060E08DE30E94113A2197D1F756
:103DF00060E08DE00E94113A60E08AE00E94113A92
:103E000082E990E1DF91CF911F910F91FF90EF90A8
:103E1000DF90CF900C94055ADF91CF911F910F91B5
:103E2000FF90EF90DF90CF900895FF920F931F9334
:103E3000CF93DF93062FF42E122F20919710A62FE9
:103E4000B0E0273480F0FC012689FD01273019F409
:103E5000E956FB4E0BC0283019F4E357F34F06C068
:103E6000E85CF24E03C0FD01EF57FC4DC591D491C3
:103E7000C13069F5F1E0FF1508F059C067E97BE052
:103E800082E990E10E943C5B61E77BE082E990E19E
:103E90000E943C5B402F50E060E070E02AE030E0A0
:103EA00082E990E10E94795A6EE67BE082E990E136
:103EB0000E943C5B2AE030E041E050E060E070E0CE
:103EC00082E990E10E94795A69E67BE02AC0CF1529
:103ED00071F160E67BE082E990E10E943C5B6AE37D
:103EE0007BE082E990E10E943C5B402F50E060E083
:103EF00070E02AE030E082E990E10E94795A6EE2B7
:103F00007BE082E990E10E943C5B4C2F50E060E056
:103F100070E02AE030E082E990E10E94795A6FE196
:103F20007BE082E990E10E943C5B4F2D49C02091EB
:103F30009710273480F0FC018689FD01873019F441
:103F4000E956FC4E0BC0883019F4E056F44F06C019
:103F5000E059F34E03C0FD01ED52FD4D8591949162
:103F6000C82F8117C1F166E17BE082E990E10E94F0
:103F70003C5B66EE7AE082E990E10E943C5B402F78
:103F800050E060E070E02AE030E082E990E10E94D9
:103F9000795A6AED7AE082E990E10E943C5B4C2F0D
:103FA00050E060E070E02AE030E082E990E10E94B9
:103FB000795A6BEC7AE082E990E10E943C5B412FF8
:103FC00050E060E070E02AE030E082E990E10E9499
:103FD000005B8FEF01C081E0DF91CF911F910F91C6
:103FE000FF900895FC01E95EFE4F20813181620F50
:103FF000731FDC0112968D919C911397861797077A
:1040000020F07183608381E0089580E008956F92CD
:104010007F928F929F92AF92BF92CF92DF92EF9258
:10402000FF920F931F93CF93DF93CDB7DEB7A8977F
:104030000FB6F894DEBF0FBECDBF8C01F62E5A012D
:104040006C0127EEC21A2EEFD20AD6018C918E3166
:1040500009F418C1F8018181813009F087C080918D
:104060009710E62FF0E09E012F5F3F4F79018734D4
:1040700090F0D80156968C91EE0FFF1F873019F4FF
:10408000E956FA4E0CC0883019F4E658F24F07C0D2
:10409000E050F24E04C0EE0FFF1FE15DFB4D659155
:1040A0007491C7010E9437814E01B5E18B0E911CBE
:1040B0004AE0B401C5010E94E781F70101900020A8
:1040C000E9F73197BF016E197F09F40101900020D3
:1040D000E9F73197E819F9096E0F7F1F6E5F7F4F7F
:1040E000C8010E94F21F882309F464C0F801E95E48
:1040F000FE4FA080B180F70101900020E9F73197D1
:10410000AF014E195F09F40101900020E9F73197E2
:10411000E819F90935016E1A7F0AC501841B950B50
:104120008E1B9F0B4596B701800F911F0E944F81F8
:10413000F801E60DF71D8AE3858BF401019000205C
:10414000E9F73197AF0148195909C3014696B401FF
:10415000800F911F0E944F81F801EA0DFB1D83E241
:10416000868BF60180818F5F808384C021E04F3F82
:10417000510509F00CF540E06F2DC8010E94151F94
:104180008F3FC1F080919710EF2DF0E08734F0F071
:10419000D80156968C91873089F4E956FB4E85916B
:1041A00094918130C1F563E070E0C8010E94F21F74
:1041B00081110FC08FEF67C041E0DECF883019F466
:1041C000E357F34FECCFE85CF24EE9CFEF57FC4DED
:1041D000E6CFF801E95EFE4F20813181F801E20F60
:1041E000F31FF48AA58AB68A178AF60180818E3178
:1041F000D0F590E0AC01440F551F840F951F800F40
:10420000911FFC01E651FE4F10823196235020830E
:10421000319683E027C062E070E0C8010E94F21F7F
:10422000882341F2F801E95EFE4F20813181F801D7
:10423000E20FF31FF58AA68A178AD6018C918E3178
:1042400090F490E0AC01440F551F840F951F800F30
:10425000911FFC01E651FE4F1082319622502083BF
:10426000319682E08083F60180818F5F8083809128
:1042700098078550D8015B968C93F801E95EFE4F54
:10428000808101C080E0A8960FB6F894DEBF0FBE13
:10429000CDBFDF91CF911F910F91FF90EF90DF90F5
:1042A000CF90BF90AF909F908F907F906F90089528
:1042B000AF92BF92CF92DF92EF92FF920F931F9334
:1042C000CF93DF931F92CDB7DEB76C01F62E03E9D3
:1042D00010E060E0C80179830E94D4880F5F1F4F0F
:1042E0007981033A1105A9F7D601149681E1FD0100
:1042F00011928A95E9F70F2D172F5D0183E9E82EBA
:10430000F12C6801F8016081633241F0603231F0D4
:10431000C7010E94D488F801808105C06FE5C701FC
:104320000E94D4888FE5F50180830F5F1F4FF6014F
:104330008081882351F0FFEFEF1AFF0A8FEFA81A50
:10434000B80AE3EAEE16F104E1F60F90DF91CF919F
:104350001F910F91FF90EF90DF90CF90BF90AF90A3
:104360000895CF92DF92EF92FF920F931F93CF9316
:10437000DF937B01EC01249681E1FE0111928A9585
:10438000E9F76B0100E010E0B8016D567F4F86E958
:1043900090E10E94185D8993F60181936F010F5F90
:1043A0001F4F0031110581F7F701108ADF91CF917E
:1043B0001F910F91FF90EF90DF90CF900895CF93D2
:1043C000DF93EC0160E083EA90E00E94D4888FEFF5
:1043D00090E09B838A83FE01E158FE4F8CE080834E
:1043E000BE016C5F7F4F81E896E00E94B1211D8A7B
:1043F000DF91CF91089563EA70E086E990E10C9433
:10440000185DAF92BF92CF92DF92EF92FF920F931F
:104410001F93CF93DF93CDB7DEB765970FB6F894B0
:10442000DEBF0FBECDBF8C01DC0111966C931197DE
:1044300086E056968C93F801779680E091E0DF0154
:104440009C011D9221503040E1F7ED52FE4F8AE56C
:10445000DF011D928A95E9F7E15DF10910828CE395
:10446000F801878B8DE3808F8EE3818F613009F0B7
:10447000FFC080919710873410F480E801C086E86F
:10448000D8015A968C935A975B961C925B9783E25D
:104490005C968C937801B9EEEB1ABEEFFB0A86E0CE
:1044A00090E0F70191838083809197109E012F5FA8
:1044B0003F4F6901873460F170919F1060919E10A9
:1044C00050919D1040919C1030919B1020919A101A
:1044D00090919910809198101F927F931F926F93E3
:1044E0001F925F931F924F931F923F931F922F93A0
:1044F0001F929F931F928F9386EF94E09F938F93C9
:104500001F9281E18F93DF92CF920E94298217C080
:1045100030919C1020919D1090919E1080919F1041
:104520003F932F939F938F9387E195E09F938F9372
:104530001F9281E18F93DF92CF920E9429820FB662
:10454000F894DEBF0FBECDBFD601F601019000206A
:10455000E9F73197EC19FD09CD018C199D098E17EA
:104560009F0778F42D91222361F0F70180819181DA
:10457000F801E80FF91F278B0196F70191838083DB
:10458000E4CFD7018D919C911197F801E80FF91FA5
:1045900023E2278B01968D939C93F8013496980122
:1045A0002C5E3F4F4FE58191811144C0F70180811E
:1045B0009181F801E80FF91F23E2A22EA78A019644
:1045C000D7018D939C93C8010E94FB21B82E6E01E8
:1045D000B2E1CB0ED11C4AE0B60190E00E94E78127
:1045E000F60101900020E9F73197AF014C195D0900
:1045F000F701808191814796B601800F911F0E943B
:104600004F81F60101900020E9F731979F012C19A5
:104610003D09D7014D915C911197240F351FF80189
:10462000E20FF31FA78A2F5F3F4F2D933C9361E06A
:104630006B0D87C0D701833241F48D919C91DC01D1
:10464000A00FB11F57964C9307C06D917C91DB0171
:10465000A00FB11F57968C93D7018D919C91119704
:1046600001968D939C93E217F30709F09CCF9ECFA0
:1046700061118AC080919710873410F480E001C0E6
:1046800086E0F801828F30919C1020919D109091CE
:104690009E1080919F1040919710B801695E7E4FE7
:1046A0007B014734D8F080919810848F80919910C5
:1046B000858F80919A10868F80919B10878F809133
:1046C0009C1080A380919D1081A380919E1082A355
:1046D00080919F1083A38DE090E007C0F801348F94
:1046E000258F968F878F89E090E0D7018D939C93DB
:1046F000F801349698012C5E3F4F4FE5819181116E
:1047000025C0F70180819181F801E80FF91F23E2AC
:10471000278B0196D7018D939C93C8010E94FB21A2
:10472000F70120813181F801E20FF31F878B2F5FA2
:104730003F4FD7012D933C932550F801238F61E023
:10474000680F83EA90E00E94D4881EC0D7018332AC
:1047500041F48D919C91DC01A00FB11F57964C93B1
:1047600007C06D917C91DB01A00FB11F57968C9310
:10477000D7018D919C91119701968D939C93E2178F
:10478000F30709F0BBCFBDCF65960FB6F894DEBF37
:104790000FBECDBFDF91CF911F910F91FF90EF9092
:1047A000DF90CF90BF90AF900895CF93C62FBA01FE
:1047B00081E896E00E9458216C2F81E896E0CF9125
:1047C0000C94012281E896E00C94DF21CF92DF92D5
:1047D000EF920F931F93CF93DF93EC0180E092EC65
:1047E000A1E0B0E089839A83AB83BC8388E893E13E
:1047F000A0E0B0E08D839E83AF83B88784E690E02D
:10480000A0E0B0E089879A87AB87BC8781E08D877D
:10481000FE01E254FD4F88E0DF011D928A95E9F721
:1048200038961082319610826EE2CE0188539D4FE9
:104830000E9464409E012C5E3D4F8EE1F901982F4D
:1048400011929A95E9F78E010E5C1D4FD801E82F61
:104850001D92EA95E9F7DE01A05BBD4FFD011192C3
:104860008A95E9F781E4C82E80E5D82E8EE4E82EFB
:10487000F901C082D182E28245E753E765E672E73B
:10488000F801408351836283738388E0EBE1F5E0B4
:1048900001900D928A95E1F7E2EEFAE2859194910A
:1048A0009F938F93CE0182599D4F9F938F930E9428
:1048B0006682CE0144969F878E8780E092E0998B36
:1048C000888B0F900F900F900F90DF91CF911F91D9
:1048D0000F91EF90DF90CF900895CF93DF93EC018D
:1048E00028EB3BE040E050E065E275E00E9435587F
:1048F000882351F0BE0169517D4F44E255E0CE015D
:104900000E94775980E001C081E0DF91CF91089546
:104910002F923F924F925F926F927F928F929F92CF
:10492000AF92BF92CF92DF92EF92FF920F931F93BD
:10493000CF93DF93CDB7DEB7C952D2400FB6F8940C
:10494000DEBF0FBECDBF5C01762E4A01302E212E78
:104950006E2CC95DDD4FF882C752D24026018E0110
:10496000005F1D4F84E1F80111928A95E9F74091AB
:10497000D7085091D8086091D3087091D408C80125
:10498000C85DDD4F2883C852D240C75DDD4F3883F4
:10499000C952D2400E94978168E275E0C8010E9426
:1049A0008781C85DDD4F2881C852D240C75DDD4F89
:1049B0003881C952D240892B09F443C1CC5DDD4F07
:1049C000188219821A82C452D240E4EDFAE285912B
:1049D00094913F932F939F928F929F938F939E01D9
:1049E0002F5F3F4F49013F932F930E946682E0ED76
:1049F000CE2EE7E0DE2EE12CF12C02E315E029E3D8
:104A000035E041E755E0B401C5010E9450570FB6AB
:104A1000F894DEBF0FBECDBF823031F4F501E9510D
:104A2000FD4F8FEF9FEF0EC0833029F4C5010E9428
:104A30006D2481E007C1811108C0F501E951FD4FE6
:104A40008EEF9FEF91838083F4CFF2E0F71528F18A
:104A5000E6EDFAE2859194912F923F921F927F9218
:104A60009F938F939F928F920E94668218E8E12E07
:104A700013E1F12E00E010E029E335E041E755E0D5
:104A8000B401C5010E9437570FB6F894DEBF0FBEC0
:104A9000CDBF813009F0CFC0CCC08DEF870D823003
:104AA00008F042C0E8EDFAE225913491C50182593F
:104AB0009D4F9F938F935F924F922F923F92872D9E
:104AC00090E003979F938F933F932F939F928F92A2
:104AD0000E94668218E8E12E13E1F12E00E010E05A
:104AE00029E335E041E455E0B401C5010E943757A0
:104AF0000FB6F894DEBF0FBECDBF813009F09BC06A
:104B000064E670E080E090E00E94CE3629E335E074
:104B100041E755E0662DC95DDD4F7881C752D2402F
:104B2000C5010E94375783C0F5E07F1288C0EEEDC3
:104B3000FAE2659174911E012BE0221A2EEF320ADF
:104B4000C1010E943781E8EDFAE2859194919501C7
:104B500022593D4F3F932F9392012D5F3F4F220FDC
:104B6000331F3F932F933F922F921F921F929F9339
:104B70008F939F928F920E94668218E8E12E13E134
:104B8000F12E00E010E029E335E041E455E0B40106
:104B9000C5010E9437570FB6F894DEBF0FBECDBFD8
:104BA000813009F048C064E670E080E090E00E9447
:104BB000CE36E0EEFAE265917491C4010E9437812D
:104BC00061E0C4010E941E3A862CC95DDD4F9880C9
:104BD000C752D240480C591C84149504E9F021E0D6
:104BE000AE014C5D5D4FB40186E990E10E94865EA6
:104BF00061E0CC5DDD4F8881C452D2400E94113A01
:104C000061E0CB5DDD4F8881C552D2400E94113AF0
:104C1000FFEF8F1A9F0AE0CF08E813E120E030E0B1
:104C200049E355E061E775E0C5010E944C588130C9
:104C300021F480E007C082E005C083E003C084E087
:104C400001C085E0C75DDD4F0FB6F894DEBF0FBE33
:104C5000CDBFDF91CF911F910F91FF90EF90DF902B
:104C6000CF90BF90AF909F908F907F906F905F900C
:104C70004F903F902F900895AF92BF92CF92DF92C6
:104C8000EF92FF920F931F93CF93DF93CDB7DEB7D1
:104C9000E6970FB6F894DEBF0FBECDBF6C019A0148
:104CA000AB01EAEDFAE265917491CE0101965C01E7
:104CB0002BAB3CAB4DAB5EAB0E9437812BA93CA923
:104CC0004DA95EA9B501C6010E943558882309F493
:104CD00074C028E833E140E050E068EA75E0C601BE
:104CE0000E943558882309F46AC06BE675E0D60146
:104CF0001E968D919C911F970E943E81009709F40A
:104D000060C00E94E980F601EB50FD4F91838083E3
:104D10006BE675E080E090E00E943E816BE675E016
:104D2000F601868597850E943E81009709F44BC065
:104D30000E94E980892B09F448C0ECEDFAE28591E4
:104D400094911F921F921F921F929F938F93BF92D5
:104D5000AF920E94668210EDE12E17E0F12E00E086
:104D600010E029E335E045E455E0B501C6010E94B5
:104D700037570FB6F894DEBF0FBECDBF8130C9F4F0
:104D800028E833E140E050E068EA75E0C6010E949F
:104D900035588823E1F0D6011E96ED91FC911F97BE
:104DA00052968D919C915397E80FF91F108280E0E5
:104DB00011C0823071F087E00DC081E00BC082E04D
:104DC00009C083E007C084E005C088E003C085E037
:104DD00001C086E0E6960FB6F894DEBF0FBECDBFE9
:104DE000DF91CF911F910F91FF90EF90DF90CF90C7
:104DF000BF90AF9008955F926F927F928F929F9233
:104E0000AF92BF92CF92DF92EF92FF920F931F93D8
:104E1000CF93DF93CDB7DEB7C456D1090FB6F89460
:104E2000DEBF0FBECDBF5C014C0189E0881A8DEF5B
:104E3000980AF40110821182128213823E01F3E378
:104E40006F0E711C82E3582EF301852D11928A9505
:104E5000E9F7ECEAF9E2859194917F936F939F9340
:104E60008F937F926F920E94668298E9C92E9AE38F
:104E7000D92EE12CF12C09E315E022E335E041E7DE
:104E800055E0B301C5010E9450570F900F900F904D
:104E90000F900F900F90813031F0823039F5C501BD
:104EA0000E946D2423C08E010F5F1F4FF8011192E5
:104EB0005A94E9F769E475E0C8010E94718165E2DE
:104EC00075E0C8010E94718165E575E0F501868590
:104ED00097850E94A681892B59F0A801B401C501CC
:104EE0000E947759882331F083E005C081E003C038
:104EF00082E001C080E0CC59DF4F0FB6F894DEBFEE
:104F00000FBECDBFDF91CF911F910F91FF90EF901A
:104F1000DF90CF90BF90AF909F908F907F906F90D9
:104F20005F9008957F928F929F92AF92BF92CF929F
:104F3000DF92EF92FF920F931F93CF93DF93CDB742
:104F4000DEB764970FB6F894DEBF0FBECDBF5C012D
:104F5000762EEBE0FCE2859194911F926F939F93E4
:104F60008F93CE0101964C019F938F930E9466828E
:104F700088E9C82E8AE3D82EE12CF12C09E315E04C
:104F800022E335E041E755E0B401C5010E945057E6
:104F90000F900F900F900F900F900F90813031F085
:104FA0008230D9F4C5010E946D2417C091E07912B6
:104FB00016C0EDE0FCE265917491C4010E94378156
:104FC000B50169527D4F940140E150E0C5010E9456
:104FD0003759882329F082E003C081E001C080E0D6
:104FE00064960FB6F894DEBF0FBECDBFDF91CF91B0
:104FF0001F910F91FF90EF90DF90CF90BF90AF90F7
:105000009F908F907F9008952F923F924F925F9242
:105010006F927F928F929F92AF92BF92CF92DF92C8
:10502000EF92FF920F931F93CF93DF93CDB7DEB72D
:10503000C955D1090FB6F894DEBF0FBECDBF5C01D4
:1050400063966FAF639762961FAE62970E949F361A
:105050002B013C01E1E0FCE2659174919E012F5F20
:105060003F4F4901C9010E943781E3E0FCE26591AD
:1050700074911E013DE3230E311CC1010E94378152
:10508000E5E0FCE265917491CE0189960E9437813A
:1050900010EDE12E17E0F12E00E010E09E01275DFB
:1050A0003F4FA101B401C5010E94375762968FAFEF
:1050B0006297813009F408C1E7E0FCE285919491A0
:1050C00095012C5E3D4F3F932F939F938F939F921B
:1050D0008F920E946682F8E8CF2EF3E1DF2EE12C5A
:1050E000F12C09E315E022E335E041E755E0B40196
:1050F000C5010E94505762968FAF62970F900F9034
:105100000F900F900F900F90813039F0823009F09E
:10511000DDC0C5010E946D24D9C0E7EDFBE2859199
:10512000949195012E5C3D4F3F932F939F938F93C6
:105130009F928F920E946682E8E8CE2EE3E1DE2EF7
:10514000E12CF12C09E315E022E335E041E755E0DD
:10515000B401C5010E94505762968FAF62970F90BD
:105160000F900F900F900F900F90813039F0823098
:1051700009F0AFC0C5010E946D24ABC0E9EDFBE2B0
:10518000859194919501205B3D4F3F932F939F9381
:105190008F939F928F920E94668278E8C72E73E168
:1051A000D72EE12CF12C09E315E022E335E041E7AD
:1051B00055E0B401C5010E945057D82E62968FAFBA
:1051C00062970F900F900F900F900F900F9041E00B
:1051D000841739F052E085137FC0C5010E946D2409
:1051E0007BC063968FAD6397282F30E0A8EEB3E0C5
:1051F0000E94777D6A966CAF7DAF8EAF9FAF6A9746
:10520000EDECFBE265917491C4010E943781EFECF3
:10521000FBE265917491C1010E94378110EDE12E8E
:1052200017E0F12E00E010E022E335E0A101B40127
:10523000C5010E94375762968FAF62978130A9F4FB
:1052400004EF11E020E030E042E355E065E275E074
:10525000C5010E944C58813041F445E255E0BE0141
:105260006F5A7F4FC5010E945F5968EE73E080E07E
:1052700090E00E94CE360E949F3664157505860523
:10528000970520F40E949F362B013C0162968FAD5A
:1052900062979EEF980F933010F0811120C00E940A
:1052A0009F36DC01CB0184199509A609B7096A96D6
:1052B0002CAD3DAD4EAD5FAD6A9782179307A40745
:1052C000B50708F4ABCF0BC0D12CD2C03CE0D32E35
:1052D000CFC02DE0D22ECCC09EE0D92EC9C066969C
:1052E0004CAE5DAE6EAE7FAE669762968FAD629746
:1052F0008B7F813099F40E949F36DC01CB018419A9
:105300009509A609B7096A962CAD3DAD4EAD5FADC6
:105310006A97281739074A075B0740F462968FADF2
:105320006297882309F4A4C0D82EA2C0E1EDFBE265
:1053300065917491C4010E943781E3EDFBE26591B0
:105340007491C1010E94378110EDE12E17E0F12E1A
:1053500000E010E022E335E0A101B401C5010E94A4
:10536000375762968FAF62978130A9F404EF11E04E
:1053700020E030E042E355E065E275E0C5010E94BF
:105380004C58813041F445E255E0BE016F5A7F4FE1
:10539000C5010E945F5968EE73E080E090E00E94D2
:1053A000CE360E949F3666962CAD3DAD4EAD5FADBC
:1053B0006697621773078407950740F40E949F362B
:1053C00066966CAF7DAF8EAF9FAF669762968FADDE
:1053D00062979EEF980F933010F081111AC00E94CF
:1053E0009F36DC01CB0166962CAD3DAD4EAD5FAD79
:1053F0006697821B930BA40BB50B6A962CAD3DAD43
:105400004EAD5FAD6A9782179307A407B50708F4FE
:105410009BCF62968FAD62978B7F8130C9F40E94DB
:105420009F36DC01CB0166962CAD3DAD4EAD5FAD38
:105430006697821B930BA40BB50B6A962CAD3DAD02
:105440004EAD5FAD6A97281739074A075B0738F4F6
:1054500062968FAD629746E0D42ED80E09C061E007
:10546000C5010E949227D82E882311F08FE0D82EF4
:105470008D2DC75ADF4F0FB6F894DEBF0FBECDBFDC
:10548000DF91CF911F910F91FF90EF90DF90CF9020
:10549000BF90AF909F908F907F906F905F904F9054
:1054A0003F902F9008958F929F92AF92BF92CF928C
:1054B000DF92EF92FF920F931F93CF93DF93CDB7BD
:1054C000DEB7C956D1090FB6F894DEBF0FBECDBF07
:1054D0005C01962E6CE3A9962FAFA997AA963FAFD1
:1054E000AA97A7964FAFA797A8965FAFA897A6963B
:1054F0007FAFA6970E940428A9962FADA997AA96D8
:105500003FADAA97A7964FADA797A8965FADA8976E
:10551000A6967FADA69781115FC0E2EAF9E2859178
:1055200094911F92EF921F930F933F932F935F934A
:105530004F937F939F929F938F939E012F5F3F4F37
:1055400049013F932F930E94668298E9C92E9AE3FE
:10555000D92EE12CF12C09E315E022E335E041E7F7
:1055600055E0B401C5010E9450570FB6F894DEBF54
:105570000FBECDBF813031F0823049F5C5010E94A8
:105580006D2425C0EAEAF9E265917491C4010E9494
:10559000378160ED77E080E090E00E94CE3680EDCC
:1055A000C82E87E0D82EE12CF12C09E315E022E388
:1055B00035E041E755E0B401C5010E945057813004
:1055C00041F0823041F4C5010E946D2404C080E1A5
:1055D00003C080E001C081E1C759DF4F0FB6F894E6
:1055E000DEBF0FBECDBFDF91CF911F910F91FF9016
:1055F000EF90DF90CF90BF90AF909F908F900895E5
:10560000AF92BF92CF92DF92EF92FF920F931F93D0
:10561000CF93DF93CDB7DEB7E2970FB6F894DEBF36
:105620000FBECDBF5C0168EE73E080E090E00E94A9
:10563000CE36E4EAF9E265917491CE0101960E94BA
:10564000378190E1C92E97E2D92EE12CF12C09E3A4
:1056500015E022E335E041E755E0BE016F5F7F4F83
:10566000C5010E945057813011F480E01EC0823085
:1056700029F4C5010E946D2481E017C088EEC82E70
:1056800083E0D82EE12CF12C09E315E022E335E08C
:1056900041E755E0BE016F5F7F4FC5010E94505743
:1056A000813019F3823029F382E0E2960FB6F89444
:1056B000DEBF0FBECDBFDF91CF911F910F91FF9045
:1056C000EF90DF90CF90BF90AF9008952F923F92D0
:1056D0004F925F926F927F928F929F92AF92BF9202
:1056E000CF92DF92EF92FF920F931F93CF93DF93AE
:1056F000CDB7DEB7CA58D1090FB6F894DEBF0FBEDA
:10570000CDBF5C013B01142F052F8AEE91E0A0E094
:10571000B0E0C158DF4F88839983AA83BB83CF57FA
:10572000D040F501E951FD4F1182108260ED77E024
:1057300080E090E00E94CE36612F702FC5010E945C
:10574000FB26811177C2950129503D4FCB57DF4F82
:1057500039832883C558D040D9012D903D904D9074
:105760005C90211431044104510431F482E990E148
:105770000E94B25A81E06BC2BAEE2B16B1E03B0632
:105780004104510440F4C158DF4F288239824A82D3
:105790005B82CF57D040A6961FAEA697A8961FAEA5
:1057A000A8979924939480918D10811101C0912C18
:1057B00080ED9EE00E94424E80ED9EE00E94DA5213
:1057C00080ED9EE00E94E34D811107C0911034C22C
:1057D00080ED9EE00E94A64D2FC2B30180ED9EE0B9
:1057E0000E945D4F813029F4B30180ED9EE00E945C
:1057F000C550B30180ED9EE00E947453811107C033
:1058000091101CC280ED9EE00E94A64D17C22BE0B5
:10581000AE014B595F4FB30180ED9EE00E94084FEF
:10582000811107C091100CC280ED9EE00E94A64D30
:1058300007C260E08CE890E10E943C5440E050E0F8
:10584000BA01CE018B599F4F0E94456781110CC050
:10585000CE018B599F4F0E94D4689110F3C180ED07
:105860009EE00E94A64DEEC1BE016D5C7F4F82E3BB
:10587000FB0111928A95E9F7E8EAF9E285919491A2
:105880000F931F939F938F937F936F93C757DF4F10
:105890006883C958D040C657DF4F7883CA58D04074
:1058A0000E94668220E6C22E2AEED22EE12CF12C36
:1058B00009E315E022E335E041E755E0C757DF4F44
:1058C0006881C958D040C657DF4F7881CA58D04048
:1058D000C5010E9450570F900F900F900F900F909E
:1058E0000F90813089F0823019F4C5010E946D2437
:1058F000CE018B599F4F0E94D4689110A5C180EDB5
:105900009EE00E94A64DA0C1CB57DF4FA881B98170
:10591000C558D0406D917D918D919C916135B3ECCE
:105920007B078105910590F4693AE1E67E078105E0
:10593000910528F024E630E040E050E004C020EA81
:1059400030E040E050E00E942D7D04C02CEB32E0BE
:1059500040E050E0BA01A901C5010E94F85540E0BD
:1059600050E0BA01C5010E94F85564EF71E080E093
:1059700090E00E94CE36ECEBF9E2859194919F93F2
:105980008F938E010F5F1F4F1F930F930E946682AC
:105990000F900F900F900F9095E0892E9E012D5C37
:1059A0003F4FCD57DF4F39832883C358D040C95765
:1059B000DF4F0883C758D040C857DF4F1883C858F7
:1059C000D0403BEE231631E033064104510468F029
:1059D0008AEE91E0A0E0B0E0C158DF4F8883998360
:1059E000AA83BB83CF57D04008C0C158DF4F28825D
:1059F00039824A825B82CF57D040CD57DF4FA88192
:105A0000B981C358D040E2E31D92EA95E9F7EEEA86
:105A1000F9E285919491CE57DF4F2881C258D0404A
:105A20002F93CF57DF4F2881C158D0402F93C058B4
:105A3000DF4F2881C058D0402F93C158DF4F2881B5
:105A4000CF57D0402F939F938F93CC57DF4FF88140
:105A5000C458D040FF93CD57DF4F2881C358D04062
:105A60002F930E94668280EDC82E87E0D82EE12C0D
:105A7000F12C09E315E022E335E0C957DF4F4881F7
:105A8000C758D040C857DF4F5881C858D040BE01D2
:105A90006D5C7F4FC5010E9450570FB6F894DEBF72
:105AA0000FBECDBF823061F4C5010E946D2444E673
:105AB00050E060E070E0C5010E94F85588E0C7C082
:105AC000813041F08A9468EE73E080E090E00E94BB
:105AD000CE367BC024E630E040E050E065E275E081
